{
  "abi": [
    {
      "inputs": [],
      "stateMutability": "nonpayable",
      "type": "constructor"
    },
    {
      "anonymous": false,
      "inputs": [
        {
          "indexed": true,
          "internalType": "bytes32",
          "name": "id",
          "type": "bytes32"
        }
      ],
      "name": "ChainlinkCancelled",
      "type": "event"
    },
    {
      "anonymous": false,
      "inputs": [
        {
          "indexed": true,
          "internalType": "bytes32",
          "name": "id",
          "type": "bytes32"
        }
      ],
      "name": "ChainlinkFulfilled",
      "type": "event"
    },
    {
      "anonymous": false,
      "inputs": [
        {
          "indexed": true,
          "internalType": "bytes32",
          "name": "id",
          "type": "bytes32"
        }
      ],
      "name": "ChainlinkRequested",
      "type": "event"
    },
    {
      "anonymous": false,
      "inputs": [
        {
          "indexed": true,
          "internalType": "bytes32",
          "name": "role",
          "type": "bytes32"
        },
        {
          "indexed": true,
          "internalType": "bytes32",
          "name": "previousAdminRole",
          "type": "bytes32"
        },
        {
          "indexed": true,
          "internalType": "bytes32",
          "name": "newAdminRole",
          "type": "bytes32"
        }
      ],
      "name": "RoleAdminChanged",
      "type": "event"
    },
    {
      "anonymous": false,
      "inputs": [
        {
          "indexed": true,
          "internalType": "bytes32",
          "name": "role",
          "type": "bytes32"
        },
        {
          "indexed": true,
          "internalType": "address",
          "name": "account",
          "type": "address"
        },
        {
          "indexed": true,
          "internalType": "address",
          "name": "sender",
          "type": "address"
        }
      ],
      "name": "RoleGranted",
      "type": "event"
    },
    {
      "anonymous": false,
      "inputs": [
        {
          "indexed": true,
          "internalType": "bytes32",
          "name": "role",
          "type": "bytes32"
        },
        {
          "indexed": true,
          "internalType": "address",
          "name": "account",
          "type": "address"
        },
        {
          "indexed": true,
          "internalType": "address",
          "name": "sender",
          "type": "address"
        }
      ],
      "name": "RoleRevoked",
      "type": "event"
    },
    {
      "anonymous": false,
      "inputs": [
        {
          "indexed": false,
          "internalType": "address",
          "name": "sellerAddress",
          "type": "address"
        },
        {
          "indexed": false,
          "internalType": "string",
          "name": "name",
          "type": "string"
        },
        {
          "indexed": false,
          "internalType": "string",
          "name": "area",
          "type": "string"
        }
      ],
      "name": "SellerRegistered",
      "type": "event"
    },
    {
      "inputs": [],
      "name": "ADMIN_ROLE",
      "outputs": [
        {
          "internalType": "bytes32",
          "name": "",
          "type": "bytes32"
        }
      ],
      "stateMutability": "view",
      "type": "function"
    },
    {
      "inputs": [],
      "name": "DEFAULT_ADMIN_ROLE",
      "outputs": [
        {
          "internalType": "bytes32",
          "name": "",
          "type": "bytes32"
        }
      ],
      "stateMutability": "view",
      "type": "function"
    },
    {
      "inputs": [
        {
          "internalType": "string",
          "name": "currencyTicker",
          "type": "string"
        },
        {
          "internalType": "address",
          "name": "erc20Contract",
          "type": "address"
        }
      ],
      "name": "addSupportedCurrency",
      "outputs": [],
      "stateMutability": "nonpayable",
      "type": "function"
    },
    {
      "inputs": [
        {
          "internalType": "address",
          "name": "seller",
          "type": "address"
        }
      ],
      "name": "getQuotesByAddress",
      "outputs": [
        {
          "components": [
            {
              "internalType": "bytes32",
              "name": "jobId",
              "type": "bytes32"
            },
            {
              "internalType": "uint256",
              "name": "sellerId",
              "type": "uint256"
            },
            {
              "internalType": "uint256",
              "name": "priceUsd",
              "type": "uint256"
            },
            {
              "internalType": "uint256",
              "name": "paymentType",
              "type": "uint256"
            },
            {
              "internalType": "uint256",
              "name": "nOfRevisions",
              "type": "uint256"
            },
            {
              "internalType": "uint256",
              "name": "jobLength",
              "type": "uint256"
            }
          ],
          "internalType": "struct Tennerr.Quote[]",
          "name": "",
          "type": "tuple[]"
        }
      ],
      "stateMutability": "view",
      "type": "function"
    },
    {
      "inputs": [
        {
          "internalType": "bytes32",
          "name": "role",
          "type": "bytes32"
        }
      ],
      "name": "getRoleAdmin",
      "outputs": [
        {
          "internalType": "bytes32",
          "name": "",
          "type": "bytes32"
        }
      ],
      "stateMutability": "view",
      "type": "function"
    },
    {
      "inputs": [
        {
          "internalType": "bytes32",
          "name": "role",
          "type": "bytes32"
        },
        {
          "internalType": "uint256",
          "name": "index",
          "type": "uint256"
        }
      ],
      "name": "getRoleMember",
      "outputs": [
        {
          "internalType": "address",
          "name": "",
          "type": "address"
        }
      ],
      "stateMutability": "view",
      "type": "function"
    },
    {
      "inputs": [
        {
          "internalType": "bytes32",
          "name": "role",
          "type": "bytes32"
        }
      ],
      "name": "getRoleMemberCount",
      "outputs": [
        {
          "internalType": "uint256",
          "name": "",
          "type": "uint256"
        }
      ],
      "stateMutability": "view",
      "type": "function"
    },
    {
      "inputs": [],
      "name": "getSellerId",
      "outputs": [
        {
          "internalType": "uint256",
          "name": "",
          "type": "uint256"
        }
      ],
      "stateMutability": "view",
      "type": "function"
    },
    {
      "inputs": [
        {
          "internalType": "address",
          "name": "sellerAddress",
          "type": "address"
        }
      ],
      "name": "getSellerRegistration",
      "outputs": [
        {
          "internalType": "bool",
          "name": "",
          "type": "bool"
        }
      ],
      "stateMutability": "view",
      "type": "function"
    },
    {
      "inputs": [
        {
          "internalType": "bytes32",
          "name": "role",
          "type": "bytes32"
        },
        {
          "internalType": "address",
          "name": "account",
          "type": "address"
        }
      ],
      "name": "grantRole",
      "outputs": [],
      "stateMutability": "nonpayable",
      "type": "function"
    },
    {
      "inputs": [
        {
          "internalType": "bytes32",
          "name": "role",
          "type": "bytes32"
        },
        {
          "internalType": "address",
          "name": "account",
          "type": "address"
        }
      ],
      "name": "hasRole",
      "outputs": [
        {
          "internalType": "bool",
          "name": "",
          "type": "bool"
        }
      ],
      "stateMutability": "view",
      "type": "function"
    },
    {
      "inputs": [
        {
          "internalType": "address",
          "name": "",
          "type": "address"
        }
      ],
      "name": "isSellerRegistered",
      "outputs": [
        {
          "internalType": "bool",
          "name": "",
          "type": "bool"
        }
      ],
      "stateMutability": "view",
      "type": "function"
    },
    {
      "inputs": [
        {
          "internalType": "uint256",
          "name": "priceInUsd",
          "type": "uint256"
        },
        {
          "internalType": "uint256",
          "name": "paymentType",
          "type": "uint256"
        },
        {
          "internalType": "uint256",
          "name": "nOfRevisions",
          "type": "uint256"
        },
        {
          "internalType": "uint256",
          "name": "jobLength",
          "type": "uint256"
        }
      ],
      "name": "jobQuoteProposal",
      "outputs": [
        {
          "internalType": "bytes32",
          "name": "",
          "type": "bytes32"
        }
      ],
      "stateMutability": "nonpayable",
      "type": "function"
    },
    {
      "inputs": [
        {
          "internalType": "bytes32",
          "name": "sellerQuoteId",
          "type": "bytes32"
        },
        {
          "internalType": "uint256",
          "name": "amountUsd",
          "type": "uint256"
        },
        {
          "internalType": "string",
          "name": "currencyTicker",
          "type": "string"
        }
      ],
      "name": "paySeller",
      "outputs": [],
      "stateMutability": "nonpayable",
      "type": "function"
    },
    {
      "inputs": [
        {
          "internalType": "string",
          "name": "name",
          "type": "string"
        },
        {
          "internalType": "string",
          "name": "area",
          "type": "string"
        },
        {
          "internalType": "string",
          "name": "socialHandle",
          "type": "string"
        }
      ],
      "name": "registerSeller",
      "outputs": [],
      "stateMutability": "nonpayable",
      "type": "function"
    },
    {
      "inputs": [
        {
          "internalType": "bytes32",
          "name": "role",
          "type": "bytes32"
        },
        {
          "internalType": "address",
          "name": "account",
          "type": "address"
        }
      ],
      "name": "renounceRole",
      "outputs": [],
      "stateMutability": "nonpayable",
      "type": "function"
    },
    {
      "inputs": [
        {
          "internalType": "bytes32",
          "name": "role",
          "type": "bytes32"
        },
        {
          "internalType": "address",
          "name": "account",
          "type": "address"
        }
      ],
      "name": "revokeRole",
      "outputs": [],
      "stateMutability": "nonpayable",
      "type": "function"
    },
    {
      "inputs": [
        {
          "internalType": "address payable",
          "name": "newContract",
          "type": "address"
        }
      ],
      "name": "setTennerrController",
      "outputs": [],
      "stateMutability": "nonpayable",
      "type": "function"
    },
    {
      "inputs": [
        {
          "internalType": "address payable",
          "name": "newContract",
          "type": "address"
        }
      ],
      "name": "setTennerrEscrow",
      "outputs": [],
      "stateMutability": "nonpayable",
      "type": "function"
    },
    {
      "inputs": [
        {
          "internalType": "address payable",
          "name": "newContract",
          "type": "address"
        }
      ],
      "name": "setTennerrFactory",
      "outputs": [],
      "stateMutability": "nonpayable",
      "type": "function"
    },
    {
      "inputs": [
        {
          "internalType": "address payable",
          "name": "newContract",
          "type": "address"
        }
      ],
      "name": "setTennerrStreamer",
      "outputs": [],
      "stateMutability": "nonpayable",
      "type": "function"
    },
    {
      "inputs": [],
      "name": "tennerrController",
      "outputs": [
        {
          "internalType": "contract TennerrController",
          "name": "",
          "type": "address"
        }
      ],
      "stateMutability": "view",
      "type": "function"
    },
    {
      "inputs": [],
      "name": "tennerrEscrow",
      "outputs": [
        {
          "internalType": "contract TennerrEscrow",
          "name": "",
          "type": "address"
        }
      ],
      "stateMutability": "view",
      "type": "function"
    },
    {
      "inputs": [],
      "name": "tennerrFactory",
      "outputs": [
        {
          "internalType": "contract TennerrFactory",
          "name": "",
          "type": "address"
        }
      ],
      "stateMutability": "view",
      "type": "function"
    },
    {
      "inputs": [],
      "name": "tennerrStreamer",
      "outputs": [
        {
          "internalType": "contract TennerrStreamer",
          "name": "",
          "type": "address"
        }
      ],
      "stateMutability": "view",
      "type": "function"
    },
    {
      "stateMutability": "payable",
      "type": "receive"
    }
  ],
  "bytecode": "608060405260016006553480156200001657600080fd5b506001808055604051600a906200002d906200024b565b9081526040805160209281900383018120805460ff191694151594909417909355828101905260048252635553444360e01b908201526200008390732791bca1f2de4661ed88a30c99a7a9449aa84174620000b5565b620000af7fa49807205ce4d355092ef5a8a18f56e8913cf4a201fbe287825b095693c2177533620000fb565b6200025b565b80600b83604051620000c891906200020f565b90815260405190819003602001902080546001600160a01b03929092166001600160a01b03199092169190911790555050565b6200010782826200010b565b5050565b6000828152602081815260409091206200013091839062000d0f62000184821b17901c565b15620001075762000140620001a4565b6001600160a01b0316816001600160a01b0316837f2f8788117e7eff1d82e926ec794901d17c78024a50270940304540a733656f0d60405160405180910390a45050565b60006200019b836001600160a01b038416620001a8565b90505b92915050565b3390565b6000620001b68383620001f7565b620001ee575081546001818101845560008481526020808220909301849055845484825282860190935260409020919091556200019e565b5060006200019e565b60009081526001919091016020526040902054151590565b60008251815b8181101562000231576020818601810151858301520162000215565b81811115620002405782828501525b509190910192915050565b635553444360e01b815260040190565b611d09806200026b6000396000f3fe60806040526004361061016a5760003560e01c806375b238fc116100d1578063c64c81f01161008a578063e177390d11610064578063e177390d14610413578063e4986c8914610433578063ed2f6c6414610453578063f069b24a1461046857610171565b8063c64c81f0146103be578063ca15c873146103d3578063d547741f146103f357610171565b806375b238fc14610314578063812b48e0146103295780639010d07c1461034957806391d148541461036957806394cc02bc14610389578063a217fddf146103a957610171565b80634dbb40b2116101235780634dbb40b21461025d5780634eb66fff14610272578063529862731461029257806353bf9296146102bf5780635bd7fa11146102df578063614cf77f146102f457610171565b8063011a0c3c14610176578063248a9ca3146101a157806326947c28146101ce57806326efcb4a146101f05780632f2ff15d1461021d57806336568abe1461023d57610171565b3661017157005b600080fd5b34801561018257600080fd5b5061018b610488565b60405161019891906117e3565b60405180910390f35b3480156101ad57600080fd5b506101c16101bc3660046115b9565b610497565b60405161019891906117a3565b3480156101da57600080fd5b506101ee6101e9366004611621565b6104ac565b005b3480156101fc57600080fd5b5061021061020b36600461157d565b610637565b6040516101989190611903565b34801561022957600080fd5b506101ee6102383660046115d1565b61064c565b34801561024957600080fd5b506101ee6102583660046115d1565b610694565b34801561026957600080fd5b5061018b6106d6565b34801561027e57600080fd5b506101ee61028d36600461157d565b6106e5565b34801561029e57600080fd5b506102b26102ad36600461157d565b610748565b604051610198919061188b565b3480156102cb57600080fd5b506101ee6102da36600461157d565b6107f9565b3480156102eb57600080fd5b5061018b61085c565b34801561030057600080fd5b506101c161030f366004611746565b61086b565b34801561032057600080fd5b506101c1610985565b34801561033557600080fd5b506101ee61034436600461157d565b610997565b34801561035557600080fd5b5061018b610364366004611600565b6109fa565b34801561037557600080fd5b506102106103843660046115d1565b610a1b565b34801561039557600080fd5b506102106103a436600461157d565b610a33565b3480156103b557600080fd5b506101c1610a51565b3480156103ca57600080fd5b5061018b610a56565b3480156103df57600080fd5b506101c16103ee3660046115b9565b610a65565b3480156103ff57600080fd5b506101ee61040e3660046115d1565b610a7c565b34801561041f57600080fd5b506101ee61042e36600461166f565b610ab6565b34801561043f57600080fd5b506101ee61044e3660046116b4565b610afa565b34801561045f57600080fd5b506101c1610c69565b34801561047457600080fd5b506101ee61048336600461157d565b610cac565b6015546001600160a01b031681565b60009081526020819052604090206002015490565b60006001600160a01b0316600b826040516104c791906117ac565b908152604051908190036020019020546001600160a01b031614156105075760405162461bcd60e51b81526004016104fe90611ab6565b60405180910390fd5b61050f611379565b50600083815260106020908152604091829020825160c08101845281548152600182015492810192909252600281015492820183905260038101546060830152600481015460808301526005015460a0820152908084101561057057600080fd5b6020808301516000818152600f90925260409091205460a084015160608501516001600160a01b03909216913391906105ac8a848b848c610d24565b601360009054906101000a90046001600160a01b03166001600160a01b03166345ea3d268685878e8b88886040518863ffffffff1660e01b81526004016105f99796959493929190611c1d565b600060405180830381600087803b15801561061357600080fd5b505af1158015610627573d6000803e3d6000fd5b5050505050505050505050505050565b600c6020526000908152604090205460ff1681565b60008281526020819052604090206002015461066a90610384610ebb565b6106865760405162461bcd60e51b81526004016104fe90611963565b6106908282610ebf565b5050565b61069c610ebb565b6001600160a01b0316816001600160a01b0316146106cc5760405162461bcd60e51b81526004016104fe90611bce565b6106908282610f28565b6017546001600160a01b031681565b6106fd600080516020611cb483398151915233610a1b565b6107195760405162461bcd60e51b81526004016104fe90611b1d565b601280546001600160a01b03199081166001600160a01b03938416179182905560138054929093169116179055565b6001600160a01b0381166000908152601160209081526040808320805482518185028101850190935280835260609492939192909184015b828210156107ee57838290600052602060002090600602016040518060c0016040529081600082015481526020016001820154815260200160028201548152602001600382015481526020016004820154815260200160058201548152505081526020019060010190610780565b505050509050919050565b610811600080516020611cb483398151915233610a1b565b61082d5760405162461bcd60e51b81526004016104fe90611b1d565b601480546001600160a01b03199081166001600160a01b03938416179182905560158054929093169116179055565b6013546001600160a01b031681565b336000908152600c602052604081205460ff1661089a5760405162461bcd60e51b81526004016104fe906119e9565b600484106108ba5760405162461bcd60e51b81526004016104fe906119b2565b336000908152600e602090815260408083205490519092916108e49184918a918a914291016117c8565b60408051601f198184030181529181528151602092830120600081815260108452828120828155600180820197885560028083019d8e5560038084019d8e5560048085019d8e5560058086019d8e5533875260118a529786208054808601825590875298909520935460069098029093019687559754908601559a549584019590955597549882019890985594549185019190915550505492019190915590565b600080516020611cb483398151915281565b6109af600080516020611cb483398151915233610a1b565b6109cb5760405162461bcd60e51b81526004016104fe90611b1d565b601880546001600160a01b03199081166001600160a01b03938416179182905560198054929093169116179055565b6000828152602081905260408120610a129083610f91565b90505b92915050565b6000828152602081905260408120610a129083610f9d565b6001600160a01b03166000908152600c602052604090205460ff1690565b600081565b6019546001600160a01b031681565b6000818152602081905260408120610a1590610fb2565b600082815260208190526040902060020154610a9a90610384610ebb565b6106cc5760405162461bcd60e51b81526004016104fe90611a66565b80600b83604051610ac791906117ac565b90815260405190819003602001902080546001600160a01b03929092166001600160a01b03199092169190911790555050565b336000908152600c602052604090205460ff1615610b2a5760405162461bcd60e51b81526004016104fe90611ae6565b610b346008610fbd565b6000610b406008610fc6565b6000818152600d60209081526040909120828155865192935091610b6c916001840191908801906113b2565b508351610b8290600283019060208701906113b2565b506040805160208101909152838152610ba19060038301906001611430565b5060006004820181905560058201819055600682015560408051808201909152600780825266155b9c985d195960ca1b6020909201918252610be691818401916113b2565b50336000818152600c60209081526040808320805460ff19166001179055600e8252808320869055858352600f9091529081902080546001600160a01b03191683179055517f029a886814235a877cf2ff5df3c674a946b17782bf260ca120b7b951a6d35cc691610c5a91889088906117f7565b60405180910390a15050505050565b336000908152600c602052604081205460ff16610c985760405162461bcd60e51b81526004016104fe906119e9565b50336000908152600e602052604090205490565b610cc4600080516020611cb483398151915233610a1b565b610ce05760405162461bcd60e51b81526004016104fe90611b1d565b601680546001600160a01b03199081166001600160a01b03938416179182905560178054929093169116179055565b6000610a12836001600160a01b038416610fca565b6000600b82604051610d3691906117ac565b908152604051908190036020019020546014546001600160a01b039182169250610d6591839188911687611014565b601754604051630ee12ff960e31b81526000916001600160a01b0316906377097fc890610d989088908790600401611c59565b602060405180830381600087803b158015610db257600080fd5b505af1158015610dc6573d6000803e3d6000fd5b505050506040513d601f19601f82011682018060405250810190610dea919061172e565b905083610dff57610dfa81611072565b610eb2565b8360011415610e1157610dfa81611072565b8360021415610eb25760195460125460405166015ee2a32055ba926001600160a01b039081169263ae015adc929116908490610e51908d906020016117a3565b6040516020818303038152906040526040518463ffffffff1660e01b8152600401610e7e93929190611837565b600060405180830381600087803b158015610e9857600080fd5b505af1158015610eac573d6000803e3d6000fd5b50505050505b50505050505050565b3390565b6000828152602081905260409020610ed79082610d0f565b1561069057610ee4610ebb565b6001600160a01b0316816001600160a01b0316837f2f8788117e7eff1d82e926ec794901d17c78024a50270940304540a733656f0d60405160405180910390a45050565b6000828152602081905260409020610f409082611094565b1561069057610f4d610ebb565b6001600160a01b0316816001600160a01b0316837ff6391f5c32d9c69d2a47ea670b442974b53935d1edc7fd64eb21e047a839171b60405160405180910390a45050565b6000610a1283836110a9565b6000610a12836001600160a01b0384166110ee565b6000610a1582610fc6565b80546001019055565b5490565b6000610fd683836110ee565b61100c57508154600181810184556000848152602080822090930184905584548482528286019093526040902091909155610a15565b506000610a15565b61106c846323b872dd60e01b85858560405160240161103593929190611867565b60408051601f198184030181529190526020810180516001600160e01b03166001600160e01b031990931692909217909152611106565b50505050565b601254601754611091916001600160a01b039182169130911684611014565b50565b6000610a12836001600160a01b03841661119a565b815460009082106110cc5760405162461bcd60e51b81526004016104fe90611921565b8260000182815481106110db57fe5b9060005260206000200154905092915050565b60009081526001919091016020526040902054151590565b606061115b826040518060400160405280602081526020017f5361666545524332303a206c6f772d6c6576656c2063616c6c206661696c6564815250856001600160a01b03166112609092919063ffffffff16565b80519091501561119557808060200190518101906111799190611599565b6111955760405162461bcd60e51b81526004016104fe90611b84565b505050565b6000818152600183016020526040812054801561125657835460001980830191908101906000908790839081106111cd57fe5b90600052602060002001549050808760000184815481106111ea57fe5b60009182526020808320909101929092558281526001898101909252604090209084019055865487908061121a57fe5b60019003818190600052602060002001600090559055866001016000878152602001908152602001600020600090556001945050505050610a15565b6000915050610a15565b606061126f8484600085611279565b90505b9392505050565b60608247101561129b5760405162461bcd60e51b81526004016104fe90611a20565b6112a48561133a565b6112c05760405162461bcd60e51b81526004016104fe90611b4d565b60006060866001600160a01b031685876040516112dd91906117ac565b60006040518083038185875af1925050503d806000811461131a576040519150601f19603f3d011682016040523d82523d6000602084013e61131f565b606091505b509150915061132f828286611340565b979650505050505050565b3b151590565b6060831561134f575081611272565b82511561135f5782518084602001fd5b8160405162461bcd60e51b81526004016104fe919061190e565b6040518060c001604052806000801916815260200160008152602001600081526020016000815260200160008152602001600081525090565b828054600181600116156101000203166002900490600052602060002090601f016020900481019282601f106113f357805160ff1916838001178555611420565b82800160010185558215611420579182015b82811115611420578251825591602001919060010190611405565b5061142c929150611489565b5090565b82805482825590600052602060002090810192821561147d579160200282015b8281111561147d578251805161146d9184916020909101906113b2565b5091602001919060010190611450565b5061142c92915061149e565b5b8082111561142c576000815560010161148a565b8082111561142c5760006114b282826114bb565b5060010161149e565b50805460018160011615610100020316600290046000825580601f106114e15750611091565b601f0160209004906000526020600020908101906110919190611489565b600082601f83011261150f578081fd5b813567ffffffffffffffff80821115611526578283fd5b604051601f8301601f191681016020018281118282101715611546578485fd5b60405282815292508284830160200186101561156157600080fd5b8260208601602083013760006020848301015250505092915050565b60006020828403121561158e578081fd5b813561127281611c9e565b6000602082840312156115aa578081fd5b81518015158114611272578182fd5b6000602082840312156115ca578081fd5b5035919050565b600080604083850312156115e3578081fd5b8235915060208301356115f581611c9e565b809150509250929050565b60008060408385031215611612578182fd5b50508035926020909101359150565b600080600060608486031215611635578081fd5b8335925060208401359150604084013567ffffffffffffffff811115611659578182fd5b611665868287016114ff565b9150509250925092565b60008060408385031215611681578182fd5b823567ffffffffffffffff811115611697578283fd5b6116a3858286016114ff565b92505060208301356115f581611c9e565b6000806000606084860312156116c8578283fd5b833567ffffffffffffffff808211156116df578485fd5b6116eb878388016114ff565b94506020860135915080821115611700578384fd5b61170c878388016114ff565b93506040860135915080821115611721578283fd5b50611665868287016114ff565b60006020828403121561173f578081fd5b5051919050565b6000806000806080858703121561175b578081fd5b5050823594602084013594506040840135936060013592509050565b6000815180845261178f816020860160208601611c72565b601f01601f19169290920160200192915050565b90815260200190565b600082516117be818460208701611c72565b9190910192915050565b93845260208401929092526040830152606082015260800190565b6001600160a01b0391909116815260200190565b6001600160a01b038416815260606020820181905260009061181b90830185611777565b828103604084015261182d8185611777565b9695505050505050565b600060018060a01b03851682528360208301526060604083015261185e6060830184611777565b95945050505050565b6001600160a01b039384168152919092166020820152604081019190915260600190565b602080825282518282018190526000919060409081850190868401855b828110156118f65781518051855286810151878601528581015186860152606080820151908601526080808201519086015260a0908101519085015260c090930192908501906001016118a8565b5091979650505050505050565b901515815260200190565b600060208252610a126020830184611777565b60208082526022908201527f456e756d657261626c655365743a20696e646578206f7574206f6620626f756e604082015261647360f01b606082015260800190565b6020808252602f908201527f416363657373436f6e74726f6c3a2073656e646572206d75737420626520616e60408201526e0818591b5a5b881d1bc819dc985b9d608a1b606082015260800190565b6020808252601b908201527f5061796d656e742074797065206e6f74207265636f676e697a65640000000000604082015260600190565b6020808252601f908201527f596f75206e65656420746f206265207265676973746572656420666972737400604082015260600190565b60208082526026908201527f416464726573733a20696e73756666696369656e742062616c616e636520666f6040820152651c8818d85b1b60d21b606082015260800190565b60208082526030908201527f416363657373436f6e74726f6c3a2073656e646572206d75737420626520616e60408201526f2061646d696e20746f207265766f6b6560801b606082015260800190565b60208082526016908201527524b73b30b634b21031bab93932b731bc9031b7b2329760511b604082015260600190565b60208082526017908201527f5573657220616c72656164792072656769737465726564000000000000000000604082015260600190565b60208082526016908201527521b0b63632b91034b9903737ba1030b71030b236b4b760511b604082015260600190565b6020808252601d908201527f416464726573733a2063616c6c20746f206e6f6e2d636f6e7472616374000000604082015260600190565b6020808252602a908201527f5361666545524332303a204552433230206f7065726174696f6e20646964206e6040820152691bdd081cdd58d8d9595960b21b606082015260800190565b6020808252602f908201527f416363657373436f6e74726f6c3a2063616e206f6e6c792072656e6f756e636560408201526e103937b632b9903337b91039b2b63360891b606082015260800190565b9687526001600160a01b0395861660208801529390941660408601526060850191909152608084015260a083019190915260c082015260e00190565b60008382526040602083015261126f6040830184611777565b60005b83811015611c8d578181015183820152602001611c75565b8381111561106c5750506000910152565b6001600160a01b038116811461109157600080fdfea49807205ce4d355092ef5a8a18f56e8913cf4a201fbe287825b095693c21775a26469706673582212204f65200a63f6f0b11ac2d51e702a7e9a2ec3c4585dd6493d0d6d6cf558da7c2864736f6c63430007010033",
  "bytecodeSha1": "091e150e87baafb813999adaa3b486a9b4f7324e",
  "compiler": {
    "evm_version": "istanbul",
    "optimizer": {
      "enabled": true,
      "runs": 200
    },
    "version": "0.7.1+commit.f4a555be"
  },
  "contractName": "Tennerr",
  "language": "Solidity",
  "natspec": {
    "kind": "dev",
    "methods": {
      "getRoleAdmin(bytes32)": {
        "details": "Returns the admin role that controls `role`. See {grantRole} and {revokeRole}. To change a role's admin, use {_setRoleAdmin}."
      },
      "getRoleMember(bytes32,uint256)": {
        "details": "Returns one of the accounts that have `role`. `index` must be a value between 0 and {getRoleMemberCount}, non-inclusive. Role bearers are not sorted in any particular way, and their ordering may change at any point. WARNING: When using {getRoleMember} and {getRoleMemberCount}, make sure you perform all queries on the same block. See the following https://forum.openzeppelin.com/t/iterating-over-elements-on-enumerableset-in-openzeppelin-contracts/2296[forum post] for more information."
      },
      "getRoleMemberCount(bytes32)": {
        "details": "Returns the number of accounts that have `role`. Can be used together with {getRoleMember} to enumerate all bearers of a role."
      },
      "grantRole(bytes32,address)": {
        "details": "Grants `role` to `account`. If `account` had not been already granted `role`, emits a {RoleGranted} event. Requirements: - the caller must have ``role``'s admin role."
      },
      "hasRole(bytes32,address)": {
        "details": "Returns `true` if `account` has been granted `role`."
      },
      "renounceRole(bytes32,address)": {
        "details": "Revokes `role` from the calling account. Roles are often managed via {grantRole} and {revokeRole}: this function's purpose is to provide a mechanism for accounts to lose their privileges if they are compromised (such as when a trusted device is misplaced). If the calling account had been granted `role`, emits a {RoleRevoked} event. Requirements: - the caller must be `account`."
      },
      "revokeRole(bytes32,address)": {
        "details": "Revokes `role` from `account`. If `account` had been granted `role`, emits a {RoleRevoked} event. Requirements: - the caller must have ``role``'s admin role."
      }
    },
    "version": 1
  },
  "opcodes": "PUSH1 0x80 PUSH1 0x40 MSTORE PUSH1 0x4 CALLDATASIZE LT PUSH2 0x16A JUMPI PUSH1 0x0 CALLDATALOAD PUSH1 0xE0 SHR DUP1 PUSH4 0x75B238FC GT PUSH2 0xD1 JUMPI DUP1 PUSH4 0xC64C81F0 GT PUSH2 0x8A JUMPI DUP1 PUSH4 0xE177390D GT PUSH2 0x64 JUMPI DUP1 PUSH4 0xE177390D EQ PUSH2 0x413 JUMPI DUP1 PUSH4 0xE4986C89 EQ PUSH2 0x433 JUMPI DUP1 PUSH4 0xED2F6C64 EQ PUSH2 0x453 JUMPI DUP1 PUSH4 0xF069B24A EQ PUSH2 0x468 JUMPI PUSH2 0x171 JUMP JUMPDEST DUP1 PUSH4 0xC64C81F0 EQ PUSH2 0x3BE JUMPI DUP1 PUSH4 0xCA15C873 EQ PUSH2 0x3D3 JUMPI DUP1 PUSH4 0xD547741F EQ PUSH2 0x3F3 JUMPI PUSH2 0x171 JUMP JUMPDEST DUP1 PUSH4 0x75B238FC EQ PUSH2 0x314 JUMPI DUP1 PUSH4 0x812B48E0 EQ PUSH2 0x329 JUMPI DUP1 PUSH4 0x9010D07C EQ PUSH2 0x349 JUMPI DUP1 PUSH4 0x91D14854 EQ PUSH2 0x369 JUMPI DUP1 PUSH4 0x94CC02BC EQ PUSH2 0x389 JUMPI DUP1 PUSH4 0xA217FDDF EQ PUSH2 0x3A9 JUMPI PUSH2 0x171 JUMP JUMPDEST DUP1 PUSH4 0x4DBB40B2 GT PUSH2 0x123 JUMPI DUP1 PUSH4 0x4DBB40B2 EQ PUSH2 0x25D JUMPI DUP1 PUSH4 0x4EB66FFF EQ PUSH2 0x272 JUMPI DUP1 PUSH4 0x52986273 EQ PUSH2 0x292 JUMPI DUP1 PUSH4 0x53BF9296 EQ PUSH2 0x2BF JUMPI DUP1 PUSH4 0x5BD7FA11 EQ PUSH2 0x2DF JUMPI DUP1 PUSH4 0x614CF77F EQ PUSH2 0x2F4 JUMPI PUSH2 0x171 JUMP JUMPDEST DUP1 PUSH4 0x11A0C3C EQ PUSH2 0x176 JUMPI DUP1 PUSH4 0x248A9CA3 EQ PUSH2 0x1A1 JUMPI DUP1 PUSH4 0x26947C28 EQ PUSH2 0x1CE JUMPI DUP1 PUSH4 0x26EFCB4A EQ PUSH2 0x1F0 JUMPI DUP1 PUSH4 0x2F2FF15D EQ PUSH2 0x21D JUMPI DUP1 PUSH4 0x36568ABE EQ PUSH2 0x23D JUMPI PUSH2 0x171 JUMP JUMPDEST CALLDATASIZE PUSH2 0x171 JUMPI STOP JUMPDEST PUSH1 0x0 DUP1 REVERT JUMPDEST CALLVALUE DUP1 ISZERO PUSH2 0x182 JUMPI PUSH1 0x0 DUP1 REVERT JUMPDEST POP PUSH2 0x18B PUSH2 0x488 JUMP JUMPDEST PUSH1 0x40 MLOAD PUSH2 0x198 SWAP2 SWAP1 PUSH2 0x17E3 JUMP JUMPDEST PUSH1 0x40 MLOAD DUP1 SWAP2 SUB SWAP1 RETURN JUMPDEST CALLVALUE DUP1 ISZERO PUSH2 0x1AD JUMPI PUSH1 0x0 DUP1 REVERT JUMPDEST POP PUSH2 0x1C1 PUSH2 0x1BC CALLDATASIZE PUSH1 0x4 PUSH2 0x15B9 JUMP JUMPDEST PUSH2 0x497 JUMP JUMPDEST PUSH1 0x40 MLOAD PUSH2 0x198 SWAP2 SWAP1 PUSH2 0x17A3 JUMP JUMPDEST CALLVALUE DUP1 ISZERO PUSH2 0x1DA JUMPI PUSH1 0x0 DUP1 REVERT JUMPDEST POP PUSH2 0x1EE PUSH2 0x1E9 CALLDATASIZE PUSH1 0x4 PUSH2 0x1621 JUMP JUMPDEST PUSH2 0x4AC JUMP JUMPDEST STOP JUMPDEST CALLVALUE DUP1 ISZERO PUSH2 0x1FC JUMPI PUSH1 0x0 DUP1 REVERT JUMPDEST POP PUSH2 0x210 PUSH2 0x20B CALLDATASIZE PUSH1 0x4 PUSH2 0x157D JUMP JUMPDEST PUSH2 0x637 JUMP JUMPDEST PUSH1 0x40 MLOAD PUSH2 0x198 SWAP2 SWAP1 PUSH2 0x1903 JUMP JUMPDEST CALLVALUE DUP1 ISZERO PUSH2 0x229 JUMPI PUSH1 0x0 DUP1 REVERT JUMPDEST POP PUSH2 0x1EE PUSH2 0x238 CALLDATASIZE PUSH1 0x4 PUSH2 0x15D1 JUMP JUMPDEST PUSH2 0x64C JUMP JUMPDEST CALLVALUE DUP1 ISZERO PUSH2 0x249 JUMPI PUSH1 0x0 DUP1 REVERT JUMPDEST POP PUSH2 0x1EE PUSH2 0x258 CALLDATASIZE PUSH1 0x4 PUSH2 0x15D1 JUMP JUMPDEST PUSH2 0x694 JUMP JUMPDEST CALLVALUE DUP1 ISZERO PUSH2 0x269 JUMPI PUSH1 0x0 DUP1 REVERT JUMPDEST POP PUSH2 0x18B PUSH2 0x6D6 JUMP JUMPDEST CALLVALUE DUP1 ISZERO PUSH2 0x27E JUMPI PUSH1 0x0 DUP1 REVERT JUMPDEST POP PUSH2 0x1EE PUSH2 0x28D CALLDATASIZE PUSH1 0x4 PUSH2 0x157D JUMP JUMPDEST PUSH2 0x6E5 JUMP JUMPDEST CALLVALUE DUP1 ISZERO PUSH2 0x29E JUMPI PUSH1 0x0 DUP1 REVERT JUMPDEST POP PUSH2 0x2B2 PUSH2 0x2AD CALLDATASIZE PUSH1 0x4 PUSH2 0x157D JUMP JUMPDEST PUSH2 0x748 JUMP JUMPDEST PUSH1 0x40 MLOAD PUSH2 0x198 SWAP2 SWAP1 PUSH2 0x188B JUMP JUMPDEST CALLVALUE DUP1 ISZERO PUSH2 0x2CB JUMPI PUSH1 0x0 DUP1 REVERT JUMPDEST POP PUSH2 0x1EE PUSH2 0x2DA CALLDATASIZE PUSH1 0x4 PUSH2 0x157D JUMP JUMPDEST PUSH2 0x7F9 JUMP JUMPDEST CALLVALUE DUP1 ISZERO PUSH2 0x2EB JUMPI PUSH1 0x0 DUP1 REVERT JUMPDEST POP PUSH2 0x18B PUSH2 0x85C JUMP JUMPDEST CALLVALUE DUP1 ISZERO PUSH2 0x300 JUMPI PUSH1 0x0 DUP1 REVERT JUMPDEST POP PUSH2 0x1C1 PUSH2 0x30F CALLDATASIZE PUSH1 0x4 PUSH2 0x1746 JUMP JUMPDEST PUSH2 0x86B JUMP JUMPDEST CALLVALUE DUP1 ISZERO PUSH2 0x320 JUMPI PUSH1 0x0 DUP1 REVERT JUMPDEST POP PUSH2 0x1C1 PUSH2 0x985 JUMP JUMPDEST CALLVALUE DUP1 ISZERO PUSH2 0x335 JUMPI PUSH1 0x0 DUP1 REVERT JUMPDEST POP PUSH2 0x1EE PUSH2 0x344 CALLDATASIZE PUSH1 0x4 PUSH2 0x157D JUMP JUMPDEST PUSH2 0x997 JUMP JUMPDEST CALLVALUE DUP1 ISZERO PUSH2 0x355 JUMPI PUSH1 0x0 DUP1 REVERT JUMPDEST POP PUSH2 0x18B PUSH2 0x364 CALLDATASIZE PUSH1 0x4 PUSH2 0x1600 JUMP JUMPDEST PUSH2 0x9FA JUMP JUMPDEST CALLVALUE DUP1 ISZERO PUSH2 0x375 JUMPI PUSH1 0x0 DUP1 REVERT JUMPDEST POP PUSH2 0x210 PUSH2 0x384 CALLDATASIZE PUSH1 0x4 PUSH2 0x15D1 JUMP JUMPDEST PUSH2 0xA1B JUMP JUMPDEST CALLVALUE DUP1 ISZERO PUSH2 0x395 JUMPI PUSH1 0x0 DUP1 REVERT JUMPDEST POP PUSH2 0x210 PUSH2 0x3A4 CALLDATASIZE PUSH1 0x4 PUSH2 0x157D JUMP JUMPDEST PUSH2 0xA33 JUMP JUMPDEST CALLVALUE DUP1 ISZERO PUSH2 0x3B5 JUMPI PUSH1 0x0 DUP1 REVERT JUMPDEST POP PUSH2 0x1C1 PUSH2 0xA51 JUMP JUMPDEST CALLVALUE DUP1 ISZERO PUSH2 0x3CA JUMPI PUSH1 0x0 DUP1 REVERT JUMPDEST POP PUSH2 0x18B PUSH2 0xA56 JUMP JUMPDEST CALLVALUE DUP1 ISZERO PUSH2 0x3DF JUMPI PUSH1 0x0 DUP1 REVERT JUMPDEST POP PUSH2 0x1C1 PUSH2 0x3EE CALLDATASIZE PUSH1 0x4 PUSH2 0x15B9 JUMP JUMPDEST PUSH2 0xA65 JUMP JUMPDEST CALLVALUE DUP1 ISZERO PUSH2 0x3FF JUMPI PUSH1 0x0 DUP1 REVERT JUMPDEST POP PUSH2 0x1EE PUSH2 0x40E CALLDATASIZE PUSH1 0x4 PUSH2 0x15D1 JUMP JUMPDEST PUSH2 0xA7C JUMP JUMPDEST CALLVALUE DUP1 ISZERO PUSH2 0x41F JUMPI PUSH1 0x0 DUP1 REVERT JUMPDEST POP PUSH2 0x1EE PUSH2 0x42E CALLDATASIZE PUSH1 0x4 PUSH2 0x166F JUMP JUMPDEST PUSH2 0xAB6 JUMP JUMPDEST CALLVALUE DUP1 ISZERO PUSH2 0x43F JUMPI PUSH1 0x0 DUP1 REVERT JUMPDEST POP PUSH2 0x1EE PUSH2 0x44E CALLDATASIZE PUSH1 0x4 PUSH2 0x16B4 JUMP JUMPDEST PUSH2 0xAFA JUMP JUMPDEST CALLVALUE DUP1 ISZERO PUSH2 0x45F JUMPI PUSH1 0x0 DUP1 REVERT JUMPDEST POP PUSH2 0x1C1 PUSH2 0xC69 JUMP JUMPDEST CALLVALUE DUP1 ISZERO PUSH2 0x474 JUMPI PUSH1 0x0 DUP1 REVERT JUMPDEST POP PUSH2 0x1EE PUSH2 0x483 CALLDATASIZE PUSH1 0x4 PUSH2 0x157D JUMP JUMPDEST PUSH2 0xCAC JUMP JUMPDEST PUSH1 0x15 SLOAD PUSH1 0x1 PUSH1 0x1 PUSH1 0xA0 SHL SUB AND DUP2 JUMP JUMPDEST PUSH1 0x0 SWAP1 DUP2 MSTORE PUSH1 0x20 DUP2 SWAP1 MSTORE PUSH1 0x40 SWAP1 KECCAK256 PUSH1 0x2 ADD SLOAD SWAP1 JUMP JUMPDEST PUSH1 0x0 PUSH1 0x1 PUSH1 0x1 PUSH1 0xA0 SHL SUB AND PUSH1 0xB DUP3 PUSH1 0x40 MLOAD PUSH2 0x4C7 SWAP2 SWAP1 PUSH2 0x17AC JUMP JUMPDEST SWAP1 DUP2 MSTORE PUSH1 0x40 MLOAD SWAP1 DUP2 SWAP1 SUB PUSH1 0x20 ADD SWAP1 KECCAK256 SLOAD PUSH1 0x1 PUSH1 0x1 PUSH1 0xA0 SHL SUB AND EQ ISZERO PUSH2 0x507 JUMPI PUSH1 0x40 MLOAD PUSH3 0x461BCD PUSH1 0xE5 SHL DUP2 MSTORE PUSH1 0x4 ADD PUSH2 0x4FE SWAP1 PUSH2 0x1AB6 JUMP JUMPDEST PUSH1 0x40 MLOAD DUP1 SWAP2 SUB SWAP1 REVERT JUMPDEST PUSH2 0x50F PUSH2 0x1379 JUMP JUMPDEST POP PUSH1 0x0 DUP4 DUP2 MSTORE PUSH1 0x10 PUSH1 0x20 SWAP1 DUP2 MSTORE PUSH1 0x40 SWAP2 DUP3 SWAP1 KECCAK256 DUP3 MLOAD PUSH1 0xC0 DUP2 ADD DUP5 MSTORE DUP2 SLOAD DUP2 MSTORE PUSH1 0x1 DUP3 ADD SLOAD SWAP3 DUP2 ADD SWAP3 SWAP1 SWAP3 MSTORE PUSH1 0x2 DUP2 ADD SLOAD SWAP3 DUP3 ADD DUP4 SWAP1 MSTORE PUSH1 0x3 DUP2 ADD SLOAD PUSH1 0x60 DUP4 ADD MSTORE PUSH1 0x4 DUP2 ADD SLOAD PUSH1 0x80 DUP4 ADD MSTORE PUSH1 0x5 ADD SLOAD PUSH1 0xA0 DUP3 ADD MSTORE SWAP1 DUP1 DUP5 LT ISZERO PUSH2 0x570 JUMPI PUSH1 0x0 DUP1 REVERT JUMPDEST PUSH1 0x20 DUP1 DUP4 ADD MLOAD PUSH1 0x0 DUP2 DUP2 MSTORE PUSH1 0xF SWAP1 SWAP3 MSTORE PUSH1 0x40 SWAP1 SWAP2 KECCAK256 SLOAD PUSH1 0xA0 DUP5 ADD MLOAD PUSH1 0x60 DUP6 ADD MLOAD PUSH1 0x1 PUSH1 0x1 PUSH1 0xA0 SHL SUB SWAP1 SWAP3 AND SWAP2 CALLER SWAP2 SWAP1 PUSH2 0x5AC DUP11 DUP5 DUP12 DUP5 DUP13 PUSH2 0xD24 JUMP JUMPDEST PUSH1 0x13 PUSH1 0x0 SWAP1 SLOAD SWAP1 PUSH2 0x100 EXP SWAP1 DIV PUSH1 0x1 PUSH1 0x1 PUSH1 0xA0 SHL SUB AND PUSH1 0x1 PUSH1 0x1 PUSH1 0xA0 SHL SUB AND PUSH4 0x45EA3D26 DUP7 DUP6 DUP8 DUP15 DUP12 DUP9 DUP9 PUSH1 0x40 MLOAD DUP9 PUSH4 0xFFFFFFFF AND PUSH1 0xE0 SHL DUP2 MSTORE PUSH1 0x4 ADD PUSH2 0x5F9 SWAP8 SWAP7 SWAP6 SWAP5 SWAP4 SWAP3 SWAP2 SWAP1 PUSH2 0x1C1D JUMP JUMPDEST PUSH1 0x0 PUSH1 0x40 MLOAD DUP1 DUP4 SUB DUP2 PUSH1 0x0 DUP8 DUP1 EXTCODESIZE ISZERO DUP1 ISZERO PUSH2 0x613 JUMPI PUSH1 0x0 DUP1 REVERT JUMPDEST POP GAS CALL ISZERO DUP1 ISZERO PUSH2 0x627 JUMPI RETURNDATASIZE PUSH1 0x0 DUP1 RETURNDATACOPY RETURNDATASIZE PUSH1 0x0 REVERT JUMPDEST POP POP POP POP POP POP POP POP POP POP POP POP POP POP JUMP JUMPDEST PUSH1 0xC PUSH1 0x20 MSTORE PUSH1 0x0 SWAP1 DUP2 MSTORE PUSH1 0x40 SWAP1 KECCAK256 SLOAD PUSH1 0xFF AND DUP2 JUMP JUMPDEST PUSH1 0x0 DUP3 DUP2 MSTORE PUSH1 0x20 DUP2 SWAP1 MSTORE PUSH1 0x40 SWAP1 KECCAK256 PUSH1 0x2 ADD SLOAD PUSH2 0x66A SWAP1 PUSH2 0x384 PUSH2 0xEBB JUMP JUMPDEST PUSH2 0x686 JUMPI PUSH1 0x40 MLOAD PUSH3 0x461BCD PUSH1 0xE5 SHL DUP2 MSTORE PUSH1 0x4 ADD PUSH2 0x4FE SWAP1 PUSH2 0x1963 JUMP JUMPDEST PUSH2 0x690 DUP3 DUP3 PUSH2 0xEBF JUMP JUMPDEST POP POP JUMP JUMPDEST PUSH2 0x69C PUSH2 0xEBB JUMP JUMPDEST PUSH1 0x1 PUSH1 0x1 PUSH1 0xA0 SHL SUB AND DUP2 PUSH1 0x1 PUSH1 0x1 PUSH1 0xA0 SHL SUB AND EQ PUSH2 0x6CC JUMPI PUSH1 0x40 MLOAD PUSH3 0x461BCD PUSH1 0xE5 SHL DUP2 MSTORE PUSH1 0x4 ADD PUSH2 0x4FE SWAP1 PUSH2 0x1BCE JUMP JUMPDEST PUSH2 0x690 DUP3 DUP3 PUSH2 0xF28 JUMP JUMPDEST PUSH1 0x17 SLOAD PUSH1 0x1 PUSH1 0x1 PUSH1 0xA0 SHL SUB AND DUP2 JUMP JUMPDEST PUSH2 0x6FD PUSH1 0x0 DUP1 MLOAD PUSH1 0x20 PUSH2 0x1CB4 DUP4 CODECOPY DUP2 MLOAD SWAP2 MSTORE CALLER PUSH2 0xA1B JUMP JUMPDEST PUSH2 0x719 JUMPI PUSH1 0x40 MLOAD PUSH3 0x461BCD PUSH1 0xE5 SHL DUP2 MSTORE PUSH1 0x4 ADD PUSH2 0x4FE SWAP1 PUSH2 0x1B1D JUMP JUMPDEST PUSH1 0x12 DUP1 SLOAD PUSH1 0x1 PUSH1 0x1 PUSH1 0xA0 SHL SUB NOT SWAP1 DUP2 AND PUSH1 0x1 PUSH1 0x1 PUSH1 0xA0 SHL SUB SWAP4 DUP5 AND OR SWAP2 DUP3 SWAP1 SSTORE PUSH1 0x13 DUP1 SLOAD SWAP3 SWAP1 SWAP4 AND SWAP2 AND OR SWAP1 SSTORE JUMP JUMPDEST PUSH1 0x1 PUSH1 0x1 PUSH1 0xA0 SHL SUB DUP2 AND PUSH1 0x0 SWAP1 DUP2 MSTORE PUSH1 0x11 PUSH1 0x20 SWAP1 DUP2 MSTORE PUSH1 0x40 DUP1 DUP4 KECCAK256 DUP1 SLOAD DUP3 MLOAD DUP2 DUP6 MUL DUP2 ADD DUP6 ADD SWAP1 SWAP4 MSTORE DUP1 DUP4 MSTORE PUSH1 0x60 SWAP5 SWAP3 SWAP4 SWAP2 SWAP3 SWAP1 SWAP2 DUP5 ADD JUMPDEST DUP3 DUP3 LT ISZERO PUSH2 0x7EE JUMPI DUP4 DUP3 SWAP1 PUSH1 0x0 MSTORE PUSH1 0x20 PUSH1 0x0 KECCAK256 SWAP1 PUSH1 0x6 MUL ADD PUSH1 0x40 MLOAD DUP1 PUSH1 0xC0 ADD PUSH1 0x40 MSTORE SWAP1 DUP2 PUSH1 0x0 DUP3 ADD SLOAD DUP2 MSTORE PUSH1 0x20 ADD PUSH1 0x1 DUP3 ADD SLOAD DUP2 MSTORE PUSH1 0x20 ADD PUSH1 0x2 DUP3 ADD SLOAD DUP2 MSTORE PUSH1 0x20 ADD PUSH1 0x3 DUP3 ADD SLOAD DUP2 MSTORE PUSH1 0x20 ADD PUSH1 0x4 DUP3 ADD SLOAD DUP2 MSTORE PUSH1 0x20 ADD PUSH1 0x5 DUP3 ADD SLOAD DUP2 MSTORE POP POP DUP2 MSTORE PUSH1 0x20 ADD SWAP1 PUSH1 0x1 ADD SWAP1 PUSH2 0x780 JUMP JUMPDEST POP POP POP POP SWAP1 POP SWAP2 SWAP1 POP JUMP JUMPDEST PUSH2 0x811 PUSH1 0x0 DUP1 MLOAD PUSH1 0x20 PUSH2 0x1CB4 DUP4 CODECOPY DUP2 MLOAD SWAP2 MSTORE CALLER PUSH2 0xA1B JUMP JUMPDEST PUSH2 0x82D JUMPI PUSH1 0x40 MLOAD PUSH3 0x461BCD PUSH1 0xE5 SHL DUP2 MSTORE PUSH1 0x4 ADD PUSH2 0x4FE SWAP1 PUSH2 0x1B1D JUMP JUMPDEST PUSH1 0x14 DUP1 SLOAD PUSH1 0x1 PUSH1 0x1 PUSH1 0xA0 SHL SUB NOT SWAP1 DUP2 AND PUSH1 0x1 PUSH1 0x1 PUSH1 0xA0 SHL SUB SWAP4 DUP5 AND OR SWAP2 DUP3 SWAP1 SSTORE PUSH1 0x15 DUP1 SLOAD SWAP3 SWAP1 SWAP4 AND SWAP2 AND OR SWAP1 SSTORE JUMP JUMPDEST PUSH1 0x13 SLOAD PUSH1 0x1 PUSH1 0x1 PUSH1 0xA0 SHL SUB AND DUP2 JUMP JUMPDEST CALLER PUSH1 0x0 SWAP1 DUP2 MSTORE PUSH1 0xC PUSH1 0x20 MSTORE PUSH1 0x40 DUP2 KECCAK256 SLOAD PUSH1 0xFF AND PUSH2 0x89A JUMPI PUSH1 0x40 MLOAD PUSH3 0x461BCD PUSH1 0xE5 SHL DUP2 MSTORE PUSH1 0x4 ADD PUSH2 0x4FE SWAP1 PUSH2 0x19E9 JUMP JUMPDEST PUSH1 0x4 DUP5 LT PUSH2 0x8BA JUMPI PUSH1 0x40 MLOAD PUSH3 0x461BCD PUSH1 0xE5 SHL DUP2 MSTORE PUSH1 0x4 ADD PUSH2 0x4FE SWAP1 PUSH2 0x19B2 JUMP JUMPDEST CALLER PUSH1 0x0 SWAP1 DUP2 MSTORE PUSH1 0xE PUSH1 0x20 SWAP1 DUP2 MSTORE PUSH1 0x40 DUP1 DUP4 KECCAK256 SLOAD SWAP1 MLOAD SWAP1 SWAP3 SWAP2 PUSH2 0x8E4 SWAP2 DUP5 SWAP2 DUP11 SWAP2 DUP11 SWAP2 TIMESTAMP SWAP2 ADD PUSH2 0x17C8 JUMP JUMPDEST PUSH1 0x40 DUP1 MLOAD PUSH1 0x1F NOT DUP2 DUP5 SUB ADD DUP2 MSTORE SWAP2 DUP2 MSTORE DUP2 MLOAD PUSH1 0x20 SWAP3 DUP4 ADD KECCAK256 PUSH1 0x0 DUP2 DUP2 MSTORE PUSH1 0x10 DUP5 MSTORE DUP3 DUP2 KECCAK256 DUP3 DUP2 SSTORE PUSH1 0x1 DUP1 DUP3 ADD SWAP8 DUP9 SSTORE PUSH1 0x2 DUP1 DUP4 ADD SWAP14 DUP15 SSTORE PUSH1 0x3 DUP1 DUP5 ADD SWAP14 DUP15 SSTORE PUSH1 0x4 DUP1 DUP6 ADD SWAP14 DUP15 SSTORE PUSH1 0x5 DUP1 DUP7 ADD SWAP14 DUP15 SSTORE CALLER DUP8 MSTORE PUSH1 0x11 DUP11 MSTORE SWAP8 DUP7 KECCAK256 DUP1 SLOAD DUP1 DUP7 ADD DUP3 SSTORE SWAP1 DUP8 MSTORE SWAP9 SWAP1 SWAP6 KECCAK256 SWAP4 SLOAD PUSH1 0x6 SWAP1 SWAP9 MUL SWAP1 SWAP4 ADD SWAP7 DUP8 SSTORE SWAP8 SLOAD SWAP1 DUP7 ADD SSTORE SWAP11 SLOAD SWAP6 DUP5 ADD SWAP6 SWAP1 SWAP6 SSTORE SWAP8 SLOAD SWAP9 DUP3 ADD SWAP9 SWAP1 SWAP9 SSTORE SWAP5 SLOAD SWAP2 DUP6 ADD SWAP2 SWAP1 SWAP2 SSTORE POP POP SLOAD SWAP3 ADD SWAP2 SWAP1 SWAP2 SSTORE SWAP1 JUMP JUMPDEST PUSH1 0x0 DUP1 MLOAD PUSH1 0x20 PUSH2 0x1CB4 DUP4 CODECOPY DUP2 MLOAD SWAP2 MSTORE DUP2 JUMP JUMPDEST PUSH2 0x9AF PUSH1 0x0 DUP1 MLOAD PUSH1 0x20 PUSH2 0x1CB4 DUP4 CODECOPY DUP2 MLOAD SWAP2 MSTORE CALLER PUSH2 0xA1B JUMP JUMPDEST PUSH2 0x9CB JUMPI PUSH1 0x40 MLOAD PUSH3 0x461BCD PUSH1 0xE5 SHL DUP2 MSTORE PUSH1 0x4 ADD PUSH2 0x4FE SWAP1 PUSH2 0x1B1D JUMP JUMPDEST PUSH1 0x18 DUP1 SLOAD PUSH1 0x1 PUSH1 0x1 PUSH1 0xA0 SHL SUB NOT SWAP1 DUP2 AND PUSH1 0x1 PUSH1 0x1 PUSH1 0xA0 SHL SUB SWAP4 DUP5 AND OR SWAP2 DUP3 SWAP1 SSTORE PUSH1 0x19 DUP1 SLOAD SWAP3 SWAP1 SWAP4 AND SWAP2 AND OR SWAP1 SSTORE JUMP JUMPDEST PUSH1 0x0 DUP3 DUP2 MSTORE PUSH1 0x20 DUP2 SWAP1 MSTORE PUSH1 0x40 DUP2 KECCAK256 PUSH2 0xA12 SWAP1 DUP4 PUSH2 0xF91 JUMP JUMPDEST SWAP1 POP JUMPDEST SWAP3 SWAP2 POP POP JUMP JUMPDEST PUSH1 0x0 DUP3 DUP2 MSTORE PUSH1 0x20 DUP2 SWAP1 MSTORE PUSH1 0x40 DUP2 KECCAK256 PUSH2 0xA12 SWAP1 DUP4 PUSH2 0xF9D JUMP JUMPDEST PUSH1 0x1 PUSH1 0x1 PUSH1 0xA0 SHL SUB AND PUSH1 0x0 SWAP1 DUP2 MSTORE PUSH1 0xC PUSH1 0x20 MSTORE PUSH1 0x40 SWAP1 KECCAK256 SLOAD PUSH1 0xFF AND SWAP1 JUMP JUMPDEST PUSH1 0x0 DUP2 JUMP JUMPDEST PUSH1 0x19 SLOAD PUSH1 0x1 PUSH1 0x1 PUSH1 0xA0 SHL SUB AND DUP2 JUMP JUMPDEST PUSH1 0x0 DUP2 DUP2 MSTORE PUSH1 0x20 DUP2 SWAP1 MSTORE PUSH1 0x40 DUP2 KECCAK256 PUSH2 0xA15 SWAP1 PUSH2 0xFB2 JUMP JUMPDEST PUSH1 0x0 DUP3 DUP2 MSTORE PUSH1 0x20 DUP2 SWAP1 MSTORE PUSH1 0x40 SWAP1 KECCAK256 PUSH1 0x2 ADD SLOAD PUSH2 0xA9A SWAP1 PUSH2 0x384 PUSH2 0xEBB JUMP JUMPDEST PUSH2 0x6CC JUMPI PUSH1 0x40 MLOAD PUSH3 0x461BCD PUSH1 0xE5 SHL DUP2 MSTORE PUSH1 0x4 ADD PUSH2 0x4FE SWAP1 PUSH2 0x1A66 JUMP JUMPDEST DUP1 PUSH1 0xB DUP4 PUSH1 0x40 MLOAD PUSH2 0xAC7 SWAP2 SWAP1 PUSH2 0x17AC JUMP JUMPDEST SWAP1 DUP2 MSTORE PUSH1 0x40 MLOAD SWAP1 DUP2 SWAP1 SUB PUSH1 0x20 ADD SWAP1 KECCAK256 DUP1 SLOAD PUSH1 0x1 PUSH1 0x1 PUSH1 0xA0 SHL SUB SWAP3 SWAP1 SWAP3 AND PUSH1 0x1 PUSH1 0x1 PUSH1 0xA0 SHL SUB NOT SWAP1 SWAP3 AND SWAP2 SWAP1 SWAP2 OR SWAP1 SSTORE POP POP JUMP JUMPDEST CALLER PUSH1 0x0 SWAP1 DUP2 MSTORE PUSH1 0xC PUSH1 0x20 MSTORE PUSH1 0x40 SWAP1 KECCAK256 SLOAD PUSH1 0xFF AND ISZERO PUSH2 0xB2A JUMPI PUSH1 0x40 MLOAD PUSH3 0x461BCD PUSH1 0xE5 SHL DUP2 MSTORE PUSH1 0x4 ADD PUSH2 0x4FE SWAP1 PUSH2 0x1AE6 JUMP JUMPDEST PUSH2 0xB34 PUSH1 0x8 PUSH2 0xFBD JUMP JUMPDEST PUSH1 0x0 PUSH2 0xB40 PUSH1 0x8 PUSH2 0xFC6 JUMP JUMPDEST PUSH1 0x0 DUP2 DUP2 MSTORE PUSH1 0xD PUSH1 0x20 SWAP1 DUP2 MSTORE PUSH1 0x40 SWAP1 SWAP2 KECCAK256 DUP3 DUP2 SSTORE DUP7 MLOAD SWAP3 SWAP4 POP SWAP2 PUSH2 0xB6C SWAP2 PUSH1 0x1 DUP5 ADD SWAP2 SWAP1 DUP9 ADD SWAP1 PUSH2 0x13B2 JUMP JUMPDEST POP DUP4 MLOAD PUSH2 0xB82 SWAP1 PUSH1 0x2 DUP4 ADD SWAP1 PUSH1 0x20 DUP8 ADD SWAP1 PUSH2 0x13B2 JUMP JUMPDEST POP PUSH1 0x40 DUP1 MLOAD PUSH1 0x20 DUP2 ADD SWAP1 SWAP2 MSTORE DUP4 DUP2 MSTORE PUSH2 0xBA1 SWAP1 PUSH1 0x3 DUP4 ADD SWAP1 PUSH1 0x1 PUSH2 0x1430 JUMP JUMPDEST POP PUSH1 0x0 PUSH1 0x4 DUP3 ADD DUP2 SWAP1 SSTORE PUSH1 0x5 DUP3 ADD DUP2 SWAP1 SSTORE PUSH1 0x6 DUP3 ADD SSTORE PUSH1 0x40 DUP1 MLOAD DUP1 DUP3 ADD SWAP1 SWAP2 MSTORE PUSH1 0x7 DUP1 DUP3 MSTORE PUSH7 0x155B9C985D1959 PUSH1 0xCA SHL PUSH1 0x20 SWAP1 SWAP3 ADD SWAP2 DUP3 MSTORE PUSH2 0xBE6 SWAP2 DUP2 DUP5 ADD SWAP2 PUSH2 0x13B2 JUMP JUMPDEST POP CALLER PUSH1 0x0 DUP2 DUP2 MSTORE PUSH1 0xC PUSH1 0x20 SWAP1 DUP2 MSTORE PUSH1 0x40 DUP1 DUP4 KECCAK256 DUP1 SLOAD PUSH1 0xFF NOT AND PUSH1 0x1 OR SWAP1 SSTORE PUSH1 0xE DUP3 MSTORE DUP1 DUP4 KECCAK256 DUP7 SWAP1 SSTORE DUP6 DUP4 MSTORE PUSH1 0xF SWAP1 SWAP2 MSTORE SWAP1 DUP2 SWAP1 KECCAK256 DUP1 SLOAD PUSH1 0x1 PUSH1 0x1 PUSH1 0xA0 SHL SUB NOT AND DUP4 OR SWAP1 SSTORE MLOAD PUSH32 0x29A886814235A877CF2FF5DF3C674A946B17782BF260CA120B7B951A6D35CC6 SWAP2 PUSH2 0xC5A SWAP2 DUP9 SWAP1 DUP9 SWAP1 PUSH2 0x17F7 JUMP JUMPDEST PUSH1 0x40 MLOAD DUP1 SWAP2 SUB SWAP1 LOG1 POP POP POP POP POP JUMP JUMPDEST CALLER PUSH1 0x0 SWAP1 DUP2 MSTORE PUSH1 0xC PUSH1 0x20 MSTORE PUSH1 0x40 DUP2 KECCAK256 SLOAD PUSH1 0xFF AND PUSH2 0xC98 JUMPI PUSH1 0x40 MLOAD PUSH3 0x461BCD PUSH1 0xE5 SHL DUP2 MSTORE PUSH1 0x4 ADD PUSH2 0x4FE SWAP1 PUSH2 0x19E9 JUMP JUMPDEST POP CALLER PUSH1 0x0 SWAP1 DUP2 MSTORE PUSH1 0xE PUSH1 0x20 MSTORE PUSH1 0x40 SWAP1 KECCAK256 SLOAD SWAP1 JUMP JUMPDEST PUSH2 0xCC4 PUSH1 0x0 DUP1 MLOAD PUSH1 0x20 PUSH2 0x1CB4 DUP4 CODECOPY DUP2 MLOAD SWAP2 MSTORE CALLER PUSH2 0xA1B JUMP JUMPDEST PUSH2 0xCE0 JUMPI PUSH1 0x40 MLOAD PUSH3 0x461BCD PUSH1 0xE5 SHL DUP2 MSTORE PUSH1 0x4 ADD PUSH2 0x4FE SWAP1 PUSH2 0x1B1D JUMP JUMPDEST PUSH1 0x16 DUP1 SLOAD PUSH1 0x1 PUSH1 0x1 PUSH1 0xA0 SHL SUB NOT SWAP1 DUP2 AND PUSH1 0x1 PUSH1 0x1 PUSH1 0xA0 SHL SUB SWAP4 DUP5 AND OR SWAP2 DUP3 SWAP1 SSTORE PUSH1 0x17 DUP1 SLOAD SWAP3 SWAP1 SWAP4 AND SWAP2 AND OR SWAP1 SSTORE JUMP JUMPDEST PUSH1 0x0 PUSH2 0xA12 DUP4 PUSH1 0x1 PUSH1 0x1 PUSH1 0xA0 SHL SUB DUP5 AND PUSH2 0xFCA JUMP JUMPDEST PUSH1 0x0 PUSH1 0xB DUP3 PUSH1 0x40 MLOAD PUSH2 0xD36 SWAP2 SWAP1 PUSH2 0x17AC JUMP JUMPDEST SWAP1 DUP2 MSTORE PUSH1 0x40 MLOAD SWAP1 DUP2 SWAP1 SUB PUSH1 0x20 ADD SWAP1 KECCAK256 SLOAD PUSH1 0x14 SLOAD PUSH1 0x1 PUSH1 0x1 PUSH1 0xA0 SHL SUB SWAP2 DUP3 AND SWAP3 POP PUSH2 0xD65 SWAP2 DUP4 SWAP2 DUP9 SWAP2 AND DUP8 PUSH2 0x1014 JUMP JUMPDEST PUSH1 0x17 SLOAD PUSH1 0x40 MLOAD PUSH4 0xEE12FF9 PUSH1 0xE3 SHL DUP2 MSTORE PUSH1 0x0 SWAP2 PUSH1 0x1 PUSH1 0x1 PUSH1 0xA0 SHL SUB AND SWAP1 PUSH4 0x77097FC8 SWAP1 PUSH2 0xD98 SWAP1 DUP9 SWAP1 DUP8 SWAP1 PUSH1 0x4 ADD PUSH2 0x1C59 JUMP JUMPDEST PUSH1 0x20 PUSH1 0x40 MLOAD DUP1 DUP4 SUB DUP2 PUSH1 0x0 DUP8 DUP1 EXTCODESIZE ISZERO DUP1 ISZERO PUSH2 0xDB2 JUMPI PUSH1 0x0 DUP1 REVERT JUMPDEST POP GAS CALL ISZERO DUP1 ISZERO PUSH2 0xDC6 JUMPI RETURNDATASIZE PUSH1 0x0 DUP1 RETURNDATACOPY RETURNDATASIZE PUSH1 0x0 REVERT JUMPDEST POP POP POP POP PUSH1 0x40 MLOAD RETURNDATASIZE PUSH1 0x1F NOT PUSH1 0x1F DUP3 ADD AND DUP3 ADD DUP1 PUSH1 0x40 MSTORE POP DUP2 ADD SWAP1 PUSH2 0xDEA SWAP2 SWAP1 PUSH2 0x172E JUMP JUMPDEST SWAP1 POP DUP4 PUSH2 0xDFF JUMPI PUSH2 0xDFA DUP2 PUSH2 0x1072 JUMP JUMPDEST PUSH2 0xEB2 JUMP JUMPDEST DUP4 PUSH1 0x1 EQ ISZERO PUSH2 0xE11 JUMPI PUSH2 0xDFA DUP2 PUSH2 0x1072 JUMP JUMPDEST DUP4 PUSH1 0x2 EQ ISZERO PUSH2 0xEB2 JUMPI PUSH1 0x19 SLOAD PUSH1 0x12 SLOAD PUSH1 0x40 MLOAD PUSH7 0x15EE2A32055BA SWAP3 PUSH1 0x1 PUSH1 0x1 PUSH1 0xA0 SHL SUB SWAP1 DUP2 AND SWAP3 PUSH4 0xAE015ADC SWAP3 SWAP2 AND SWAP1 DUP5 SWAP1 PUSH2 0xE51 SWAP1 DUP14 SWAP1 PUSH1 0x20 ADD PUSH2 0x17A3 JUMP JUMPDEST PUSH1 0x40 MLOAD PUSH1 0x20 DUP2 DUP4 SUB SUB DUP2 MSTORE SWAP1 PUSH1 0x40 MSTORE PUSH1 0x40 MLOAD DUP5 PUSH4 0xFFFFFFFF AND PUSH1 0xE0 SHL DUP2 MSTORE PUSH1 0x4 ADD PUSH2 0xE7E SWAP4 SWAP3 SWAP2 SWAP1 PUSH2 0x1837 JUMP JUMPDEST PUSH1 0x0 PUSH1 0x40 MLOAD DUP1 DUP4 SUB DUP2 PUSH1 0x0 DUP8 DUP1 EXTCODESIZE ISZERO DUP1 ISZERO PUSH2 0xE98 JUMPI PUSH1 0x0 DUP1 REVERT JUMPDEST POP GAS CALL ISZERO DUP1 ISZERO PUSH2 0xEAC JUMPI RETURNDATASIZE PUSH1 0x0 DUP1 RETURNDATACOPY RETURNDATASIZE PUSH1 0x0 REVERT JUMPDEST POP POP POP POP POP JUMPDEST POP POP POP POP POP POP POP JUMP JUMPDEST CALLER SWAP1 JUMP JUMPDEST PUSH1 0x0 DUP3 DUP2 MSTORE PUSH1 0x20 DUP2 SWAP1 MSTORE PUSH1 0x40 SWAP1 KECCAK256 PUSH2 0xED7 SWAP1 DUP3 PUSH2 0xD0F JUMP JUMPDEST ISZERO PUSH2 0x690 JUMPI PUSH2 0xEE4 PUSH2 0xEBB JUMP JUMPDEST PUSH1 0x1 PUSH1 0x1 PUSH1 0xA0 SHL SUB AND DUP2 PUSH1 0x1 PUSH1 0x1 PUSH1 0xA0 SHL SUB AND DUP4 PUSH32 0x2F8788117E7EFF1D82E926EC794901D17C78024A50270940304540A733656F0D PUSH1 0x40 MLOAD PUSH1 0x40 MLOAD DUP1 SWAP2 SUB SWAP1 LOG4 POP POP JUMP JUMPDEST PUSH1 0x0 DUP3 DUP2 MSTORE PUSH1 0x20 DUP2 SWAP1 MSTORE PUSH1 0x40 SWAP1 KECCAK256 PUSH2 0xF40 SWAP1 DUP3 PUSH2 0x1094 JUMP JUMPDEST ISZERO PUSH2 0x690 JUMPI PUSH2 0xF4D PUSH2 0xEBB JUMP JUMPDEST PUSH1 0x1 PUSH1 0x1 PUSH1 0xA0 SHL SUB AND DUP2 PUSH1 0x1 PUSH1 0x1 PUSH1 0xA0 SHL SUB AND DUP4 PUSH32 0xF6391F5C32D9C69D2A47EA670B442974B53935D1EDC7FD64EB21E047A839171B PUSH1 0x40 MLOAD PUSH1 0x40 MLOAD DUP1 SWAP2 SUB SWAP1 LOG4 POP POP JUMP JUMPDEST PUSH1 0x0 PUSH2 0xA12 DUP4 DUP4 PUSH2 0x10A9 JUMP JUMPDEST PUSH1 0x0 PUSH2 0xA12 DUP4 PUSH1 0x1 PUSH1 0x1 PUSH1 0xA0 SHL SUB DUP5 AND PUSH2 0x10EE JUMP JUMPDEST PUSH1 0x0 PUSH2 0xA15 DUP3 PUSH2 0xFC6 JUMP JUMPDEST DUP1 SLOAD PUSH1 0x1 ADD SWAP1 SSTORE JUMP JUMPDEST SLOAD SWAP1 JUMP JUMPDEST PUSH1 0x0 PUSH2 0xFD6 DUP4 DUP4 PUSH2 0x10EE JUMP JUMPDEST PUSH2 0x100C JUMPI POP DUP2 SLOAD PUSH1 0x1 DUP2 DUP2 ADD DUP5 SSTORE PUSH1 0x0 DUP5 DUP2 MSTORE PUSH1 0x20 DUP1 DUP3 KECCAK256 SWAP1 SWAP4 ADD DUP5 SWAP1 SSTORE DUP5 SLOAD DUP5 DUP3 MSTORE DUP3 DUP7 ADD SWAP1 SWAP4 MSTORE PUSH1 0x40 SWAP1 KECCAK256 SWAP2 SWAP1 SWAP2 SSTORE PUSH2 0xA15 JUMP JUMPDEST POP PUSH1 0x0 PUSH2 0xA15 JUMP JUMPDEST PUSH2 0x106C DUP5 PUSH4 0x23B872DD PUSH1 0xE0 SHL DUP6 DUP6 DUP6 PUSH1 0x40 MLOAD PUSH1 0x24 ADD PUSH2 0x1035 SWAP4 SWAP3 SWAP2 SWAP1 PUSH2 0x1867 JUMP JUMPDEST PUSH1 0x40 DUP1 MLOAD PUSH1 0x1F NOT DUP2 DUP5 SUB ADD DUP2 MSTORE SWAP2 SWAP1 MSTORE PUSH1 0x20 DUP2 ADD DUP1 MLOAD PUSH1 0x1 PUSH1 0x1 PUSH1 0xE0 SHL SUB AND PUSH1 0x1 PUSH1 0x1 PUSH1 0xE0 SHL SUB NOT SWAP1 SWAP4 AND SWAP3 SWAP1 SWAP3 OR SWAP1 SWAP2 MSTORE PUSH2 0x1106 JUMP JUMPDEST POP POP POP POP JUMP JUMPDEST PUSH1 0x12 SLOAD PUSH1 0x17 SLOAD PUSH2 0x1091 SWAP2 PUSH1 0x1 PUSH1 0x1 PUSH1 0xA0 SHL SUB SWAP2 DUP3 AND SWAP2 ADDRESS SWAP2 AND DUP5 PUSH2 0x1014 JUMP JUMPDEST POP JUMP JUMPDEST PUSH1 0x0 PUSH2 0xA12 DUP4 PUSH1 0x1 PUSH1 0x1 PUSH1 0xA0 SHL SUB DUP5 AND PUSH2 0x119A JUMP JUMPDEST DUP2 SLOAD PUSH1 0x0 SWAP1 DUP3 LT PUSH2 0x10CC JUMPI PUSH1 0x40 MLOAD PUSH3 0x461BCD PUSH1 0xE5 SHL DUP2 MSTORE PUSH1 0x4 ADD PUSH2 0x4FE SWAP1 PUSH2 0x1921 JUMP JUMPDEST DUP3 PUSH1 0x0 ADD DUP3 DUP2 SLOAD DUP2 LT PUSH2 0x10DB JUMPI INVALID JUMPDEST SWAP1 PUSH1 0x0 MSTORE PUSH1 0x20 PUSH1 0x0 KECCAK256 ADD SLOAD SWAP1 POP SWAP3 SWAP2 POP POP JUMP JUMPDEST PUSH1 0x0 SWAP1 DUP2 MSTORE PUSH1 0x1 SWAP2 SWAP1 SWAP2 ADD PUSH1 0x20 MSTORE PUSH1 0x40 SWAP1 KECCAK256 SLOAD ISZERO ISZERO SWAP1 JUMP JUMPDEST PUSH1 0x60 PUSH2 0x115B DUP3 PUSH1 0x40 MLOAD DUP1 PUSH1 0x40 ADD PUSH1 0x40 MSTORE DUP1 PUSH1 0x20 DUP2 MSTORE PUSH1 0x20 ADD PUSH32 0x5361666545524332303A206C6F772D6C6576656C2063616C6C206661696C6564 DUP2 MSTORE POP DUP6 PUSH1 0x1 PUSH1 0x1 PUSH1 0xA0 SHL SUB AND PUSH2 0x1260 SWAP1 SWAP3 SWAP2 SWAP1 PUSH4 0xFFFFFFFF AND JUMP JUMPDEST DUP1 MLOAD SWAP1 SWAP2 POP ISZERO PUSH2 0x1195 JUMPI DUP1 DUP1 PUSH1 0x20 ADD SWAP1 MLOAD DUP2 ADD SWAP1 PUSH2 0x1179 SWAP2 SWAP1 PUSH2 0x1599 JUMP JUMPDEST PUSH2 0x1195 JUMPI PUSH1 0x40 MLOAD PUSH3 0x461BCD PUSH1 0xE5 SHL DUP2 MSTORE PUSH1 0x4 ADD PUSH2 0x4FE SWAP1 PUSH2 0x1B84 JUMP JUMPDEST POP POP POP JUMP JUMPDEST PUSH1 0x0 DUP2 DUP2 MSTORE PUSH1 0x1 DUP4 ADD PUSH1 0x20 MSTORE PUSH1 0x40 DUP2 KECCAK256 SLOAD DUP1 ISZERO PUSH2 0x1256 JUMPI DUP4 SLOAD PUSH1 0x0 NOT DUP1 DUP4 ADD SWAP2 SWAP1 DUP2 ADD SWAP1 PUSH1 0x0 SWAP1 DUP8 SWAP1 DUP4 SWAP1 DUP2 LT PUSH2 0x11CD JUMPI INVALID JUMPDEST SWAP1 PUSH1 0x0 MSTORE PUSH1 0x20 PUSH1 0x0 KECCAK256 ADD SLOAD SWAP1 POP DUP1 DUP8 PUSH1 0x0 ADD DUP5 DUP2 SLOAD DUP2 LT PUSH2 0x11EA JUMPI INVALID JUMPDEST PUSH1 0x0 SWAP2 DUP3 MSTORE PUSH1 0x20 DUP1 DUP4 KECCAK256 SWAP1 SWAP2 ADD SWAP3 SWAP1 SWAP3 SSTORE DUP3 DUP2 MSTORE PUSH1 0x1 DUP10 DUP2 ADD SWAP1 SWAP3 MSTORE PUSH1 0x40 SWAP1 KECCAK256 SWAP1 DUP5 ADD SWAP1 SSTORE DUP7 SLOAD DUP8 SWAP1 DUP1 PUSH2 0x121A JUMPI INVALID JUMPDEST PUSH1 0x1 SWAP1 SUB DUP2 DUP2 SWAP1 PUSH1 0x0 MSTORE PUSH1 0x20 PUSH1 0x0 KECCAK256 ADD PUSH1 0x0 SWAP1 SSTORE SWAP1 SSTORE DUP7 PUSH1 0x1 ADD PUSH1 0x0 DUP8 DUP2 MSTORE PUSH1 0x20 ADD SWAP1 DUP2 MSTORE PUSH1 0x20 ADD PUSH1 0x0 KECCAK256 PUSH1 0x0 SWAP1 SSTORE PUSH1 0x1 SWAP5 POP POP POP POP POP PUSH2 0xA15 JUMP JUMPDEST PUSH1 0x0 SWAP2 POP POP PUSH2 0xA15 JUMP JUMPDEST PUSH1 0x60 PUSH2 0x126F DUP5 DUP5 PUSH1 0x0 DUP6 PUSH2 0x1279 JUMP JUMPDEST SWAP1 POP JUMPDEST SWAP4 SWAP3 POP POP POP JUMP JUMPDEST PUSH1 0x60 DUP3 SELFBALANCE LT ISZERO PUSH2 0x129B JUMPI PUSH1 0x40 MLOAD PUSH3 0x461BCD PUSH1 0xE5 SHL DUP2 MSTORE PUSH1 0x4 ADD PUSH2 0x4FE SWAP1 PUSH2 0x1A20 JUMP JUMPDEST PUSH2 0x12A4 DUP6 PUSH2 0x133A JUMP JUMPDEST PUSH2 0x12C0 JUMPI PUSH1 0x40 MLOAD PUSH3 0x461BCD PUSH1 0xE5 SHL DUP2 MSTORE PUSH1 0x4 ADD PUSH2 0x4FE SWAP1 PUSH2 0x1B4D JUMP JUMPDEST PUSH1 0x0 PUSH1 0x60 DUP7 PUSH1 0x1 PUSH1 0x1 PUSH1 0xA0 SHL SUB AND DUP6 DUP8 PUSH1 0x40 MLOAD PUSH2 0x12DD SWAP2 SWAP1 PUSH2 0x17AC JUMP JUMPDEST PUSH1 0x0 PUSH1 0x40 MLOAD DUP1 DUP4 SUB DUP2 DUP6 DUP8 GAS CALL SWAP3 POP POP POP RETURNDATASIZE DUP1 PUSH1 0x0 DUP2 EQ PUSH2 0x131A JUMPI PUSH1 0x40 MLOAD SWAP2 POP PUSH1 0x1F NOT PUSH1 0x3F RETURNDATASIZE ADD AND DUP3 ADD PUSH1 0x40 MSTORE RETURNDATASIZE DUP3 MSTORE RETURNDATASIZE PUSH1 0x0 PUSH1 0x20 DUP5 ADD RETURNDATACOPY PUSH2 0x131F JUMP JUMPDEST PUSH1 0x60 SWAP2 POP JUMPDEST POP SWAP2 POP SWAP2 POP PUSH2 0x132F DUP3 DUP3 DUP7 PUSH2 0x1340 JUMP JUMPDEST SWAP8 SWAP7 POP POP POP POP POP POP POP JUMP JUMPDEST EXTCODESIZE ISZERO ISZERO SWAP1 JUMP JUMPDEST PUSH1 0x60 DUP4 ISZERO PUSH2 0x134F JUMPI POP DUP2 PUSH2 0x1272 JUMP JUMPDEST DUP3 MLOAD ISZERO PUSH2 0x135F JUMPI DUP3 MLOAD DUP1 DUP5 PUSH1 0x20 ADD REVERT JUMPDEST DUP2 PUSH1 0x40 MLOAD PUSH3 0x461BCD PUSH1 0xE5 SHL DUP2 MSTORE PUSH1 0x4 ADD PUSH2 0x4FE SWAP2 SWAP1 PUSH2 0x190E JUMP JUMPDEST PUSH1 0x40 MLOAD DUP1 PUSH1 0xC0 ADD PUSH1 0x40 MSTORE DUP1 PUSH1 0x0 DUP1 NOT AND DUP2 MSTORE PUSH1 0x20 ADD PUSH1 0x0 DUP2 MSTORE PUSH1 0x20 ADD PUSH1 0x0 DUP2 MSTORE PUSH1 0x20 ADD PUSH1 0x0 DUP2 MSTORE PUSH1 0x20 ADD PUSH1 0x0 DUP2 MSTORE PUSH1 0x20 ADD PUSH1 0x0 DUP2 MSTORE POP SWAP1 JUMP JUMPDEST DUP3 DUP1 SLOAD PUSH1 0x1 DUP2 PUSH1 0x1 AND ISZERO PUSH2 0x100 MUL SUB AND PUSH1 0x2 SWAP1 DIV SWAP1 PUSH1 0x0 MSTORE PUSH1 0x20 PUSH1 0x0 KECCAK256 SWAP1 PUSH1 0x1F ADD PUSH1 0x20 SWAP1 DIV DUP2 ADD SWAP3 DUP3 PUSH1 0x1F LT PUSH2 0x13F3 JUMPI DUP1 MLOAD PUSH1 0xFF NOT AND DUP4 DUP1 ADD OR DUP6 SSTORE PUSH2 0x1420 JUMP JUMPDEST DUP3 DUP1 ADD PUSH1 0x1 ADD DUP6 SSTORE DUP3 ISZERO PUSH2 0x1420 JUMPI SWAP2 DUP3 ADD JUMPDEST DUP3 DUP2 GT ISZERO PUSH2 0x1420 JUMPI DUP3 MLOAD DUP3 SSTORE SWAP2 PUSH1 0x20 ADD SWAP2 SWAP1 PUSH1 0x1 ADD SWAP1 PUSH2 0x1405 JUMP JUMPDEST POP PUSH2 0x142C SWAP3 SWAP2 POP PUSH2 0x1489 JUMP JUMPDEST POP SWAP1 JUMP JUMPDEST DUP3 DUP1 SLOAD DUP3 DUP3 SSTORE SWAP1 PUSH1 0x0 MSTORE PUSH1 0x20 PUSH1 0x0 KECCAK256 SWAP1 DUP2 ADD SWAP3 DUP3 ISZERO PUSH2 0x147D JUMPI SWAP2 PUSH1 0x20 MUL DUP3 ADD JUMPDEST DUP3 DUP2 GT ISZERO PUSH2 0x147D JUMPI DUP3 MLOAD DUP1 MLOAD PUSH2 0x146D SWAP2 DUP5 SWAP2 PUSH1 0x20 SWAP1 SWAP2 ADD SWAP1 PUSH2 0x13B2 JUMP JUMPDEST POP SWAP2 PUSH1 0x20 ADD SWAP2 SWAP1 PUSH1 0x1 ADD SWAP1 PUSH2 0x1450 JUMP JUMPDEST POP PUSH2 0x142C SWAP3 SWAP2 POP PUSH2 0x149E JUMP JUMPDEST JUMPDEST DUP1 DUP3 GT ISZERO PUSH2 0x142C JUMPI PUSH1 0x0 DUP2 SSTORE PUSH1 0x1 ADD PUSH2 0x148A JUMP JUMPDEST DUP1 DUP3 GT ISZERO PUSH2 0x142C JUMPI PUSH1 0x0 PUSH2 0x14B2 DUP3 DUP3 PUSH2 0x14BB JUMP JUMPDEST POP PUSH1 0x1 ADD PUSH2 0x149E JUMP JUMPDEST POP DUP1 SLOAD PUSH1 0x1 DUP2 PUSH1 0x1 AND ISZERO PUSH2 0x100 MUL SUB AND PUSH1 0x2 SWAP1 DIV PUSH1 0x0 DUP3 SSTORE DUP1 PUSH1 0x1F LT PUSH2 0x14E1 JUMPI POP PUSH2 0x1091 JUMP JUMPDEST PUSH1 0x1F ADD PUSH1 0x20 SWAP1 DIV SWAP1 PUSH1 0x0 MSTORE PUSH1 0x20 PUSH1 0x0 KECCAK256 SWAP1 DUP2 ADD SWAP1 PUSH2 0x1091 SWAP2 SWAP1 PUSH2 0x1489 JUMP JUMPDEST PUSH1 0x0 DUP3 PUSH1 0x1F DUP4 ADD SLT PUSH2 0x150F JUMPI DUP1 DUP2 REVERT JUMPDEST DUP2 CALLDATALOAD PUSH8 0xFFFFFFFFFFFFFFFF DUP1 DUP3 GT ISZERO PUSH2 0x1526 JUMPI DUP3 DUP4 REVERT JUMPDEST PUSH1 0x40 MLOAD PUSH1 0x1F DUP4 ADD PUSH1 0x1F NOT AND DUP2 ADD PUSH1 0x20 ADD DUP3 DUP2 GT DUP3 DUP3 LT OR ISZERO PUSH2 0x1546 JUMPI DUP5 DUP6 REVERT JUMPDEST PUSH1 0x40 MSTORE DUP3 DUP2 MSTORE SWAP3 POP DUP3 DUP5 DUP4 ADD PUSH1 0x20 ADD DUP7 LT ISZERO PUSH2 0x1561 JUMPI PUSH1 0x0 DUP1 REVERT JUMPDEST DUP3 PUSH1 0x20 DUP7 ADD PUSH1 0x20 DUP4 ADD CALLDATACOPY PUSH1 0x0 PUSH1 0x20 DUP5 DUP4 ADD ADD MSTORE POP POP POP SWAP3 SWAP2 POP POP JUMP JUMPDEST PUSH1 0x0 PUSH1 0x20 DUP3 DUP5 SUB SLT ISZERO PUSH2 0x158E JUMPI DUP1 DUP2 REVERT JUMPDEST DUP2 CALLDATALOAD PUSH2 0x1272 DUP2 PUSH2 0x1C9E JUMP JUMPDEST PUSH1 0x0 PUSH1 0x20 DUP3 DUP5 SUB SLT ISZERO PUSH2 0x15AA JUMPI DUP1 DUP2 REVERT JUMPDEST DUP2 MLOAD DUP1 ISZERO ISZERO DUP2 EQ PUSH2 0x1272 JUMPI DUP2 DUP3 REVERT JUMPDEST PUSH1 0x0 PUSH1 0x20 DUP3 DUP5 SUB SLT ISZERO PUSH2 0x15CA JUMPI DUP1 DUP2 REVERT JUMPDEST POP CALLDATALOAD SWAP2 SWAP1 POP JUMP JUMPDEST PUSH1 0x0 DUP1 PUSH1 0x40 DUP4 DUP6 SUB SLT ISZERO PUSH2 0x15E3 JUMPI DUP1 DUP2 REVERT JUMPDEST DUP3 CALLDATALOAD SWAP2 POP PUSH1 0x20 DUP4 ADD CALLDATALOAD PUSH2 0x15F5 DUP2 PUSH2 0x1C9E JUMP JUMPDEST DUP1 SWAP2 POP POP SWAP3 POP SWAP3 SWAP1 POP JUMP JUMPDEST PUSH1 0x0 DUP1 PUSH1 0x40 DUP4 DUP6 SUB SLT ISZERO PUSH2 0x1612 JUMPI DUP2 DUP3 REVERT JUMPDEST POP POP DUP1 CALLDATALOAD SWAP3 PUSH1 0x20 SWAP1 SWAP2 ADD CALLDATALOAD SWAP2 POP JUMP JUMPDEST PUSH1 0x0 DUP1 PUSH1 0x0 PUSH1 0x60 DUP5 DUP7 SUB SLT ISZERO PUSH2 0x1635 JUMPI DUP1 DUP2 REVERT JUMPDEST DUP4 CALLDATALOAD SWAP3 POP PUSH1 0x20 DUP5 ADD CALLDATALOAD SWAP2 POP PUSH1 0x40 DUP5 ADD CALLDATALOAD PUSH8 0xFFFFFFFFFFFFFFFF DUP2 GT ISZERO PUSH2 0x1659 JUMPI DUP2 DUP3 REVERT JUMPDEST PUSH2 0x1665 DUP7 DUP3 DUP8 ADD PUSH2 0x14FF JUMP JUMPDEST SWAP2 POP POP SWAP3 POP SWAP3 POP SWAP3 JUMP JUMPDEST PUSH1 0x0 DUP1 PUSH1 0x40 DUP4 DUP6 SUB SLT ISZERO PUSH2 0x1681 JUMPI DUP2 DUP3 REVERT JUMPDEST DUP3 CALLDATALOAD PUSH8 0xFFFFFFFFFFFFFFFF DUP2 GT ISZERO PUSH2 0x1697 JUMPI DUP3 DUP4 REVERT JUMPDEST PUSH2 0x16A3 DUP6 DUP3 DUP7 ADD PUSH2 0x14FF JUMP JUMPDEST SWAP3 POP POP PUSH1 0x20 DUP4 ADD CALLDATALOAD PUSH2 0x15F5 DUP2 PUSH2 0x1C9E JUMP JUMPDEST PUSH1 0x0 DUP1 PUSH1 0x0 PUSH1 0x60 DUP5 DUP7 SUB SLT ISZERO PUSH2 0x16C8 JUMPI DUP3 DUP4 REVERT JUMPDEST DUP4 CALLDATALOAD PUSH8 0xFFFFFFFFFFFFFFFF DUP1 DUP3 GT ISZERO PUSH2 0x16DF JUMPI DUP5 DUP6 REVERT JUMPDEST PUSH2 0x16EB DUP8 DUP4 DUP9 ADD PUSH2 0x14FF JUMP JUMPDEST SWAP5 POP PUSH1 0x20 DUP7 ADD CALLDATALOAD SWAP2 POP DUP1 DUP3 GT ISZERO PUSH2 0x1700 JUMPI DUP4 DUP5 REVERT JUMPDEST PUSH2 0x170C DUP8 DUP4 DUP9 ADD PUSH2 0x14FF JUMP JUMPDEST SWAP4 POP PUSH1 0x40 DUP7 ADD CALLDATALOAD SWAP2 POP DUP1 DUP3 GT ISZERO PUSH2 0x1721 JUMPI DUP3 DUP4 REVERT JUMPDEST POP PUSH2 0x1665 DUP7 DUP3 DUP8 ADD PUSH2 0x14FF JUMP JUMPDEST PUSH1 0x0 PUSH1 0x20 DUP3 DUP5 SUB SLT ISZERO PUSH2 0x173F JUMPI DUP1 DUP2 REVERT JUMPDEST POP MLOAD SWAP2 SWAP1 POP JUMP JUMPDEST PUSH1 0x0 DUP1 PUSH1 0x0 DUP1 PUSH1 0x80 DUP6 DUP8 SUB SLT ISZERO PUSH2 0x175B JUMPI DUP1 DUP2 REVERT JUMPDEST POP POP DUP3 CALLDATALOAD SWAP5 PUSH1 0x20 DUP5 ADD CALLDATALOAD SWAP5 POP PUSH1 0x40 DUP5 ADD CALLDATALOAD SWAP4 PUSH1 0x60 ADD CALLDATALOAD SWAP3 POP SWAP1 POP JUMP JUMPDEST PUSH1 0x0 DUP2 MLOAD DUP1 DUP5 MSTORE PUSH2 0x178F DUP2 PUSH1 0x20 DUP7 ADD PUSH1 0x20 DUP7 ADD PUSH2 0x1C72 JUMP JUMPDEST PUSH1 0x1F ADD PUSH1 0x1F NOT AND SWAP3 SWAP1 SWAP3 ADD PUSH1 0x20 ADD SWAP3 SWAP2 POP POP JUMP JUMPDEST SWAP1 DUP2 MSTORE PUSH1 0x20 ADD SWAP1 JUMP JUMPDEST PUSH1 0x0 DUP3 MLOAD PUSH2 0x17BE DUP2 DUP5 PUSH1 0x20 DUP8 ADD PUSH2 0x1C72 JUMP JUMPDEST SWAP2 SWAP1 SWAP2 ADD SWAP3 SWAP2 POP POP JUMP JUMPDEST SWAP4 DUP5 MSTORE PUSH1 0x20 DUP5 ADD SWAP3 SWAP1 SWAP3 MSTORE PUSH1 0x40 DUP4 ADD MSTORE PUSH1 0x60 DUP3 ADD MSTORE PUSH1 0x80 ADD SWAP1 JUMP JUMPDEST PUSH1 0x1 PUSH1 0x1 PUSH1 0xA0 SHL SUB SWAP2 SWAP1 SWAP2 AND DUP2 MSTORE PUSH1 0x20 ADD SWAP1 JUMP JUMPDEST PUSH1 0x1 PUSH1 0x1 PUSH1 0xA0 SHL SUB DUP5 AND DUP2 MSTORE PUSH1 0x60 PUSH1 0x20 DUP3 ADD DUP2 SWAP1 MSTORE PUSH1 0x0 SWAP1 PUSH2 0x181B SWAP1 DUP4 ADD DUP6 PUSH2 0x1777 JUMP JUMPDEST DUP3 DUP2 SUB PUSH1 0x40 DUP5 ADD MSTORE PUSH2 0x182D DUP2 DUP6 PUSH2 0x1777 JUMP JUMPDEST SWAP7 SWAP6 POP POP POP POP POP POP JUMP JUMPDEST PUSH1 0x0 PUSH1 0x1 DUP1 PUSH1 0xA0 SHL SUB DUP6 AND DUP3 MSTORE DUP4 PUSH1 0x20 DUP4 ADD MSTORE PUSH1 0x60 PUSH1 0x40 DUP4 ADD MSTORE PUSH2 0x185E PUSH1 0x60 DUP4 ADD DUP5 PUSH2 0x1777 JUMP JUMPDEST SWAP6 SWAP5 POP POP POP POP POP JUMP JUMPDEST PUSH1 0x1 PUSH1 0x1 PUSH1 0xA0 SHL SUB SWAP4 DUP5 AND DUP2 MSTORE SWAP2 SWAP1 SWAP3 AND PUSH1 0x20 DUP3 ADD MSTORE PUSH1 0x40 DUP2 ADD SWAP2 SWAP1 SWAP2 MSTORE PUSH1 0x60 ADD SWAP1 JUMP JUMPDEST PUSH1 0x20 DUP1 DUP3 MSTORE DUP3 MLOAD DUP3 DUP3 ADD DUP2 SWAP1 MSTORE PUSH1 0x0 SWAP2 SWAP1 PUSH1 0x40 SWAP1 DUP2 DUP6 ADD SWAP1 DUP7 DUP5 ADD DUP6 JUMPDEST DUP3 DUP2 LT ISZERO PUSH2 0x18F6 JUMPI DUP2 MLOAD DUP1 MLOAD DUP6 MSTORE DUP7 DUP2 ADD MLOAD DUP8 DUP7 ADD MSTORE DUP6 DUP2 ADD MLOAD DUP7 DUP7 ADD MSTORE PUSH1 0x60 DUP1 DUP3 ADD MLOAD SWAP1 DUP7 ADD MSTORE PUSH1 0x80 DUP1 DUP3 ADD MLOAD SWAP1 DUP7 ADD MSTORE PUSH1 0xA0 SWAP1 DUP2 ADD MLOAD SWAP1 DUP6 ADD MSTORE PUSH1 0xC0 SWAP1 SWAP4 ADD SWAP3 SWAP1 DUP6 ADD SWAP1 PUSH1 0x1 ADD PUSH2 0x18A8 JUMP JUMPDEST POP SWAP2 SWAP8 SWAP7 POP POP POP POP POP POP POP JUMP JUMPDEST SWAP1 ISZERO ISZERO DUP2 MSTORE PUSH1 0x20 ADD SWAP1 JUMP JUMPDEST PUSH1 0x0 PUSH1 0x20 DUP3 MSTORE PUSH2 0xA12 PUSH1 0x20 DUP4 ADD DUP5 PUSH2 0x1777 JUMP JUMPDEST PUSH1 0x20 DUP1 DUP3 MSTORE PUSH1 0x22 SWAP1 DUP3 ADD MSTORE PUSH32 0x456E756D657261626C655365743A20696E646578206F7574206F6620626F756E PUSH1 0x40 DUP3 ADD MSTORE PUSH2 0x6473 PUSH1 0xF0 SHL PUSH1 0x60 DUP3 ADD MSTORE PUSH1 0x80 ADD SWAP1 JUMP JUMPDEST PUSH1 0x20 DUP1 DUP3 MSTORE PUSH1 0x2F SWAP1 DUP3 ADD MSTORE PUSH32 0x416363657373436F6E74726F6C3A2073656E646572206D75737420626520616E PUSH1 0x40 DUP3 ADD MSTORE PUSH15 0x818591B5A5B881D1BC819DC985B9D PUSH1 0x8A SHL PUSH1 0x60 DUP3 ADD MSTORE PUSH1 0x80 ADD SWAP1 JUMP JUMPDEST PUSH1 0x20 DUP1 DUP3 MSTORE PUSH1 0x1B SWAP1 DUP3 ADD MSTORE PUSH32 0x5061796D656E742074797065206E6F74207265636F676E697A65640000000000 PUSH1 0x40 DUP3 ADD MSTORE PUSH1 0x60 ADD SWAP1 JUMP JUMPDEST PUSH1 0x20 DUP1 DUP3 MSTORE PUSH1 0x1F SWAP1 DUP3 ADD MSTORE PUSH32 0x596F75206E65656420746F206265207265676973746572656420666972737400 PUSH1 0x40 DUP3 ADD MSTORE PUSH1 0x60 ADD SWAP1 JUMP JUMPDEST PUSH1 0x20 DUP1 DUP3 MSTORE PUSH1 0x26 SWAP1 DUP3 ADD MSTORE PUSH32 0x416464726573733A20696E73756666696369656E742062616C616E636520666F PUSH1 0x40 DUP3 ADD MSTORE PUSH6 0x1C8818D85B1B PUSH1 0xD2 SHL PUSH1 0x60 DUP3 ADD MSTORE PUSH1 0x80 ADD SWAP1 JUMP JUMPDEST PUSH1 0x20 DUP1 DUP3 MSTORE PUSH1 0x30 SWAP1 DUP3 ADD MSTORE PUSH32 0x416363657373436F6E74726F6C3A2073656E646572206D75737420626520616E PUSH1 0x40 DUP3 ADD MSTORE PUSH16 0x2061646D696E20746F207265766F6B65 PUSH1 0x80 SHL PUSH1 0x60 DUP3 ADD MSTORE PUSH1 0x80 ADD SWAP1 JUMP JUMPDEST PUSH1 0x20 DUP1 DUP3 MSTORE PUSH1 0x16 SWAP1 DUP3 ADD MSTORE PUSH22 0x24B73B30B634B21031BAB93932B731BC9031B7B23297 PUSH1 0x51 SHL PUSH1 0x40 DUP3 ADD MSTORE PUSH1 0x60 ADD SWAP1 JUMP JUMPDEST PUSH1 0x20 DUP1 DUP3 MSTORE PUSH1 0x17 SWAP1 DUP3 ADD MSTORE PUSH32 0x5573657220616C72656164792072656769737465726564000000000000000000 PUSH1 0x40 DUP3 ADD MSTORE PUSH1 0x60 ADD SWAP1 JUMP JUMPDEST PUSH1 0x20 DUP1 DUP3 MSTORE PUSH1 0x16 SWAP1 DUP3 ADD MSTORE PUSH22 0x21B0B63632B91034B9903737BA1030B71030B236B4B7 PUSH1 0x51 SHL PUSH1 0x40 DUP3 ADD MSTORE PUSH1 0x60 ADD SWAP1 JUMP JUMPDEST PUSH1 0x20 DUP1 DUP3 MSTORE PUSH1 0x1D SWAP1 DUP3 ADD MSTORE PUSH32 0x416464726573733A2063616C6C20746F206E6F6E2D636F6E7472616374000000 PUSH1 0x40 DUP3 ADD MSTORE PUSH1 0x60 ADD SWAP1 JUMP JUMPDEST PUSH1 0x20 DUP1 DUP3 MSTORE PUSH1 0x2A SWAP1 DUP3 ADD MSTORE PUSH32 0x5361666545524332303A204552433230206F7065726174696F6E20646964206E PUSH1 0x40 DUP3 ADD MSTORE PUSH10 0x1BDD081CDD58D8D95959 PUSH1 0xB2 SHL PUSH1 0x60 DUP3 ADD MSTORE PUSH1 0x80 ADD SWAP1 JUMP JUMPDEST PUSH1 0x20 DUP1 DUP3 MSTORE PUSH1 0x2F SWAP1 DUP3 ADD MSTORE PUSH32 0x416363657373436F6E74726F6C3A2063616E206F6E6C792072656E6F756E6365 PUSH1 0x40 DUP3 ADD MSTORE PUSH15 0x103937B632B9903337B91039B2B633 PUSH1 0x89 SHL PUSH1 0x60 DUP3 ADD MSTORE PUSH1 0x80 ADD SWAP1 JUMP JUMPDEST SWAP7 DUP8 MSTORE PUSH1 0x1 PUSH1 0x1 PUSH1 0xA0 SHL SUB SWAP6 DUP7 AND PUSH1 0x20 DUP9 ADD MSTORE SWAP4 SWAP1 SWAP5 AND PUSH1 0x40 DUP7 ADD MSTORE PUSH1 0x60 DUP6 ADD SWAP2 SWAP1 SWAP2 MSTORE PUSH1 0x80 DUP5 ADD MSTORE PUSH1 0xA0 DUP4 ADD SWAP2 SWAP1 SWAP2 MSTORE PUSH1 0xC0 DUP3 ADD MSTORE PUSH1 0xE0 ADD SWAP1 JUMP JUMPDEST PUSH1 0x0 DUP4 DUP3 MSTORE PUSH1 0x40 PUSH1 0x20 DUP4 ADD MSTORE PUSH2 0x126F PUSH1 0x40 DUP4 ADD DUP5 PUSH2 0x1777 JUMP JUMPDEST PUSH1 0x0 JUMPDEST DUP4 DUP2 LT ISZERO PUSH2 0x1C8D JUMPI DUP2 DUP2 ADD MLOAD DUP4 DUP3 ADD MSTORE PUSH1 0x20 ADD PUSH2 0x1C75 JUMP JUMPDEST DUP4 DUP2 GT ISZERO PUSH2 0x106C JUMPI POP POP PUSH1 0x0 SWAP2 ADD MSTORE JUMP JUMPDEST PUSH1 0x1 PUSH1 0x1 PUSH1 0xA0 SHL SUB DUP2 AND DUP2 EQ PUSH2 0x1091 JUMPI PUSH1 0x0 DUP1 REVERT INVALID LOG4 SWAP9 SMOD KECCAK256 0x5C 0xE4 0xD3 SSTORE MULMOD 0x2E CREATE2 0xA8 LOG1 DUP16 JUMP 0xE8 SWAP2 EXTCODECOPY DELEGATECALL LOG2 ADD 0xFB 0xE2 DUP8 DUP3 JUMPDEST MULMOD JUMP SWAP4 0xC2 OR PUSH22 0xA26469706673582212204F65200A63F6F0B11AC2D51E PUSH17 0x2A7E9A2EC3C4585DD6493D0D6D6CF558DA PUSH29 0x2864736F6C634300070100330000000000000000000000000000000000 ",
  "sha1": "1353c4a2118744f3ad9ecd9c31923f794ddda7de",
  "source": "// SPDX-License-Identifier: unlicensed\npragma solidity >=0.6.6;\npragma experimental ABIEncoderV2;\n\nimport \"@openzeppelin/contracts/token/ERC20/IERC20.sol\";\nimport \"@openzeppelin/contracts/token/ERC20/SafeERC20.sol\";\nimport \"@openzeppelin/contracts/access/Ownable.sol\";\nimport \"@openzeppelin/contracts/utils/ReentrancyGuard.sol\";\nimport \"@openzeppelin/contracts/proxy/Initializable.sol\";\nimport \"@openzeppelin/contracts/access/AccessControl.sol\";\nimport \"@chainlink/contracts/src/v0.6/ChainlinkClient.sol\";\n\nimport \"@openzeppelin/contracts/utils/Counters.sol\";\n\nimport \"./TennerrController.sol\";\nimport \"./TennerrEscrow.sol\";\nimport \"./TennerrFactory.sol\";\nimport \"./TennerrStreamer.sol\";\n\n\ncontract Tennerr is AccessControl, ReentrancyGuard, ChainlinkClient {\n  using SafeERC20 for IERC20;\n  using SafeMath for uint;\n  using Counters for Counters.Counter;\n\n  // Create a new role identifier for the admin role\n  bytes32 public constant ADMIN_ROLE = keccak256(\"ADMIN_ROLE\");\n\n  // OZ counter\n  Counters.Counter private sellerIdTracker;\n\n  struct Seller {\n      uint _id;\n      string name;\n      string area;\n      string[] socialHandles;\n      uint jobsNumber;\n      uint jobsVolume;\n      uint reputationScore;\n      string reputationLevel;\n  }\n  /* Quote parameters\n  payment type could be something like:\n    0 - all upfront\n    1 - 50% downpayment\n    2 - superfluid\n    3 - custom etc */\n  struct Quote {\n      bytes32 jobId;\n      uint sellerId;\n      uint priceUsd;\n      uint paymentType;\n      uint nOfRevisions;\n      uint jobLength;\n  }\n\n  // tracks the amount spent on the platform\n  mapping(address => uint256) amountSpentOnPlatformUsd;\n  // authorized currency tickers on platform\n  mapping(string => bool)  _AuthorizedCurrencyTickers;\n  // mapping token name to blockchain addresses\n  mapping(string => address) private _erc20Contracts;\n\n  mapping(address => bool) public isSellerRegistered;\n  // a mapping of sellers\n  mapping(uint256 => Seller) sellers;\n\n  mapping(address => uint) sellerIdByAddress;\n  mapping(uint => address) sellerAddressById;\n  mapping(bytes32 => Quote) quoteByQuoteId;\n\n  mapping(address => Quote[]) quotesBySeller;\n  // address of the tennerr contract\n  address payable private _tennerrEscrowContractAddress;\n  // tennerr contract\n  TennerrEscrow public tennerrEscrow;\n  // address of the tennerr controller\n  address payable private _tennerrControllerContractAddress;\n  // tennerr contract\n  TennerrController public tennerrController;\n  // address of the tennerr factory\n  address payable private _tennerrFactoryContractAddress;\n  // tennerr contract\n  TennerrFactory public tennerrFactory;\n  // address of the tennerr streamer\n  address payable private _tennerrStreamerContractAddress;\n  // tennerr streamer contract\n  TennerrStreamer public tennerrStreamer;\n\n\n  event SellerRegistered(address sellerAddress, string name, string area);\n\n\n  constructor() public {\n    _AuthorizedCurrencyTickers[\"USDC\"] = true;\n    addSupportedCurrency(\"USDC\", 0x2791Bca1f2de4661ED88A30C99A7a9449Aa84174);//check address checksum\n    _setupRole(ADMIN_ROLE, msg.sender);\n  }\n\n  /* register dev/seller */\n  function registerSeller(string memory name,\n    string memory area,\n    string memory socialHandle)\n    public {\n      require(!isSellerRegistered[msg.sender], 'User already registered');\n      sellerIdTracker.increment();\n      uint sellerId = sellerIdTracker.current();\n      Seller storage seller = sellers[sellerId];\n      seller._id = sellerId;\n      seller.name = name;\n      seller.area = area;\n      seller.socialHandles = [socialHandle];\n      seller.jobsNumber = 0;\n      seller.jobsVolume = 0;\n      seller.reputationScore = 0;\n      seller.reputationLevel = \"Unrated\";\n\n      isSellerRegistered[msg.sender] = true;\n      sellerIdByAddress[msg.sender] = sellerId;\n      sellerAddressById[sellerId] = msg.sender;\n      emit SellerRegistered(msg.sender, name, area);\n  }\n  /* open quote from seller */\n  /* jobLength is how long it takes to fullfill job*/\n  function jobQuoteProposal(uint priceInUsd,\n    uint paymentType,\n    uint nOfRevisions,\n    uint jobLength)\n    public returns (bytes32){\n      require(isSellerRegistered[msg.sender], 'You need to be registered first');\n      require(paymentType < 4,'Payment type not recognized');\n      uint sellerId = sellerIdByAddress[msg.sender];\n      /* should be very hard to get a duplicate id from this*/\n      bytes32 jobId = keccak256(abi.encodePacked(sellerId, priceInUsd, paymentType, block.timestamp));\n\n      Quote storage quote = quoteByQuoteId[jobId];\n      quote.jobId = jobId;\n      quote.sellerId = sellerId;\n      quote.priceUsd = priceInUsd;\n      quote.paymentType = paymentType;\n      quote.nOfRevisions = nOfRevisions;\n      quote.jobLength = jobLength;\n\n      quotesBySeller[msg.sender].push(quote);\n      return jobId;\n  }\n\n\n  /* pay seller quote */\n  function paySeller(\n    bytes32 sellerQuoteId,\n    uint amountUsd,\n    string memory currencyTicker) public {\n      /* requires seller to be registered and buyer to have enough money  */\n      /* require(amount > 0, \"Deposit must be more than 0.\"); */\n      require(_erc20Contracts[currencyTicker] != address(0), \"Invalid currency code.\");\n      // Get deposit amount in USD\n      Quote memory quote = quoteByQuoteId[sellerQuoteId];\n      uint priceOfQuote = quote.priceUsd;\n      require(amountUsd >= priceOfQuote);\n      uint sellerId = quote.sellerId;\n      address sellerAddress = sellerAddressById[sellerId];\n      address buyerAddress = msg.sender;\n      uint jobLength = quote.jobLength;\n      uint paymentType = quote.paymentType;\n      _handlePayment(sellerQuoteId,buyerAddress,amountUsd,paymentType,currencyTicker);\n      tennerrEscrow.storeOrder(sellerId,buyerAddress, sellerAddress, sellerQuoteId, priceOfQuote, jobLength, paymentType);\n     /* if deadline > 2 days deposit in aave and keep count */\n     /* increment work id for seller */\n     /* update work id status to started */\n  }\n\n  function _handlePayment(\n    bytes32 jobId,\n    address buyerAddress,\n    uint amount,\n    uint paymentType,\n    string memory currencyTicker ) internal {\n      address erc20Contract = _erc20Contracts[currencyTicker];\n      // requires approval from user (tx sender, done by web3)\n      IERC20(erc20Contract).safeTransferFrom(buyerAddress, _tennerrControllerContractAddress, amount);\n      uint amountMinted = tennerrFactory.mint(amount,currencyTicker);\n      /* all upfront */\n      if (paymentType == 0)\n      {\n        /* mint credit tokens, deposit all into escrow */\n        _moveToEscrow(amountMinted);\n      }\n      else if (paymentType == 1)\n      /* 50% downpayment */\n      {\n        _moveToEscrow(amountMinted);\n      }\n      else if (paymentType == 2)\n      /* superfluid */\n      {\n        /* mint credit tokens */\n        /* This flow rate is equivalent to 1000 tokens per month, for a token with 18 decimals. */\n        uint flowRate = 385802469135802; //tokens per second\n        /* start stream of credit tokens to escrow*/\n        tennerrStreamer.createFlow(_tennerrEscrowContractAddress, flowRate, abi.encodePacked(jobId));\n      }\n  }\n\n  function _moveToEscrow(uint amountMinted) internal {\n      IERC20(tennerrFactory).safeTransferFrom(address(this),_tennerrEscrowContractAddress, amountMinted);\n  }\n\n/* work checkers  */\n  /* get work status from buyer */\n  /* get timeleft for work id for both buyer or seller*/\n\n\n/* seller function */\n  /* cancel order, refund buyer */\n  /* ask seller to modify order (edit amount if charge extra, edit delivery time) */\n/* buyer function  */\n  /* order edit request approve/ deny */\n  /* ask for cancel order */\n  /* ask for update on order status */\n\n\n/* open dispute (https://www.fiverr.com/support/articles/360010452597-Using-the-Resolution-Center)*/\n  /* select reason for dispute\n    other party will have up to 48h to accept or decline\n    if does not reply, buyer gets money back\n    if reply and accepts, propose deal or refund\n    if reply and decline, disputes escaleted to DAO\n   */\n\n/* dispute escalation*/\n  /* chainlink VRF to pick small group of seller/buyers\n    sign NDA(if needed) look at history and vote\n    majority gets the money, fee goes to voters and DAO\n   */\n\n\n // add supported currency for deposits\n function addSupportedCurrency(string memory currencyTicker, address erc20Contract) public {\n   _erc20Contracts[currencyTicker] = erc20Contract;\n }\n\n function setTennerrEscrow(address payable newContract) external {\n   // Check that the calling account has the admin role\n   require(hasRole(ADMIN_ROLE, msg.sender), \"Caller is not an admin\");\n   _tennerrEscrowContractAddress = newContract;\n   tennerrEscrow = TennerrEscrow(_tennerrEscrowContractAddress);\n }\n\n function setTennerrController(address payable newContract) external {\n   // Check that the calling account has the admin role\n   require(hasRole(ADMIN_ROLE, msg.sender), \"Caller is not an admin\");\n   _tennerrControllerContractAddress = newContract;\n   tennerrController = TennerrController(_tennerrControllerContractAddress);\n }\n\n function setTennerrFactory(address payable newContract) external {\n   // Check that the calling account has the admin role\n   require(hasRole(ADMIN_ROLE, msg.sender), \"Caller is not an admin\");\n   _tennerrFactoryContractAddress = newContract;\n   tennerrFactory = TennerrFactory(_tennerrFactoryContractAddress);\n }\n\n function setTennerrStreamer(address payable newContract) external {\n   // Check that the calling account has the admin role\n   require(hasRole(ADMIN_ROLE, msg.sender), \"Caller is not an admin\");\n   _tennerrStreamerContractAddress = newContract;\n   tennerrStreamer= TennerrStreamer(_tennerrStreamerContractAddress);\n }\n\n\n\n/* sellers info getters */\n  /* get dev/seller telegram handle */\n  /* get dev/seller discord handle */\n  /* get dev/seller email */\n  /* get dev/seller github or gitlab */\n  /* get dev/seller portfolio link */\n  /* get dev/seller rep level */\n\n  function getSellerRegistration(address sellerAddress) public view returns (bool){\n    return isSellerRegistered[sellerAddress];\n  }\n\n  function getSellerId() public view returns (uint){\n    require(isSellerRegistered[msg.sender], 'You need to be registered first');\n    return sellerIdByAddress[msg.sender];\n  }\n\n  function getQuotesByAddress(address seller) public view returns (Quote[] memory){\n    return quotesBySeller[seller];\n  }\n\n  // fallback function\n  receive() external payable { }\n\n}\n",
  "sourcePath": "contracts/Tennerr.sol",
  "type": "contract"
}