{
  "abi": [
    {
      "inputs": [],
      "stateMutability": "nonpayable",
      "type": "constructor"
    },
    {
      "anonymous": false,
      "inputs": [
        {
          "indexed": true,
          "internalType": "bytes32",
          "name": "id",
          "type": "bytes32"
        }
      ],
      "name": "ChainlinkCancelled",
      "type": "event"
    },
    {
      "anonymous": false,
      "inputs": [
        {
          "indexed": true,
          "internalType": "bytes32",
          "name": "id",
          "type": "bytes32"
        }
      ],
      "name": "ChainlinkFulfilled",
      "type": "event"
    },
    {
      "anonymous": false,
      "inputs": [
        {
          "indexed": true,
          "internalType": "bytes32",
          "name": "id",
          "type": "bytes32"
        }
      ],
      "name": "ChainlinkRequested",
      "type": "event"
    },
    {
      "anonymous": false,
      "inputs": [
        {
          "indexed": true,
          "internalType": "bytes32",
          "name": "role",
          "type": "bytes32"
        },
        {
          "indexed": true,
          "internalType": "bytes32",
          "name": "previousAdminRole",
          "type": "bytes32"
        },
        {
          "indexed": true,
          "internalType": "bytes32",
          "name": "newAdminRole",
          "type": "bytes32"
        }
      ],
      "name": "RoleAdminChanged",
      "type": "event"
    },
    {
      "anonymous": false,
      "inputs": [
        {
          "indexed": true,
          "internalType": "bytes32",
          "name": "role",
          "type": "bytes32"
        },
        {
          "indexed": true,
          "internalType": "address",
          "name": "account",
          "type": "address"
        },
        {
          "indexed": true,
          "internalType": "address",
          "name": "sender",
          "type": "address"
        }
      ],
      "name": "RoleGranted",
      "type": "event"
    },
    {
      "anonymous": false,
      "inputs": [
        {
          "indexed": true,
          "internalType": "bytes32",
          "name": "role",
          "type": "bytes32"
        },
        {
          "indexed": true,
          "internalType": "address",
          "name": "account",
          "type": "address"
        },
        {
          "indexed": true,
          "internalType": "address",
          "name": "sender",
          "type": "address"
        }
      ],
      "name": "RoleRevoked",
      "type": "event"
    },
    {
      "anonymous": false,
      "inputs": [
        {
          "indexed": false,
          "internalType": "address",
          "name": "sellerAddress",
          "type": "address"
        },
        {
          "indexed": false,
          "internalType": "string",
          "name": "name",
          "type": "string"
        },
        {
          "indexed": false,
          "internalType": "string",
          "name": "area",
          "type": "string"
        }
      ],
      "name": "SellerRegistered",
      "type": "event"
    },
    {
      "inputs": [],
      "name": "ADMIN_ROLE",
      "outputs": [
        {
          "internalType": "bytes32",
          "name": "",
          "type": "bytes32"
        }
      ],
      "stateMutability": "view",
      "type": "function"
    },
    {
      "inputs": [],
      "name": "DEFAULT_ADMIN_ROLE",
      "outputs": [
        {
          "internalType": "bytes32",
          "name": "",
          "type": "bytes32"
        }
      ],
      "stateMutability": "view",
      "type": "function"
    },
    {
      "inputs": [
        {
          "internalType": "string",
          "name": "currencyTicker",
          "type": "string"
        },
        {
          "internalType": "address",
          "name": "erc20Contract",
          "type": "address"
        }
      ],
      "name": "addSupportedCurrency",
      "outputs": [],
      "stateMutability": "nonpayable",
      "type": "function"
    },
    {
      "inputs": [
        {
          "internalType": "bytes32",
          "name": "sellerQuoteId",
          "type": "bytes32"
        }
      ],
      "name": "getQuoteByQuoteId",
      "outputs": [
        {
          "components": [
            {
              "internalType": "bytes32",
              "name": "jobId",
              "type": "bytes32"
            },
            {
              "internalType": "uint256",
              "name": "sellerId",
              "type": "uint256"
            },
            {
              "internalType": "uint256",
              "name": "priceUsd",
              "type": "uint256"
            },
            {
              "internalType": "uint256",
              "name": "paymentType",
              "type": "uint256"
            },
            {
              "internalType": "uint256",
              "name": "nOfRevisions",
              "type": "uint256"
            },
            {
              "internalType": "uint256",
              "name": "jobLength",
              "type": "uint256"
            },
            {
              "internalType": "uint256",
              "name": "flowRate",
              "type": "uint256"
            }
          ],
          "internalType": "struct Tennerr.Quote",
          "name": "",
          "type": "tuple"
        }
      ],
      "stateMutability": "view",
      "type": "function"
    },
    {
      "inputs": [
        {
          "internalType": "address",
          "name": "seller",
          "type": "address"
        }
      ],
      "name": "getQuotesByAddress",
      "outputs": [
        {
          "components": [
            {
              "internalType": "bytes32",
              "name": "jobId",
              "type": "bytes32"
            },
            {
              "internalType": "uint256",
              "name": "sellerId",
              "type": "uint256"
            },
            {
              "internalType": "uint256",
              "name": "priceUsd",
              "type": "uint256"
            },
            {
              "internalType": "uint256",
              "name": "paymentType",
              "type": "uint256"
            },
            {
              "internalType": "uint256",
              "name": "nOfRevisions",
              "type": "uint256"
            },
            {
              "internalType": "uint256",
              "name": "jobLength",
              "type": "uint256"
            },
            {
              "internalType": "uint256",
              "name": "flowRate",
              "type": "uint256"
            }
          ],
          "internalType": "struct Tennerr.Quote[]",
          "name": "",
          "type": "tuple[]"
        }
      ],
      "stateMutability": "view",
      "type": "function"
    },
    {
      "inputs": [
        {
          "internalType": "bytes32",
          "name": "role",
          "type": "bytes32"
        }
      ],
      "name": "getRoleAdmin",
      "outputs": [
        {
          "internalType": "bytes32",
          "name": "",
          "type": "bytes32"
        }
      ],
      "stateMutability": "view",
      "type": "function"
    },
    {
      "inputs": [
        {
          "internalType": "bytes32",
          "name": "role",
          "type": "bytes32"
        },
        {
          "internalType": "uint256",
          "name": "index",
          "type": "uint256"
        }
      ],
      "name": "getRoleMember",
      "outputs": [
        {
          "internalType": "address",
          "name": "",
          "type": "address"
        }
      ],
      "stateMutability": "view",
      "type": "function"
    },
    {
      "inputs": [
        {
          "internalType": "bytes32",
          "name": "role",
          "type": "bytes32"
        }
      ],
      "name": "getRoleMemberCount",
      "outputs": [
        {
          "internalType": "uint256",
          "name": "",
          "type": "uint256"
        }
      ],
      "stateMutability": "view",
      "type": "function"
    },
    {
      "inputs": [],
      "name": "getSellerId",
      "outputs": [
        {
          "internalType": "uint256",
          "name": "",
          "type": "uint256"
        }
      ],
      "stateMutability": "view",
      "type": "function"
    },
    {
      "inputs": [
        {
          "internalType": "address",
          "name": "sellerAddress",
          "type": "address"
        }
      ],
      "name": "getSellerRegistration",
      "outputs": [
        {
          "internalType": "bool",
          "name": "",
          "type": "bool"
        }
      ],
      "stateMutability": "view",
      "type": "function"
    },
    {
      "inputs": [
        {
          "internalType": "bytes32",
          "name": "role",
          "type": "bytes32"
        },
        {
          "internalType": "address",
          "name": "account",
          "type": "address"
        }
      ],
      "name": "grantRole",
      "outputs": [],
      "stateMutability": "nonpayable",
      "type": "function"
    },
    {
      "inputs": [
        {
          "internalType": "bytes32",
          "name": "role",
          "type": "bytes32"
        },
        {
          "internalType": "address",
          "name": "account",
          "type": "address"
        }
      ],
      "name": "hasRole",
      "outputs": [
        {
          "internalType": "bool",
          "name": "",
          "type": "bool"
        }
      ],
      "stateMutability": "view",
      "type": "function"
    },
    {
      "inputs": [
        {
          "internalType": "address",
          "name": "",
          "type": "address"
        }
      ],
      "name": "isSellerRegistered",
      "outputs": [
        {
          "internalType": "bool",
          "name": "",
          "type": "bool"
        }
      ],
      "stateMutability": "view",
      "type": "function"
    },
    {
      "inputs": [
        {
          "internalType": "uint256",
          "name": "priceInUsd",
          "type": "uint256"
        },
        {
          "internalType": "uint256",
          "name": "paymentType",
          "type": "uint256"
        },
        {
          "internalType": "uint256",
          "name": "nOfRevisions",
          "type": "uint256"
        },
        {
          "internalType": "uint256",
          "name": "jobLength",
          "type": "uint256"
        },
        {
          "internalType": "uint256",
          "name": "flowRate",
          "type": "uint256"
        }
      ],
      "name": "jobQuoteProposal",
      "outputs": [
        {
          "internalType": "bytes32",
          "name": "",
          "type": "bytes32"
        }
      ],
      "stateMutability": "nonpayable",
      "type": "function"
    },
    {
      "inputs": [
        {
          "internalType": "bytes32",
          "name": "sellerQuoteId",
          "type": "bytes32"
        },
        {
          "internalType": "uint256",
          "name": "amountUsd",
          "type": "uint256"
        },
        {
          "internalType": "string",
          "name": "currencyTicker",
          "type": "string"
        }
      ],
      "name": "paySeller",
      "outputs": [],
      "stateMutability": "nonpayable",
      "type": "function"
    },
    {
      "inputs": [
        {
          "internalType": "string",
          "name": "name",
          "type": "string"
        },
        {
          "internalType": "string",
          "name": "area",
          "type": "string"
        },
        {
          "internalType": "string",
          "name": "socialHandle",
          "type": "string"
        }
      ],
      "name": "registerSeller",
      "outputs": [],
      "stateMutability": "nonpayable",
      "type": "function"
    },
    {
      "inputs": [
        {
          "internalType": "bytes32",
          "name": "role",
          "type": "bytes32"
        },
        {
          "internalType": "address",
          "name": "account",
          "type": "address"
        }
      ],
      "name": "renounceRole",
      "outputs": [],
      "stateMutability": "nonpayable",
      "type": "function"
    },
    {
      "inputs": [
        {
          "internalType": "bytes32",
          "name": "role",
          "type": "bytes32"
        },
        {
          "internalType": "address",
          "name": "account",
          "type": "address"
        }
      ],
      "name": "revokeRole",
      "outputs": [],
      "stateMutability": "nonpayable",
      "type": "function"
    },
    {
      "inputs": [
        {
          "internalType": "address payable",
          "name": "newContract",
          "type": "address"
        }
      ],
      "name": "setTennerrController",
      "outputs": [],
      "stateMutability": "nonpayable",
      "type": "function"
    },
    {
      "inputs": [
        {
          "internalType": "address payable",
          "name": "newContract",
          "type": "address"
        }
      ],
      "name": "setTennerrEscrow",
      "outputs": [],
      "stateMutability": "nonpayable",
      "type": "function"
    },
    {
      "inputs": [
        {
          "internalType": "address payable",
          "name": "newContract",
          "type": "address"
        }
      ],
      "name": "setTennerrFactory",
      "outputs": [],
      "stateMutability": "nonpayable",
      "type": "function"
    },
    {
      "inputs": [
        {
          "internalType": "address payable",
          "name": "newContract",
          "type": "address"
        }
      ],
      "name": "setTennerrFactoryX",
      "outputs": [],
      "stateMutability": "nonpayable",
      "type": "function"
    },
    {
      "inputs": [
        {
          "internalType": "address payable",
          "name": "newContract",
          "type": "address"
        }
      ],
      "name": "setTennerrStreamer",
      "outputs": [],
      "stateMutability": "nonpayable",
      "type": "function"
    },
    {
      "inputs": [],
      "name": "tennerrController",
      "outputs": [
        {
          "internalType": "contract TennerrController",
          "name": "",
          "type": "address"
        }
      ],
      "stateMutability": "view",
      "type": "function"
    },
    {
      "inputs": [],
      "name": "tennerrEscrow",
      "outputs": [
        {
          "internalType": "contract TennerrEscrow",
          "name": "",
          "type": "address"
        }
      ],
      "stateMutability": "view",
      "type": "function"
    },
    {
      "inputs": [],
      "name": "tennerrFactory",
      "outputs": [
        {
          "internalType": "contract TennerrFactory",
          "name": "",
          "type": "address"
        }
      ],
      "stateMutability": "view",
      "type": "function"
    },
    {
      "inputs": [],
      "name": "tennerrStreamer",
      "outputs": [
        {
          "internalType": "contract TennerrStreamer",
          "name": "",
          "type": "address"
        }
      ],
      "stateMutability": "view",
      "type": "function"
    },
    {
      "stateMutability": "payable",
      "type": "receive"
    }
  ],
  "bytecode": "608060405260016006553480156200001657600080fd5b506001808055604051600a906200002d906200024b565b9081526040805160209281900383018120805460ff191694151594909417909355828101905260048252635553444360e01b908201526200008390732791bca1f2de4661ed88a30c99a7a9449aa84174620000b5565b620000af7fa49807205ce4d355092ef5a8a18f56e8913cf4a201fbe287825b095693c2177533620000fb565b6200025b565b80600b83604051620000c891906200020f565b90815260405190819003602001902080546001600160a01b03929092166001600160a01b03199092169190911790555050565b6200010782826200010b565b5050565b6000828152602081815260409091206200013091839062000e9162000184821b17901c565b15620001075762000140620001a4565b6001600160a01b0316816001600160a01b0316837f2f8788117e7eff1d82e926ec794901d17c78024a50270940304540a733656f0d60405160405180910390a45050565b60006200019b836001600160a01b038416620001a8565b90505b92915050565b3390565b6000620001b68383620001f7565b620001ee575081546001818101845560008481526020808220909301849055845484825282860190935260409020919091556200019e565b5060006200019e565b60009081526001919091016020526040902054151590565b60008251815b8181101562000231576020818601810151858301520162000215565b81811115620002405782828501525b509190910192915050565b635553444360e01b815260040190565b6122a2806200026b6000396000f3fe6080604052600436106101a05760003560e01c8063812b48e0116100ec578063ca15c8731161008a578063e4986c8911610064578063e4986c8914610496578063ed21a4dd146104b6578063ed2f6c64146104d6578063f069b24a146104eb576101a7565b8063ca15c87314610436578063d547741f14610456578063e177390d14610476576101a7565b806394cc02bc116100c657806394cc02bc146103bf578063a217fddf146103df578063bdd0494d146103f4578063c64c81f014610421576101a7565b8063812b48e01461035f5780639010d07c1461037f57806391d148541461039f576101a7565b806336568abe11610159578063529862731161013357806352986273146102e857806353bf9296146103155780635bd7fa111461033557806375b238fc1461034a576101a7565b806336568abe146102935780634dbb40b2146102b35780634eb66fff146102c8576101a7565b8063011a0c3c146101ac57806319862d27146101d7578063248a9ca3146101f957806326947c281461022657806326efcb4a146102465780632f2ff15d14610273576101a7565b366101a757005b600080fd5b3480156101b857600080fd5b506101c161050b565b6040516101ce9190611cdc565b60405180910390f35b3480156101e357600080fd5b506101f76101f2366004611a29565b61051a565b005b34801561020557600080fd5b50610219610214366004611a65565b610579565b6040516101ce9190611c9c565b34801561023257600080fd5b506101f7610241366004611acd565b61058e565b34801561025257600080fd5b50610266610261366004611a29565b61072e565b6040516101ce9190611deb565b34801561027f57600080fd5b506101f761028e366004611a7d565b610743565b34801561029f57600080fd5b506101f76102ae366004611a7d565b61078b565b3480156102bf57600080fd5b506101c16107cd565b3480156102d457600080fd5b506101f76102e3366004611a29565b6107dc565b3480156102f457600080fd5b50610308610303366004611a29565b61083f565b6040516101ce9190611d9d565b34801561032157600080fd5b506101f7610330366004611a29565b6108fa565b34801561034157600080fd5b506101c161095d565b34801561035657600080fd5b5061021961096c565b34801561036b57600080fd5b506101f761037a366004611a29565b61097e565b34801561038b57600080fd5b506101c161039a366004611aac565b6109e1565b3480156103ab57600080fd5b506102666103ba366004611a7d565b610a02565b3480156103cb57600080fd5b506102666103da366004611a29565b610a1a565b3480156103eb57600080fd5b50610219610a38565b34801561040057600080fd5b5061041461040f366004611a65565b610a3d565b6040516101ce91906121a2565b34801561042d57600080fd5b506101c1610aa8565b34801561044257600080fd5b50610219610451366004611a65565b610ab7565b34801561046257600080fd5b506101f7610471366004611a7d565b610ace565b34801561048257600080fd5b506101f7610491366004611b1b565b610b08565b3480156104a257600080fd5b506101f76104b1366004611b60565b610b4c565b3480156104c257600080fd5b506102196104d1366004611bf2565b610cbb565b3480156104e257600080fd5b50610219610deb565b3480156104f757600080fd5b506101f7610506366004611a29565b610e2e565b6015546001600160a01b031681565b61053260008051602061224d83398151915233610a02565b6105575760405162461bcd60e51b815260040161054e906120a2565b60405180910390fd5b601a80546001600160a01b0319166001600160a01b0392909216919091179055565b60009081526020819052604090206002015490565b60006001600160a01b0316600b826040516105a99190611ca5565b908152604051908190036020019020546001600160a01b031614156105e05760405162461bcd60e51b815260040161054e90611ffa565b6105e861181e565b50600083815260106020908152604091829020825160e0810184528154815260018201549281019290925260028101549282018390526003810154606083015260048101546080830152600581015460a08301526006015460c0820152908084101561065357600080fd5b6020808301516000818152600f909252604082205460a0850151606086015192936001600160a01b039092169233926002821415610692575060c08701515b6106a08b858c858d86610ea6565b601360009054906101000a90046001600160a01b03166001600160a01b031663b51f717c8786888f8c8989896040518963ffffffff1660e01b81526004016106ef9897969594939291906121b0565b600060405180830381600087803b15801561070957600080fd5b505af115801561071d573d6000803e3d6000fd5b505050505050505050505050505050565b600c6020526000908152604090205460ff1681565b600082815260208190526040902060020154610761906103ba61103c565b61077d5760405162461bcd60e51b815260040161054e90611e4b565b6107878282611040565b5050565b61079361103c565b6001600160a01b0316816001600160a01b0316146107c35760405162461bcd60e51b815260040161054e90612153565b61078782826110a9565b6017546001600160a01b031681565b6107f460008051602061224d83398151915233610a02565b6108105760405162461bcd60e51b815260040161054e906120a2565b601280546001600160a01b03199081166001600160a01b03938416179182905560138054929093169116179055565b6001600160a01b0381166000908152601160209081526040808320805482518185028101850190935280835260609492939192909184015b828210156108ef57838290600052602060002090600702016040518060e001604052908160008201548152602001600182015481526020016002820154815260200160038201548152602001600482015481526020016005820154815260200160068201548152505081526020019060010190610877565b505050509050919050565b61091260008051602061224d83398151915233610a02565b61092e5760405162461bcd60e51b815260040161054e906120a2565b601480546001600160a01b03199081166001600160a01b03938416179182905560158054929093169116179055565b6013546001600160a01b031681565b60008051602061224d83398151915281565b61099660008051602061224d83398151915233610a02565b6109b25760405162461bcd60e51b815260040161054e906120a2565b601880546001600160a01b03199081166001600160a01b03938416179182905560198054929093169116179055565b60008281526020819052604081206109f99083611112565b90505b92915050565b60008281526020819052604081206109f9908361111e565b6001600160a01b03166000908152600c602052604090205460ff1690565b600081565b610a4561181e565b50600090815260106020908152604091829020825160e081018452815481526001820154928101929092526002810154928201929092526003820154606082015260048201546080820152600582015460a082015260069091015460c082015290565b6019546001600160a01b031681565b60008181526020819052604081206109fc90611133565b600082815260208190526040902060020154610aec906103ba61103c565b6107c35760405162461bcd60e51b815260040161054e90611faa565b80600b83604051610b199190611ca5565b90815260405190819003602001902080546001600160a01b03929092166001600160a01b03199092169190911790555050565b336000908152600c602052604090205460ff1615610b7c5760405162461bcd60e51b815260040161054e9061206b565b610b86600861113e565b6000610b926008611147565b6000818152600d60209081526040909120828155865192935091610bbe9160018401919088019061185e565b508351610bd4906002830190602087019061185e565b506040805160208101909152838152610bf390600383019060016118dc565b5060006004820181905560058201819055600682015560408051808201909152600780825266155b9c985d195960ca1b6020909201918252610c38918184019161185e565b50336000818152600c60209081526040808320805460ff19166001179055600e8252808320869055858352600f9091529081902080546001600160a01b03191683179055517f029a886814235a877cf2ff5df3c674a946b17782bf260ca120b7b951a6d35cc691610cac9188908890611cf0565b60405180910390a15050505050565b336000908152600c602052604081205460ff16610cea5760405162461bcd60e51b815260040161054e90611ed1565b60048510610d0a5760405162461bcd60e51b815260040161054e90611e9a565b336000908152600e60209081526040808320549051909291610d349184918b918b91429101611cc1565b60408051601f198184030181529181528151602092830120600081815260108452828120828155600180820197885560028083019e8f5560038084019e8f5560048085019e8f5560058086019e8f5560068087019e8f5533885260118b529887208054808701825590885299909620945460079099029094019788559854918701919091559c549c85019c909c55995494830194909455965498810198909855509254948601949094555493909101929092555090565b336000908152600c602052604081205460ff16610e1a5760405162461bcd60e51b815260040161054e90611ed1565b50336000908152600e602052604090205490565b610e4660008051602061224d83398151915233610a02565b610e625760405162461bcd60e51b815260040161054e906120a2565b601680546001600160a01b03199081166001600160a01b03938416179182905560178054929093169116179055565b60006109f9836001600160a01b03841661114b565b6000600b83604051610eb89190611ca5565b908152604051908190036020019020546014546001600160a01b039182169250610ee791839189911688611195565b601754604051630ee12ff960e31b81526000916001600160a01b0316906377097fc890610f1a90899088906004016121f2565b602060405180830381600087803b158015610f3457600080fd5b505af1158015610f48573d6000803e3d6000fd5b505050506040513d601f19601f82011682018060405250810190610f6c9190611bda565b905084610f8157610f7c816111f3565b611032565b8460011415610f9357610f7c816111f3565b846002141561103257610fa58161129a565b6019546012546040516001600160a01b039283169263ae015adc9216908690610fd2908d90602001611c9c565b6040516020818303038152906040526040518463ffffffff1660e01b8152600401610fff93929190611d49565b600060405180830381600087803b15801561101957600080fd5b505af115801561102d573d6000803e3d6000fd5b505050505b5050505050505050565b3390565b60008281526020819052604090206110589082610e91565b156107875761106561103c565b6001600160a01b0316816001600160a01b0316837f2f8788117e7eff1d82e926ec794901d17c78024a50270940304540a733656f0d60405160405180910390a45050565b60008281526020819052604090206110c190826114d2565b15610787576110ce61103c565b6001600160a01b0316816001600160a01b0316837ff6391f5c32d9c69d2a47ea670b442974b53935d1edc7fd64eb21e047a839171b60405160405180910390a45050565b60006109f983836114e7565b60006109f9836001600160a01b03841661152c565b60006109fc82611147565b80546001019055565b5490565b6000611157838361152c565b61118d575081546001818101845560008481526020808220909301849055845484825282860190935260409020919091556109fc565b5060006109fc565b6111ed846323b872dd60e01b8585856040516024016111b693929190611d79565b60408051601f198184030181529190526020810180516001600160e01b03166001600160e01b031990931692909217909152611544565b50505050565b60175460405163095ea7b360e01b81526001600160a01b039091169063095ea7b3906112259030908590600401611d30565b602060405180830381600087803b15801561123f57600080fd5b505af1158015611253573d6000803e3d6000fd5b505050506040513d601f19601f820116820180604052508101906112779190611a45565b50601254601754611297916001600160a01b039182169130911684611195565b50565b601754601a5460405163095ea7b360e01b81526001600160a01b039283169263095ea7b3926112d0929116908590600401611d30565b602060405180830381600087803b1580156112ea57600080fd5b505af11580156112fe573d6000803e3d6000fd5b505050506040513d601f19601f820116820180604052508101906113229190611a45565b506017546040516370a0823160e01b815282916001600160a01b0316906370a0823190611353903090600401611cdc565b60206040518083038186803b15801561136b57600080fd5b505afa15801561137f573d6000803e3d6000fd5b505050506040513d601f19601f820116820180604052508101906113a39190611bda565b146113c05760405162461bcd60e51b815260040161054e90611f4e565b60006113e1620f42406113db84670de0b6b3a76400006115d3565b9061160d565b601a546040516345977d0360e01b81529192506001600160a01b0316906345977d0390611412908490600401611c9c565b600060405180830381600087803b15801561142c57600080fd5b505af1158015611440573d6000803e3d6000fd5b5050601a5460185460405163a9059cbb60e01b81526001600160a01b03928316945063a9059cbb935061147b92909116908590600401611d30565b602060405180830381600087803b15801561149557600080fd5b505af11580156114a9573d6000803e3d6000fd5b505050506040513d601f19601f820116820180604052508101906114cd9190611a45565b505050565b60006109f9836001600160a01b03841661163f565b8154600090821061150a5760405162461bcd60e51b815260040161054e90611e09565b82600001828154811061151957fe5b9060005260206000200154905092915050565b60009081526001919091016020526040902054151590565b6060611599826040518060400160405280602081526020017f5361666545524332303a206c6f772d6c6576656c2063616c6c206661696c6564815250856001600160a01b03166117059092919063ffffffff16565b8051909150156114cd57808060200190518101906115b79190611a45565b6114cd5760405162461bcd60e51b815260040161054e90612109565b6000826115e2575060006109fc565b828202828482816115ef57fe5b04146109f95760405162461bcd60e51b815260040161054e9061202a565b600080821161162e5760405162461bcd60e51b815260040161054e90611f73565b81838161163757fe5b049392505050565b600081815260018301602052604081205480156116fb578354600019808301919081019060009087908390811061167257fe5b906000526020600020015490508087600001848154811061168f57fe5b6000918252602080832090910192909255828152600189810190925260409020908401905586548790806116bf57fe5b600190038181906000526020600020016000905590558660010160008781526020019081526020016000206000905560019450505050506109fc565b60009150506109fc565b6060611714848460008561171e565b90505b9392505050565b6060824710156117405760405162461bcd60e51b815260040161054e90611f08565b611749856117df565b6117655760405162461bcd60e51b815260040161054e906120d2565b60006060866001600160a01b031685876040516117829190611ca5565b60006040518083038185875af1925050503d80600081146117bf576040519150601f19603f3d011682016040523d82523d6000602084013e6117c4565b606091505b50915091506117d48282866117e5565b979650505050505050565b3b151590565b606083156117f4575081611717565b8251156118045782518084602001fd5b8160405162461bcd60e51b815260040161054e9190611df6565b6040518060e00160405280600080191681526020016000815260200160008152602001600081526020016000815260200160008152602001600081525090565b828054600181600116156101000203166002900490600052602060002090601f016020900481019282601f1061189f57805160ff19168380011785556118cc565b828001600101855582156118cc579182015b828111156118cc5782518255916020019190600101906118b1565b506118d8929150611935565b5090565b828054828255906000526020600020908101928215611929579160200282015b82811115611929578251805161191991849160209091019061185e565b50916020019190600101906118fc565b506118d892915061194a565b5b808211156118d85760008155600101611936565b808211156118d857600061195e8282611967565b5060010161194a565b50805460018160011615610100020316600290046000825580601f1061198d5750611297565b601f0160209004906000526020600020908101906112979190611935565b600082601f8301126119bb578081fd5b813567ffffffffffffffff808211156119d2578283fd5b604051601f8301601f1916810160200182811182821017156119f2578485fd5b604052828152925082848301602001861015611a0d57600080fd5b8260208601602083013760006020848301015250505092915050565b600060208284031215611a3a578081fd5b81356109f981612237565b600060208284031215611a56578081fd5b815180151581146109f9578182fd5b600060208284031215611a76578081fd5b5035919050565b60008060408385031215611a8f578081fd5b823591506020830135611aa181612237565b809150509250929050565b60008060408385031215611abe578182fd5b50508035926020909101359150565b600080600060608486031215611ae1578081fd5b8335925060208401359150604084013567ffffffffffffffff811115611b05578182fd5b611b11868287016119ab565b9150509250925092565b60008060408385031215611b2d578182fd5b823567ffffffffffffffff811115611b43578283fd5b611b4f858286016119ab565b9250506020830135611aa181612237565b600080600060608486031215611b74578283fd5b833567ffffffffffffffff80821115611b8b578485fd5b611b97878388016119ab565b94506020860135915080821115611bac578384fd5b611bb8878388016119ab565b93506040860135915080821115611bcd578283fd5b50611b11868287016119ab565b600060208284031215611beb578081fd5b5051919050565b600080600080600060a08688031215611c09578081fd5b505083359560208501359550604085013594606081013594506080013592509050565b60008151808452611c4481602086016020860161220b565b601f01601f19169290920160200192915050565b805182526020810151602083015260408101516040830152606081015160608301526080810151608083015260a081015160a083015260c081015160c08301525050565b90815260200190565b60008251611cb781846020870161220b565b9190910192915050565b93845260208401929092526040830152606082015260800190565b6001600160a01b0391909116815260200190565b6001600160a01b0384168152606060208201819052600090611d1490830185611c2c565b8281036040840152611d268185611c2c565b9695505050505050565b6001600160a01b03929092168252602082015260400190565b600060018060a01b038516825283602083015260606040830152611d706060830184611c2c565b95945050505050565b6001600160a01b039384168152919092166020820152604081019190915260600190565b6020808252825182820181905260009190848201906040850190845b81811015611ddf57611dcc838551611c58565b9284019260e09290920191600101611db9565b50909695505050505050565b901515815260200190565b6000602082526109f96020830184611c2c565b60208082526022908201527f456e756d657261626c655365743a20696e646578206f7574206f6620626f756e604082015261647360f01b606082015260800190565b6020808252602f908201527f416363657373436f6e74726f6c3a2073656e646572206d75737420626520616e60408201526e0818591b5a5b881d1bc819dc985b9d608a1b606082015260800190565b6020808252601b908201527f5061796d656e742074797065206e6f74207265636f676e697a65640000000000604082015260600190565b6020808252601f908201527f596f75206e65656420746f206265207265676973746572656420666972737400604082015260600190565b60208082526026908201527f416464726573733a20696e73756666696369656e742062616c616e636520666f6040820152651c8818d85b1b60d21b606082015260800190565b6020808252600b908201526a1b5a5b9d0819985a5b195960aa1b604082015260600190565b6020808252601a908201527f536166654d6174683a206469766973696f6e206279207a65726f000000000000604082015260600190565b60208082526030908201527f416363657373436f6e74726f6c3a2073656e646572206d75737420626520616e60408201526f2061646d696e20746f207265766f6b6560801b606082015260800190565b60208082526016908201527524b73b30b634b21031bab93932b731bc9031b7b2329760511b604082015260600190565b60208082526021908201527f536166654d6174683a206d756c7469706c69636174696f6e206f766572666c6f6040820152607760f81b606082015260800190565b60208082526017908201527f5573657220616c72656164792072656769737465726564000000000000000000604082015260600190565b60208082526016908201527521b0b63632b91034b9903737ba1030b71030b236b4b760511b604082015260600190565b6020808252601d908201527f416464726573733a2063616c6c20746f206e6f6e2d636f6e7472616374000000604082015260600190565b6020808252602a908201527f5361666545524332303a204552433230206f7065726174696f6e20646964206e6040820152691bdd081cdd58d8d9595960b21b606082015260800190565b6020808252602f908201527f416363657373436f6e74726f6c3a2063616e206f6e6c792072656e6f756e636560408201526e103937b632b9903337b91039b2b63360891b606082015260800190565b60e081016109fc8284611c58565b9788526001600160a01b0396871660208901529490951660408701526060860192909252608085015260a084015260c083019190915260e08201526101000190565b6000838252604060208301526117146040830184611c2c565b60005b8381101561222657818101518382015260200161220e565b838111156111ed5750506000910152565b6001600160a01b038116811461129757600080fdfea49807205ce4d355092ef5a8a18f56e8913cf4a201fbe287825b095693c21775a264697066735822122007a1282ec9d653b5f5f0c9ea1f55963863bca67731a261a14850ae3a2e623a2f64736f6c63430007010033",
  "bytecodeSha1": "370d2ade9d4faa1c1ca9c5a8d6826da4278aa5d6",
  "compiler": {
    "evm_version": "istanbul",
    "optimizer": {
      "enabled": true,
      "runs": 200
    },
    "version": "0.7.1+commit.f4a555be"
  },
  "contractName": "Tennerr",
  "language": "Solidity",
  "natspec": {
    "kind": "dev",
    "methods": {
      "getRoleAdmin(bytes32)": {
        "details": "Returns the admin role that controls `role`. See {grantRole} and {revokeRole}. To change a role's admin, use {_setRoleAdmin}."
      },
      "getRoleMember(bytes32,uint256)": {
        "details": "Returns one of the accounts that have `role`. `index` must be a value between 0 and {getRoleMemberCount}, non-inclusive. Role bearers are not sorted in any particular way, and their ordering may change at any point. WARNING: When using {getRoleMember} and {getRoleMemberCount}, make sure you perform all queries on the same block. See the following https://forum.openzeppelin.com/t/iterating-over-elements-on-enumerableset-in-openzeppelin-contracts/2296[forum post] for more information."
      },
      "getRoleMemberCount(bytes32)": {
        "details": "Returns the number of accounts that have `role`. Can be used together with {getRoleMember} to enumerate all bearers of a role."
      },
      "grantRole(bytes32,address)": {
        "details": "Grants `role` to `account`. If `account` had not been already granted `role`, emits a {RoleGranted} event. Requirements: - the caller must have ``role``'s admin role."
      },
      "hasRole(bytes32,address)": {
        "details": "Returns `true` if `account` has been granted `role`."
      },
      "renounceRole(bytes32,address)": {
        "details": "Revokes `role` from the calling account. Roles are often managed via {grantRole} and {revokeRole}: this function's purpose is to provide a mechanism for accounts to lose their privileges if they are compromised (such as when a trusted device is misplaced). If the calling account had been granted `role`, emits a {RoleRevoked} event. Requirements: - the caller must be `account`."
      },
      "revokeRole(bytes32,address)": {
        "details": "Revokes `role` from `account`. If `account` had been granted `role`, emits a {RoleRevoked} event. Requirements: - the caller must have ``role``'s admin role."
      }
    },
    "version": 1
  },
  "opcodes": "PUSH1 0x80 PUSH1 0x40 MSTORE PUSH1 0x4 CALLDATASIZE LT PUSH2 0x1A0 JUMPI PUSH1 0x0 CALLDATALOAD PUSH1 0xE0 SHR DUP1 PUSH4 0x812B48E0 GT PUSH2 0xEC JUMPI DUP1 PUSH4 0xCA15C873 GT PUSH2 0x8A JUMPI DUP1 PUSH4 0xE4986C89 GT PUSH2 0x64 JUMPI DUP1 PUSH4 0xE4986C89 EQ PUSH2 0x496 JUMPI DUP1 PUSH4 0xED21A4DD EQ PUSH2 0x4B6 JUMPI DUP1 PUSH4 0xED2F6C64 EQ PUSH2 0x4D6 JUMPI DUP1 PUSH4 0xF069B24A EQ PUSH2 0x4EB JUMPI PUSH2 0x1A7 JUMP JUMPDEST DUP1 PUSH4 0xCA15C873 EQ PUSH2 0x436 JUMPI DUP1 PUSH4 0xD547741F EQ PUSH2 0x456 JUMPI DUP1 PUSH4 0xE177390D EQ PUSH2 0x476 JUMPI PUSH2 0x1A7 JUMP JUMPDEST DUP1 PUSH4 0x94CC02BC GT PUSH2 0xC6 JUMPI DUP1 PUSH4 0x94CC02BC EQ PUSH2 0x3BF JUMPI DUP1 PUSH4 0xA217FDDF EQ PUSH2 0x3DF JUMPI DUP1 PUSH4 0xBDD0494D EQ PUSH2 0x3F4 JUMPI DUP1 PUSH4 0xC64C81F0 EQ PUSH2 0x421 JUMPI PUSH2 0x1A7 JUMP JUMPDEST DUP1 PUSH4 0x812B48E0 EQ PUSH2 0x35F JUMPI DUP1 PUSH4 0x9010D07C EQ PUSH2 0x37F JUMPI DUP1 PUSH4 0x91D14854 EQ PUSH2 0x39F JUMPI PUSH2 0x1A7 JUMP JUMPDEST DUP1 PUSH4 0x36568ABE GT PUSH2 0x159 JUMPI DUP1 PUSH4 0x52986273 GT PUSH2 0x133 JUMPI DUP1 PUSH4 0x52986273 EQ PUSH2 0x2E8 JUMPI DUP1 PUSH4 0x53BF9296 EQ PUSH2 0x315 JUMPI DUP1 PUSH4 0x5BD7FA11 EQ PUSH2 0x335 JUMPI DUP1 PUSH4 0x75B238FC EQ PUSH2 0x34A JUMPI PUSH2 0x1A7 JUMP JUMPDEST DUP1 PUSH4 0x36568ABE EQ PUSH2 0x293 JUMPI DUP1 PUSH4 0x4DBB40B2 EQ PUSH2 0x2B3 JUMPI DUP1 PUSH4 0x4EB66FFF EQ PUSH2 0x2C8 JUMPI PUSH2 0x1A7 JUMP JUMPDEST DUP1 PUSH4 0x11A0C3C EQ PUSH2 0x1AC JUMPI DUP1 PUSH4 0x19862D27 EQ PUSH2 0x1D7 JUMPI DUP1 PUSH4 0x248A9CA3 EQ PUSH2 0x1F9 JUMPI DUP1 PUSH4 0x26947C28 EQ PUSH2 0x226 JUMPI DUP1 PUSH4 0x26EFCB4A EQ PUSH2 0x246 JUMPI DUP1 PUSH4 0x2F2FF15D EQ PUSH2 0x273 JUMPI PUSH2 0x1A7 JUMP JUMPDEST CALLDATASIZE PUSH2 0x1A7 JUMPI STOP JUMPDEST PUSH1 0x0 DUP1 REVERT JUMPDEST CALLVALUE DUP1 ISZERO PUSH2 0x1B8 JUMPI PUSH1 0x0 DUP1 REVERT JUMPDEST POP PUSH2 0x1C1 PUSH2 0x50B JUMP JUMPDEST PUSH1 0x40 MLOAD PUSH2 0x1CE SWAP2 SWAP1 PUSH2 0x1CDC JUMP JUMPDEST PUSH1 0x40 MLOAD DUP1 SWAP2 SUB SWAP1 RETURN JUMPDEST CALLVALUE DUP1 ISZERO PUSH2 0x1E3 JUMPI PUSH1 0x0 DUP1 REVERT JUMPDEST POP PUSH2 0x1F7 PUSH2 0x1F2 CALLDATASIZE PUSH1 0x4 PUSH2 0x1A29 JUMP JUMPDEST PUSH2 0x51A JUMP JUMPDEST STOP JUMPDEST CALLVALUE DUP1 ISZERO PUSH2 0x205 JUMPI PUSH1 0x0 DUP1 REVERT JUMPDEST POP PUSH2 0x219 PUSH2 0x214 CALLDATASIZE PUSH1 0x4 PUSH2 0x1A65 JUMP JUMPDEST PUSH2 0x579 JUMP JUMPDEST PUSH1 0x40 MLOAD PUSH2 0x1CE SWAP2 SWAP1 PUSH2 0x1C9C JUMP JUMPDEST CALLVALUE DUP1 ISZERO PUSH2 0x232 JUMPI PUSH1 0x0 DUP1 REVERT JUMPDEST POP PUSH2 0x1F7 PUSH2 0x241 CALLDATASIZE PUSH1 0x4 PUSH2 0x1ACD JUMP JUMPDEST PUSH2 0x58E JUMP JUMPDEST CALLVALUE DUP1 ISZERO PUSH2 0x252 JUMPI PUSH1 0x0 DUP1 REVERT JUMPDEST POP PUSH2 0x266 PUSH2 0x261 CALLDATASIZE PUSH1 0x4 PUSH2 0x1A29 JUMP JUMPDEST PUSH2 0x72E JUMP JUMPDEST PUSH1 0x40 MLOAD PUSH2 0x1CE SWAP2 SWAP1 PUSH2 0x1DEB JUMP JUMPDEST CALLVALUE DUP1 ISZERO PUSH2 0x27F JUMPI PUSH1 0x0 DUP1 REVERT JUMPDEST POP PUSH2 0x1F7 PUSH2 0x28E CALLDATASIZE PUSH1 0x4 PUSH2 0x1A7D JUMP JUMPDEST PUSH2 0x743 JUMP JUMPDEST CALLVALUE DUP1 ISZERO PUSH2 0x29F JUMPI PUSH1 0x0 DUP1 REVERT JUMPDEST POP PUSH2 0x1F7 PUSH2 0x2AE CALLDATASIZE PUSH1 0x4 PUSH2 0x1A7D JUMP JUMPDEST PUSH2 0x78B JUMP JUMPDEST CALLVALUE DUP1 ISZERO PUSH2 0x2BF JUMPI PUSH1 0x0 DUP1 REVERT JUMPDEST POP PUSH2 0x1C1 PUSH2 0x7CD JUMP JUMPDEST CALLVALUE DUP1 ISZERO PUSH2 0x2D4 JUMPI PUSH1 0x0 DUP1 REVERT JUMPDEST POP PUSH2 0x1F7 PUSH2 0x2E3 CALLDATASIZE PUSH1 0x4 PUSH2 0x1A29 JUMP JUMPDEST PUSH2 0x7DC JUMP JUMPDEST CALLVALUE DUP1 ISZERO PUSH2 0x2F4 JUMPI PUSH1 0x0 DUP1 REVERT JUMPDEST POP PUSH2 0x308 PUSH2 0x303 CALLDATASIZE PUSH1 0x4 PUSH2 0x1A29 JUMP JUMPDEST PUSH2 0x83F JUMP JUMPDEST PUSH1 0x40 MLOAD PUSH2 0x1CE SWAP2 SWAP1 PUSH2 0x1D9D JUMP JUMPDEST CALLVALUE DUP1 ISZERO PUSH2 0x321 JUMPI PUSH1 0x0 DUP1 REVERT JUMPDEST POP PUSH2 0x1F7 PUSH2 0x330 CALLDATASIZE PUSH1 0x4 PUSH2 0x1A29 JUMP JUMPDEST PUSH2 0x8FA JUMP JUMPDEST CALLVALUE DUP1 ISZERO PUSH2 0x341 JUMPI PUSH1 0x0 DUP1 REVERT JUMPDEST POP PUSH2 0x1C1 PUSH2 0x95D JUMP JUMPDEST CALLVALUE DUP1 ISZERO PUSH2 0x356 JUMPI PUSH1 0x0 DUP1 REVERT JUMPDEST POP PUSH2 0x219 PUSH2 0x96C JUMP JUMPDEST CALLVALUE DUP1 ISZERO PUSH2 0x36B JUMPI PUSH1 0x0 DUP1 REVERT JUMPDEST POP PUSH2 0x1F7 PUSH2 0x37A CALLDATASIZE PUSH1 0x4 PUSH2 0x1A29 JUMP JUMPDEST PUSH2 0x97E JUMP JUMPDEST CALLVALUE DUP1 ISZERO PUSH2 0x38B JUMPI PUSH1 0x0 DUP1 REVERT JUMPDEST POP PUSH2 0x1C1 PUSH2 0x39A CALLDATASIZE PUSH1 0x4 PUSH2 0x1AAC JUMP JUMPDEST PUSH2 0x9E1 JUMP JUMPDEST CALLVALUE DUP1 ISZERO PUSH2 0x3AB JUMPI PUSH1 0x0 DUP1 REVERT JUMPDEST POP PUSH2 0x266 PUSH2 0x3BA CALLDATASIZE PUSH1 0x4 PUSH2 0x1A7D JUMP JUMPDEST PUSH2 0xA02 JUMP JUMPDEST CALLVALUE DUP1 ISZERO PUSH2 0x3CB JUMPI PUSH1 0x0 DUP1 REVERT JUMPDEST POP PUSH2 0x266 PUSH2 0x3DA CALLDATASIZE PUSH1 0x4 PUSH2 0x1A29 JUMP JUMPDEST PUSH2 0xA1A JUMP JUMPDEST CALLVALUE DUP1 ISZERO PUSH2 0x3EB JUMPI PUSH1 0x0 DUP1 REVERT JUMPDEST POP PUSH2 0x219 PUSH2 0xA38 JUMP JUMPDEST CALLVALUE DUP1 ISZERO PUSH2 0x400 JUMPI PUSH1 0x0 DUP1 REVERT JUMPDEST POP PUSH2 0x414 PUSH2 0x40F CALLDATASIZE PUSH1 0x4 PUSH2 0x1A65 JUMP JUMPDEST PUSH2 0xA3D JUMP JUMPDEST PUSH1 0x40 MLOAD PUSH2 0x1CE SWAP2 SWAP1 PUSH2 0x21A2 JUMP JUMPDEST CALLVALUE DUP1 ISZERO PUSH2 0x42D JUMPI PUSH1 0x0 DUP1 REVERT JUMPDEST POP PUSH2 0x1C1 PUSH2 0xAA8 JUMP JUMPDEST CALLVALUE DUP1 ISZERO PUSH2 0x442 JUMPI PUSH1 0x0 DUP1 REVERT JUMPDEST POP PUSH2 0x219 PUSH2 0x451 CALLDATASIZE PUSH1 0x4 PUSH2 0x1A65 JUMP JUMPDEST PUSH2 0xAB7 JUMP JUMPDEST CALLVALUE DUP1 ISZERO PUSH2 0x462 JUMPI PUSH1 0x0 DUP1 REVERT JUMPDEST POP PUSH2 0x1F7 PUSH2 0x471 CALLDATASIZE PUSH1 0x4 PUSH2 0x1A7D JUMP JUMPDEST PUSH2 0xACE JUMP JUMPDEST CALLVALUE DUP1 ISZERO PUSH2 0x482 JUMPI PUSH1 0x0 DUP1 REVERT JUMPDEST POP PUSH2 0x1F7 PUSH2 0x491 CALLDATASIZE PUSH1 0x4 PUSH2 0x1B1B JUMP JUMPDEST PUSH2 0xB08 JUMP JUMPDEST CALLVALUE DUP1 ISZERO PUSH2 0x4A2 JUMPI PUSH1 0x0 DUP1 REVERT JUMPDEST POP PUSH2 0x1F7 PUSH2 0x4B1 CALLDATASIZE PUSH1 0x4 PUSH2 0x1B60 JUMP JUMPDEST PUSH2 0xB4C JUMP JUMPDEST CALLVALUE DUP1 ISZERO PUSH2 0x4C2 JUMPI PUSH1 0x0 DUP1 REVERT JUMPDEST POP PUSH2 0x219 PUSH2 0x4D1 CALLDATASIZE PUSH1 0x4 PUSH2 0x1BF2 JUMP JUMPDEST PUSH2 0xCBB JUMP JUMPDEST CALLVALUE DUP1 ISZERO PUSH2 0x4E2 JUMPI PUSH1 0x0 DUP1 REVERT JUMPDEST POP PUSH2 0x219 PUSH2 0xDEB JUMP JUMPDEST CALLVALUE DUP1 ISZERO PUSH2 0x4F7 JUMPI PUSH1 0x0 DUP1 REVERT JUMPDEST POP PUSH2 0x1F7 PUSH2 0x506 CALLDATASIZE PUSH1 0x4 PUSH2 0x1A29 JUMP JUMPDEST PUSH2 0xE2E JUMP JUMPDEST PUSH1 0x15 SLOAD PUSH1 0x1 PUSH1 0x1 PUSH1 0xA0 SHL SUB AND DUP2 JUMP JUMPDEST PUSH2 0x532 PUSH1 0x0 DUP1 MLOAD PUSH1 0x20 PUSH2 0x224D DUP4 CODECOPY DUP2 MLOAD SWAP2 MSTORE CALLER PUSH2 0xA02 JUMP JUMPDEST PUSH2 0x557 JUMPI PUSH1 0x40 MLOAD PUSH3 0x461BCD PUSH1 0xE5 SHL DUP2 MSTORE PUSH1 0x4 ADD PUSH2 0x54E SWAP1 PUSH2 0x20A2 JUMP JUMPDEST PUSH1 0x40 MLOAD DUP1 SWAP2 SUB SWAP1 REVERT JUMPDEST PUSH1 0x1A DUP1 SLOAD PUSH1 0x1 PUSH1 0x1 PUSH1 0xA0 SHL SUB NOT AND PUSH1 0x1 PUSH1 0x1 PUSH1 0xA0 SHL SUB SWAP3 SWAP1 SWAP3 AND SWAP2 SWAP1 SWAP2 OR SWAP1 SSTORE JUMP JUMPDEST PUSH1 0x0 SWAP1 DUP2 MSTORE PUSH1 0x20 DUP2 SWAP1 MSTORE PUSH1 0x40 SWAP1 KECCAK256 PUSH1 0x2 ADD SLOAD SWAP1 JUMP JUMPDEST PUSH1 0x0 PUSH1 0x1 PUSH1 0x1 PUSH1 0xA0 SHL SUB AND PUSH1 0xB DUP3 PUSH1 0x40 MLOAD PUSH2 0x5A9 SWAP2 SWAP1 PUSH2 0x1CA5 JUMP JUMPDEST SWAP1 DUP2 MSTORE PUSH1 0x40 MLOAD SWAP1 DUP2 SWAP1 SUB PUSH1 0x20 ADD SWAP1 KECCAK256 SLOAD PUSH1 0x1 PUSH1 0x1 PUSH1 0xA0 SHL SUB AND EQ ISZERO PUSH2 0x5E0 JUMPI PUSH1 0x40 MLOAD PUSH3 0x461BCD PUSH1 0xE5 SHL DUP2 MSTORE PUSH1 0x4 ADD PUSH2 0x54E SWAP1 PUSH2 0x1FFA JUMP JUMPDEST PUSH2 0x5E8 PUSH2 0x181E JUMP JUMPDEST POP PUSH1 0x0 DUP4 DUP2 MSTORE PUSH1 0x10 PUSH1 0x20 SWAP1 DUP2 MSTORE PUSH1 0x40 SWAP2 DUP3 SWAP1 KECCAK256 DUP3 MLOAD PUSH1 0xE0 DUP2 ADD DUP5 MSTORE DUP2 SLOAD DUP2 MSTORE PUSH1 0x1 DUP3 ADD SLOAD SWAP3 DUP2 ADD SWAP3 SWAP1 SWAP3 MSTORE PUSH1 0x2 DUP2 ADD SLOAD SWAP3 DUP3 ADD DUP4 SWAP1 MSTORE PUSH1 0x3 DUP2 ADD SLOAD PUSH1 0x60 DUP4 ADD MSTORE PUSH1 0x4 DUP2 ADD SLOAD PUSH1 0x80 DUP4 ADD MSTORE PUSH1 0x5 DUP2 ADD SLOAD PUSH1 0xA0 DUP4 ADD MSTORE PUSH1 0x6 ADD SLOAD PUSH1 0xC0 DUP3 ADD MSTORE SWAP1 DUP1 DUP5 LT ISZERO PUSH2 0x653 JUMPI PUSH1 0x0 DUP1 REVERT JUMPDEST PUSH1 0x20 DUP1 DUP4 ADD MLOAD PUSH1 0x0 DUP2 DUP2 MSTORE PUSH1 0xF SWAP1 SWAP3 MSTORE PUSH1 0x40 DUP3 KECCAK256 SLOAD PUSH1 0xA0 DUP6 ADD MLOAD PUSH1 0x60 DUP7 ADD MLOAD SWAP3 SWAP4 PUSH1 0x1 PUSH1 0x1 PUSH1 0xA0 SHL SUB SWAP1 SWAP3 AND SWAP3 CALLER SWAP3 PUSH1 0x2 DUP3 EQ ISZERO PUSH2 0x692 JUMPI POP PUSH1 0xC0 DUP8 ADD MLOAD JUMPDEST PUSH2 0x6A0 DUP12 DUP6 DUP13 DUP6 DUP14 DUP7 PUSH2 0xEA6 JUMP JUMPDEST PUSH1 0x13 PUSH1 0x0 SWAP1 SLOAD SWAP1 PUSH2 0x100 EXP SWAP1 DIV PUSH1 0x1 PUSH1 0x1 PUSH1 0xA0 SHL SUB AND PUSH1 0x1 PUSH1 0x1 PUSH1 0xA0 SHL SUB AND PUSH4 0xB51F717C DUP8 DUP7 DUP9 DUP16 DUP13 DUP10 DUP10 DUP10 PUSH1 0x40 MLOAD DUP10 PUSH4 0xFFFFFFFF AND PUSH1 0xE0 SHL DUP2 MSTORE PUSH1 0x4 ADD PUSH2 0x6EF SWAP9 SWAP8 SWAP7 SWAP6 SWAP5 SWAP4 SWAP3 SWAP2 SWAP1 PUSH2 0x21B0 JUMP JUMPDEST PUSH1 0x0 PUSH1 0x40 MLOAD DUP1 DUP4 SUB DUP2 PUSH1 0x0 DUP8 DUP1 EXTCODESIZE ISZERO DUP1 ISZERO PUSH2 0x709 JUMPI PUSH1 0x0 DUP1 REVERT JUMPDEST POP GAS CALL ISZERO DUP1 ISZERO PUSH2 0x71D JUMPI RETURNDATASIZE PUSH1 0x0 DUP1 RETURNDATACOPY RETURNDATASIZE PUSH1 0x0 REVERT JUMPDEST POP POP POP POP POP POP POP POP POP POP POP POP POP POP POP JUMP JUMPDEST PUSH1 0xC PUSH1 0x20 MSTORE PUSH1 0x0 SWAP1 DUP2 MSTORE PUSH1 0x40 SWAP1 KECCAK256 SLOAD PUSH1 0xFF AND DUP2 JUMP JUMPDEST PUSH1 0x0 DUP3 DUP2 MSTORE PUSH1 0x20 DUP2 SWAP1 MSTORE PUSH1 0x40 SWAP1 KECCAK256 PUSH1 0x2 ADD SLOAD PUSH2 0x761 SWAP1 PUSH2 0x3BA PUSH2 0x103C JUMP JUMPDEST PUSH2 0x77D JUMPI PUSH1 0x40 MLOAD PUSH3 0x461BCD PUSH1 0xE5 SHL DUP2 MSTORE PUSH1 0x4 ADD PUSH2 0x54E SWAP1 PUSH2 0x1E4B JUMP JUMPDEST PUSH2 0x787 DUP3 DUP3 PUSH2 0x1040 JUMP JUMPDEST POP POP JUMP JUMPDEST PUSH2 0x793 PUSH2 0x103C JUMP JUMPDEST PUSH1 0x1 PUSH1 0x1 PUSH1 0xA0 SHL SUB AND DUP2 PUSH1 0x1 PUSH1 0x1 PUSH1 0xA0 SHL SUB AND EQ PUSH2 0x7C3 JUMPI PUSH1 0x40 MLOAD PUSH3 0x461BCD PUSH1 0xE5 SHL DUP2 MSTORE PUSH1 0x4 ADD PUSH2 0x54E SWAP1 PUSH2 0x2153 JUMP JUMPDEST PUSH2 0x787 DUP3 DUP3 PUSH2 0x10A9 JUMP JUMPDEST PUSH1 0x17 SLOAD PUSH1 0x1 PUSH1 0x1 PUSH1 0xA0 SHL SUB AND DUP2 JUMP JUMPDEST PUSH2 0x7F4 PUSH1 0x0 DUP1 MLOAD PUSH1 0x20 PUSH2 0x224D DUP4 CODECOPY DUP2 MLOAD SWAP2 MSTORE CALLER PUSH2 0xA02 JUMP JUMPDEST PUSH2 0x810 JUMPI PUSH1 0x40 MLOAD PUSH3 0x461BCD PUSH1 0xE5 SHL DUP2 MSTORE PUSH1 0x4 ADD PUSH2 0x54E SWAP1 PUSH2 0x20A2 JUMP JUMPDEST PUSH1 0x12 DUP1 SLOAD PUSH1 0x1 PUSH1 0x1 PUSH1 0xA0 SHL SUB NOT SWAP1 DUP2 AND PUSH1 0x1 PUSH1 0x1 PUSH1 0xA0 SHL SUB SWAP4 DUP5 AND OR SWAP2 DUP3 SWAP1 SSTORE PUSH1 0x13 DUP1 SLOAD SWAP3 SWAP1 SWAP4 AND SWAP2 AND OR SWAP1 SSTORE JUMP JUMPDEST PUSH1 0x1 PUSH1 0x1 PUSH1 0xA0 SHL SUB DUP2 AND PUSH1 0x0 SWAP1 DUP2 MSTORE PUSH1 0x11 PUSH1 0x20 SWAP1 DUP2 MSTORE PUSH1 0x40 DUP1 DUP4 KECCAK256 DUP1 SLOAD DUP3 MLOAD DUP2 DUP6 MUL DUP2 ADD DUP6 ADD SWAP1 SWAP4 MSTORE DUP1 DUP4 MSTORE PUSH1 0x60 SWAP5 SWAP3 SWAP4 SWAP2 SWAP3 SWAP1 SWAP2 DUP5 ADD JUMPDEST DUP3 DUP3 LT ISZERO PUSH2 0x8EF JUMPI DUP4 DUP3 SWAP1 PUSH1 0x0 MSTORE PUSH1 0x20 PUSH1 0x0 KECCAK256 SWAP1 PUSH1 0x7 MUL ADD PUSH1 0x40 MLOAD DUP1 PUSH1 0xE0 ADD PUSH1 0x40 MSTORE SWAP1 DUP2 PUSH1 0x0 DUP3 ADD SLOAD DUP2 MSTORE PUSH1 0x20 ADD PUSH1 0x1 DUP3 ADD SLOAD DUP2 MSTORE PUSH1 0x20 ADD PUSH1 0x2 DUP3 ADD SLOAD DUP2 MSTORE PUSH1 0x20 ADD PUSH1 0x3 DUP3 ADD SLOAD DUP2 MSTORE PUSH1 0x20 ADD PUSH1 0x4 DUP3 ADD SLOAD DUP2 MSTORE PUSH1 0x20 ADD PUSH1 0x5 DUP3 ADD SLOAD DUP2 MSTORE PUSH1 0x20 ADD PUSH1 0x6 DUP3 ADD SLOAD DUP2 MSTORE POP POP DUP2 MSTORE PUSH1 0x20 ADD SWAP1 PUSH1 0x1 ADD SWAP1 PUSH2 0x877 JUMP JUMPDEST POP POP POP POP SWAP1 POP SWAP2 SWAP1 POP JUMP JUMPDEST PUSH2 0x912 PUSH1 0x0 DUP1 MLOAD PUSH1 0x20 PUSH2 0x224D DUP4 CODECOPY DUP2 MLOAD SWAP2 MSTORE CALLER PUSH2 0xA02 JUMP JUMPDEST PUSH2 0x92E JUMPI PUSH1 0x40 MLOAD PUSH3 0x461BCD PUSH1 0xE5 SHL DUP2 MSTORE PUSH1 0x4 ADD PUSH2 0x54E SWAP1 PUSH2 0x20A2 JUMP JUMPDEST PUSH1 0x14 DUP1 SLOAD PUSH1 0x1 PUSH1 0x1 PUSH1 0xA0 SHL SUB NOT SWAP1 DUP2 AND PUSH1 0x1 PUSH1 0x1 PUSH1 0xA0 SHL SUB SWAP4 DUP5 AND OR SWAP2 DUP3 SWAP1 SSTORE PUSH1 0x15 DUP1 SLOAD SWAP3 SWAP1 SWAP4 AND SWAP2 AND OR SWAP1 SSTORE JUMP JUMPDEST PUSH1 0x13 SLOAD PUSH1 0x1 PUSH1 0x1 PUSH1 0xA0 SHL SUB AND DUP2 JUMP JUMPDEST PUSH1 0x0 DUP1 MLOAD PUSH1 0x20 PUSH2 0x224D DUP4 CODECOPY DUP2 MLOAD SWAP2 MSTORE DUP2 JUMP JUMPDEST PUSH2 0x996 PUSH1 0x0 DUP1 MLOAD PUSH1 0x20 PUSH2 0x224D DUP4 CODECOPY DUP2 MLOAD SWAP2 MSTORE CALLER PUSH2 0xA02 JUMP JUMPDEST PUSH2 0x9B2 JUMPI PUSH1 0x40 MLOAD PUSH3 0x461BCD PUSH1 0xE5 SHL DUP2 MSTORE PUSH1 0x4 ADD PUSH2 0x54E SWAP1 PUSH2 0x20A2 JUMP JUMPDEST PUSH1 0x18 DUP1 SLOAD PUSH1 0x1 PUSH1 0x1 PUSH1 0xA0 SHL SUB NOT SWAP1 DUP2 AND PUSH1 0x1 PUSH1 0x1 PUSH1 0xA0 SHL SUB SWAP4 DUP5 AND OR SWAP2 DUP3 SWAP1 SSTORE PUSH1 0x19 DUP1 SLOAD SWAP3 SWAP1 SWAP4 AND SWAP2 AND OR SWAP1 SSTORE JUMP JUMPDEST PUSH1 0x0 DUP3 DUP2 MSTORE PUSH1 0x20 DUP2 SWAP1 MSTORE PUSH1 0x40 DUP2 KECCAK256 PUSH2 0x9F9 SWAP1 DUP4 PUSH2 0x1112 JUMP JUMPDEST SWAP1 POP JUMPDEST SWAP3 SWAP2 POP POP JUMP JUMPDEST PUSH1 0x0 DUP3 DUP2 MSTORE PUSH1 0x20 DUP2 SWAP1 MSTORE PUSH1 0x40 DUP2 KECCAK256 PUSH2 0x9F9 SWAP1 DUP4 PUSH2 0x111E JUMP JUMPDEST PUSH1 0x1 PUSH1 0x1 PUSH1 0xA0 SHL SUB AND PUSH1 0x0 SWAP1 DUP2 MSTORE PUSH1 0xC PUSH1 0x20 MSTORE PUSH1 0x40 SWAP1 KECCAK256 SLOAD PUSH1 0xFF AND SWAP1 JUMP JUMPDEST PUSH1 0x0 DUP2 JUMP JUMPDEST PUSH2 0xA45 PUSH2 0x181E JUMP JUMPDEST POP PUSH1 0x0 SWAP1 DUP2 MSTORE PUSH1 0x10 PUSH1 0x20 SWAP1 DUP2 MSTORE PUSH1 0x40 SWAP2 DUP3 SWAP1 KECCAK256 DUP3 MLOAD PUSH1 0xE0 DUP2 ADD DUP5 MSTORE DUP2 SLOAD DUP2 MSTORE PUSH1 0x1 DUP3 ADD SLOAD SWAP3 DUP2 ADD SWAP3 SWAP1 SWAP3 MSTORE PUSH1 0x2 DUP2 ADD SLOAD SWAP3 DUP3 ADD SWAP3 SWAP1 SWAP3 MSTORE PUSH1 0x3 DUP3 ADD SLOAD PUSH1 0x60 DUP3 ADD MSTORE PUSH1 0x4 DUP3 ADD SLOAD PUSH1 0x80 DUP3 ADD MSTORE PUSH1 0x5 DUP3 ADD SLOAD PUSH1 0xA0 DUP3 ADD MSTORE PUSH1 0x6 SWAP1 SWAP2 ADD SLOAD PUSH1 0xC0 DUP3 ADD MSTORE SWAP1 JUMP JUMPDEST PUSH1 0x19 SLOAD PUSH1 0x1 PUSH1 0x1 PUSH1 0xA0 SHL SUB AND DUP2 JUMP JUMPDEST PUSH1 0x0 DUP2 DUP2 MSTORE PUSH1 0x20 DUP2 SWAP1 MSTORE PUSH1 0x40 DUP2 KECCAK256 PUSH2 0x9FC SWAP1 PUSH2 0x1133 JUMP JUMPDEST PUSH1 0x0 DUP3 DUP2 MSTORE PUSH1 0x20 DUP2 SWAP1 MSTORE PUSH1 0x40 SWAP1 KECCAK256 PUSH1 0x2 ADD SLOAD PUSH2 0xAEC SWAP1 PUSH2 0x3BA PUSH2 0x103C JUMP JUMPDEST PUSH2 0x7C3 JUMPI PUSH1 0x40 MLOAD PUSH3 0x461BCD PUSH1 0xE5 SHL DUP2 MSTORE PUSH1 0x4 ADD PUSH2 0x54E SWAP1 PUSH2 0x1FAA JUMP JUMPDEST DUP1 PUSH1 0xB DUP4 PUSH1 0x40 MLOAD PUSH2 0xB19 SWAP2 SWAP1 PUSH2 0x1CA5 JUMP JUMPDEST SWAP1 DUP2 MSTORE PUSH1 0x40 MLOAD SWAP1 DUP2 SWAP1 SUB PUSH1 0x20 ADD SWAP1 KECCAK256 DUP1 SLOAD PUSH1 0x1 PUSH1 0x1 PUSH1 0xA0 SHL SUB SWAP3 SWAP1 SWAP3 AND PUSH1 0x1 PUSH1 0x1 PUSH1 0xA0 SHL SUB NOT SWAP1 SWAP3 AND SWAP2 SWAP1 SWAP2 OR SWAP1 SSTORE POP POP JUMP JUMPDEST CALLER PUSH1 0x0 SWAP1 DUP2 MSTORE PUSH1 0xC PUSH1 0x20 MSTORE PUSH1 0x40 SWAP1 KECCAK256 SLOAD PUSH1 0xFF AND ISZERO PUSH2 0xB7C JUMPI PUSH1 0x40 MLOAD PUSH3 0x461BCD PUSH1 0xE5 SHL DUP2 MSTORE PUSH1 0x4 ADD PUSH2 0x54E SWAP1 PUSH2 0x206B JUMP JUMPDEST PUSH2 0xB86 PUSH1 0x8 PUSH2 0x113E JUMP JUMPDEST PUSH1 0x0 PUSH2 0xB92 PUSH1 0x8 PUSH2 0x1147 JUMP JUMPDEST PUSH1 0x0 DUP2 DUP2 MSTORE PUSH1 0xD PUSH1 0x20 SWAP1 DUP2 MSTORE PUSH1 0x40 SWAP1 SWAP2 KECCAK256 DUP3 DUP2 SSTORE DUP7 MLOAD SWAP3 SWAP4 POP SWAP2 PUSH2 0xBBE SWAP2 PUSH1 0x1 DUP5 ADD SWAP2 SWAP1 DUP9 ADD SWAP1 PUSH2 0x185E JUMP JUMPDEST POP DUP4 MLOAD PUSH2 0xBD4 SWAP1 PUSH1 0x2 DUP4 ADD SWAP1 PUSH1 0x20 DUP8 ADD SWAP1 PUSH2 0x185E JUMP JUMPDEST POP PUSH1 0x40 DUP1 MLOAD PUSH1 0x20 DUP2 ADD SWAP1 SWAP2 MSTORE DUP4 DUP2 MSTORE PUSH2 0xBF3 SWAP1 PUSH1 0x3 DUP4 ADD SWAP1 PUSH1 0x1 PUSH2 0x18DC JUMP JUMPDEST POP PUSH1 0x0 PUSH1 0x4 DUP3 ADD DUP2 SWAP1 SSTORE PUSH1 0x5 DUP3 ADD DUP2 SWAP1 SSTORE PUSH1 0x6 DUP3 ADD SSTORE PUSH1 0x40 DUP1 MLOAD DUP1 DUP3 ADD SWAP1 SWAP2 MSTORE PUSH1 0x7 DUP1 DUP3 MSTORE PUSH7 0x155B9C985D1959 PUSH1 0xCA SHL PUSH1 0x20 SWAP1 SWAP3 ADD SWAP2 DUP3 MSTORE PUSH2 0xC38 SWAP2 DUP2 DUP5 ADD SWAP2 PUSH2 0x185E JUMP JUMPDEST POP CALLER PUSH1 0x0 DUP2 DUP2 MSTORE PUSH1 0xC PUSH1 0x20 SWAP1 DUP2 MSTORE PUSH1 0x40 DUP1 DUP4 KECCAK256 DUP1 SLOAD PUSH1 0xFF NOT AND PUSH1 0x1 OR SWAP1 SSTORE PUSH1 0xE DUP3 MSTORE DUP1 DUP4 KECCAK256 DUP7 SWAP1 SSTORE DUP6 DUP4 MSTORE PUSH1 0xF SWAP1 SWAP2 MSTORE SWAP1 DUP2 SWAP1 KECCAK256 DUP1 SLOAD PUSH1 0x1 PUSH1 0x1 PUSH1 0xA0 SHL SUB NOT AND DUP4 OR SWAP1 SSTORE MLOAD PUSH32 0x29A886814235A877CF2FF5DF3C674A946B17782BF260CA120B7B951A6D35CC6 SWAP2 PUSH2 0xCAC SWAP2 DUP9 SWAP1 DUP9 SWAP1 PUSH2 0x1CF0 JUMP JUMPDEST PUSH1 0x40 MLOAD DUP1 SWAP2 SUB SWAP1 LOG1 POP POP POP POP POP JUMP JUMPDEST CALLER PUSH1 0x0 SWAP1 DUP2 MSTORE PUSH1 0xC PUSH1 0x20 MSTORE PUSH1 0x40 DUP2 KECCAK256 SLOAD PUSH1 0xFF AND PUSH2 0xCEA JUMPI PUSH1 0x40 MLOAD PUSH3 0x461BCD PUSH1 0xE5 SHL DUP2 MSTORE PUSH1 0x4 ADD PUSH2 0x54E SWAP1 PUSH2 0x1ED1 JUMP JUMPDEST PUSH1 0x4 DUP6 LT PUSH2 0xD0A JUMPI PUSH1 0x40 MLOAD PUSH3 0x461BCD PUSH1 0xE5 SHL DUP2 MSTORE PUSH1 0x4 ADD PUSH2 0x54E SWAP1 PUSH2 0x1E9A JUMP JUMPDEST CALLER PUSH1 0x0 SWAP1 DUP2 MSTORE PUSH1 0xE PUSH1 0x20 SWAP1 DUP2 MSTORE PUSH1 0x40 DUP1 DUP4 KECCAK256 SLOAD SWAP1 MLOAD SWAP1 SWAP3 SWAP2 PUSH2 0xD34 SWAP2 DUP5 SWAP2 DUP12 SWAP2 DUP12 SWAP2 TIMESTAMP SWAP2 ADD PUSH2 0x1CC1 JUMP JUMPDEST PUSH1 0x40 DUP1 MLOAD PUSH1 0x1F NOT DUP2 DUP5 SUB ADD DUP2 MSTORE SWAP2 DUP2 MSTORE DUP2 MLOAD PUSH1 0x20 SWAP3 DUP4 ADD KECCAK256 PUSH1 0x0 DUP2 DUP2 MSTORE PUSH1 0x10 DUP5 MSTORE DUP3 DUP2 KECCAK256 DUP3 DUP2 SSTORE PUSH1 0x1 DUP1 DUP3 ADD SWAP8 DUP9 SSTORE PUSH1 0x2 DUP1 DUP4 ADD SWAP15 DUP16 SSTORE PUSH1 0x3 DUP1 DUP5 ADD SWAP15 DUP16 SSTORE PUSH1 0x4 DUP1 DUP6 ADD SWAP15 DUP16 SSTORE PUSH1 0x5 DUP1 DUP7 ADD SWAP15 DUP16 SSTORE PUSH1 0x6 DUP1 DUP8 ADD SWAP15 DUP16 SSTORE CALLER DUP9 MSTORE PUSH1 0x11 DUP12 MSTORE SWAP9 DUP8 KECCAK256 DUP1 SLOAD DUP1 DUP8 ADD DUP3 SSTORE SWAP1 DUP9 MSTORE SWAP10 SWAP1 SWAP7 KECCAK256 SWAP5 SLOAD PUSH1 0x7 SWAP1 SWAP10 MUL SWAP1 SWAP5 ADD SWAP8 DUP9 SSTORE SWAP9 SLOAD SWAP2 DUP8 ADD SWAP2 SWAP1 SWAP2 SSTORE SWAP13 SLOAD SWAP13 DUP6 ADD SWAP13 SWAP1 SWAP13 SSTORE SWAP10 SLOAD SWAP5 DUP4 ADD SWAP5 SWAP1 SWAP5 SSTORE SWAP7 SLOAD SWAP9 DUP2 ADD SWAP9 SWAP1 SWAP9 SSTORE POP SWAP3 SLOAD SWAP5 DUP7 ADD SWAP5 SWAP1 SWAP5 SSTORE SLOAD SWAP4 SWAP1 SWAP2 ADD SWAP3 SWAP1 SWAP3 SSTORE POP SWAP1 JUMP JUMPDEST CALLER PUSH1 0x0 SWAP1 DUP2 MSTORE PUSH1 0xC PUSH1 0x20 MSTORE PUSH1 0x40 DUP2 KECCAK256 SLOAD PUSH1 0xFF AND PUSH2 0xE1A JUMPI PUSH1 0x40 MLOAD PUSH3 0x461BCD PUSH1 0xE5 SHL DUP2 MSTORE PUSH1 0x4 ADD PUSH2 0x54E SWAP1 PUSH2 0x1ED1 JUMP JUMPDEST POP CALLER PUSH1 0x0 SWAP1 DUP2 MSTORE PUSH1 0xE PUSH1 0x20 MSTORE PUSH1 0x40 SWAP1 KECCAK256 SLOAD SWAP1 JUMP JUMPDEST PUSH2 0xE46 PUSH1 0x0 DUP1 MLOAD PUSH1 0x20 PUSH2 0x224D DUP4 CODECOPY DUP2 MLOAD SWAP2 MSTORE CALLER PUSH2 0xA02 JUMP JUMPDEST PUSH2 0xE62 JUMPI PUSH1 0x40 MLOAD PUSH3 0x461BCD PUSH1 0xE5 SHL DUP2 MSTORE PUSH1 0x4 ADD PUSH2 0x54E SWAP1 PUSH2 0x20A2 JUMP JUMPDEST PUSH1 0x16 DUP1 SLOAD PUSH1 0x1 PUSH1 0x1 PUSH1 0xA0 SHL SUB NOT SWAP1 DUP2 AND PUSH1 0x1 PUSH1 0x1 PUSH1 0xA0 SHL SUB SWAP4 DUP5 AND OR SWAP2 DUP3 SWAP1 SSTORE PUSH1 0x17 DUP1 SLOAD SWAP3 SWAP1 SWAP4 AND SWAP2 AND OR SWAP1 SSTORE JUMP JUMPDEST PUSH1 0x0 PUSH2 0x9F9 DUP4 PUSH1 0x1 PUSH1 0x1 PUSH1 0xA0 SHL SUB DUP5 AND PUSH2 0x114B JUMP JUMPDEST PUSH1 0x0 PUSH1 0xB DUP4 PUSH1 0x40 MLOAD PUSH2 0xEB8 SWAP2 SWAP1 PUSH2 0x1CA5 JUMP JUMPDEST SWAP1 DUP2 MSTORE PUSH1 0x40 MLOAD SWAP1 DUP2 SWAP1 SUB PUSH1 0x20 ADD SWAP1 KECCAK256 SLOAD PUSH1 0x14 SLOAD PUSH1 0x1 PUSH1 0x1 PUSH1 0xA0 SHL SUB SWAP2 DUP3 AND SWAP3 POP PUSH2 0xEE7 SWAP2 DUP4 SWAP2 DUP10 SWAP2 AND DUP9 PUSH2 0x1195 JUMP JUMPDEST PUSH1 0x17 SLOAD PUSH1 0x40 MLOAD PUSH4 0xEE12FF9 PUSH1 0xE3 SHL DUP2 MSTORE PUSH1 0x0 SWAP2 PUSH1 0x1 PUSH1 0x1 PUSH1 0xA0 SHL SUB AND SWAP1 PUSH4 0x77097FC8 SWAP1 PUSH2 0xF1A SWAP1 DUP10 SWAP1 DUP9 SWAP1 PUSH1 0x4 ADD PUSH2 0x21F2 JUMP JUMPDEST PUSH1 0x20 PUSH1 0x40 MLOAD DUP1 DUP4 SUB DUP2 PUSH1 0x0 DUP8 DUP1 EXTCODESIZE ISZERO DUP1 ISZERO PUSH2 0xF34 JUMPI PUSH1 0x0 DUP1 REVERT JUMPDEST POP GAS CALL ISZERO DUP1 ISZERO PUSH2 0xF48 JUMPI RETURNDATASIZE PUSH1 0x0 DUP1 RETURNDATACOPY RETURNDATASIZE PUSH1 0x0 REVERT JUMPDEST POP POP POP POP PUSH1 0x40 MLOAD RETURNDATASIZE PUSH1 0x1F NOT PUSH1 0x1F DUP3 ADD AND DUP3 ADD DUP1 PUSH1 0x40 MSTORE POP DUP2 ADD SWAP1 PUSH2 0xF6C SWAP2 SWAP1 PUSH2 0x1BDA JUMP JUMPDEST SWAP1 POP DUP5 PUSH2 0xF81 JUMPI PUSH2 0xF7C DUP2 PUSH2 0x11F3 JUMP JUMPDEST PUSH2 0x1032 JUMP JUMPDEST DUP5 PUSH1 0x1 EQ ISZERO PUSH2 0xF93 JUMPI PUSH2 0xF7C DUP2 PUSH2 0x11F3 JUMP JUMPDEST DUP5 PUSH1 0x2 EQ ISZERO PUSH2 0x1032 JUMPI PUSH2 0xFA5 DUP2 PUSH2 0x129A JUMP JUMPDEST PUSH1 0x19 SLOAD PUSH1 0x12 SLOAD PUSH1 0x40 MLOAD PUSH1 0x1 PUSH1 0x1 PUSH1 0xA0 SHL SUB SWAP3 DUP4 AND SWAP3 PUSH4 0xAE015ADC SWAP3 AND SWAP1 DUP7 SWAP1 PUSH2 0xFD2 SWAP1 DUP14 SWAP1 PUSH1 0x20 ADD PUSH2 0x1C9C JUMP JUMPDEST PUSH1 0x40 MLOAD PUSH1 0x20 DUP2 DUP4 SUB SUB DUP2 MSTORE SWAP1 PUSH1 0x40 MSTORE PUSH1 0x40 MLOAD DUP5 PUSH4 0xFFFFFFFF AND PUSH1 0xE0 SHL DUP2 MSTORE PUSH1 0x4 ADD PUSH2 0xFFF SWAP4 SWAP3 SWAP2 SWAP1 PUSH2 0x1D49 JUMP JUMPDEST PUSH1 0x0 PUSH1 0x40 MLOAD DUP1 DUP4 SUB DUP2 PUSH1 0x0 DUP8 DUP1 EXTCODESIZE ISZERO DUP1 ISZERO PUSH2 0x1019 JUMPI PUSH1 0x0 DUP1 REVERT JUMPDEST POP GAS CALL ISZERO DUP1 ISZERO PUSH2 0x102D JUMPI RETURNDATASIZE PUSH1 0x0 DUP1 RETURNDATACOPY RETURNDATASIZE PUSH1 0x0 REVERT JUMPDEST POP POP POP POP JUMPDEST POP POP POP POP POP POP POP POP JUMP JUMPDEST CALLER SWAP1 JUMP JUMPDEST PUSH1 0x0 DUP3 DUP2 MSTORE PUSH1 0x20 DUP2 SWAP1 MSTORE PUSH1 0x40 SWAP1 KECCAK256 PUSH2 0x1058 SWAP1 DUP3 PUSH2 0xE91 JUMP JUMPDEST ISZERO PUSH2 0x787 JUMPI PUSH2 0x1065 PUSH2 0x103C JUMP JUMPDEST PUSH1 0x1 PUSH1 0x1 PUSH1 0xA0 SHL SUB AND DUP2 PUSH1 0x1 PUSH1 0x1 PUSH1 0xA0 SHL SUB AND DUP4 PUSH32 0x2F8788117E7EFF1D82E926EC794901D17C78024A50270940304540A733656F0D PUSH1 0x40 MLOAD PUSH1 0x40 MLOAD DUP1 SWAP2 SUB SWAP1 LOG4 POP POP JUMP JUMPDEST PUSH1 0x0 DUP3 DUP2 MSTORE PUSH1 0x20 DUP2 SWAP1 MSTORE PUSH1 0x40 SWAP1 KECCAK256 PUSH2 0x10C1 SWAP1 DUP3 PUSH2 0x14D2 JUMP JUMPDEST ISZERO PUSH2 0x787 JUMPI PUSH2 0x10CE PUSH2 0x103C JUMP JUMPDEST PUSH1 0x1 PUSH1 0x1 PUSH1 0xA0 SHL SUB AND DUP2 PUSH1 0x1 PUSH1 0x1 PUSH1 0xA0 SHL SUB AND DUP4 PUSH32 0xF6391F5C32D9C69D2A47EA670B442974B53935D1EDC7FD64EB21E047A839171B PUSH1 0x40 MLOAD PUSH1 0x40 MLOAD DUP1 SWAP2 SUB SWAP1 LOG4 POP POP JUMP JUMPDEST PUSH1 0x0 PUSH2 0x9F9 DUP4 DUP4 PUSH2 0x14E7 JUMP JUMPDEST PUSH1 0x0 PUSH2 0x9F9 DUP4 PUSH1 0x1 PUSH1 0x1 PUSH1 0xA0 SHL SUB DUP5 AND PUSH2 0x152C JUMP JUMPDEST PUSH1 0x0 PUSH2 0x9FC DUP3 PUSH2 0x1147 JUMP JUMPDEST DUP1 SLOAD PUSH1 0x1 ADD SWAP1 SSTORE JUMP JUMPDEST SLOAD SWAP1 JUMP JUMPDEST PUSH1 0x0 PUSH2 0x1157 DUP4 DUP4 PUSH2 0x152C JUMP JUMPDEST PUSH2 0x118D JUMPI POP DUP2 SLOAD PUSH1 0x1 DUP2 DUP2 ADD DUP5 SSTORE PUSH1 0x0 DUP5 DUP2 MSTORE PUSH1 0x20 DUP1 DUP3 KECCAK256 SWAP1 SWAP4 ADD DUP5 SWAP1 SSTORE DUP5 SLOAD DUP5 DUP3 MSTORE DUP3 DUP7 ADD SWAP1 SWAP4 MSTORE PUSH1 0x40 SWAP1 KECCAK256 SWAP2 SWAP1 SWAP2 SSTORE PUSH2 0x9FC JUMP JUMPDEST POP PUSH1 0x0 PUSH2 0x9FC JUMP JUMPDEST PUSH2 0x11ED DUP5 PUSH4 0x23B872DD PUSH1 0xE0 SHL DUP6 DUP6 DUP6 PUSH1 0x40 MLOAD PUSH1 0x24 ADD PUSH2 0x11B6 SWAP4 SWAP3 SWAP2 SWAP1 PUSH2 0x1D79 JUMP JUMPDEST PUSH1 0x40 DUP1 MLOAD PUSH1 0x1F NOT DUP2 DUP5 SUB ADD DUP2 MSTORE SWAP2 SWAP1 MSTORE PUSH1 0x20 DUP2 ADD DUP1 MLOAD PUSH1 0x1 PUSH1 0x1 PUSH1 0xE0 SHL SUB AND PUSH1 0x1 PUSH1 0x1 PUSH1 0xE0 SHL SUB NOT SWAP1 SWAP4 AND SWAP3 SWAP1 SWAP3 OR SWAP1 SWAP2 MSTORE PUSH2 0x1544 JUMP JUMPDEST POP POP POP POP JUMP JUMPDEST PUSH1 0x17 SLOAD PUSH1 0x40 MLOAD PUSH4 0x95EA7B3 PUSH1 0xE0 SHL DUP2 MSTORE PUSH1 0x1 PUSH1 0x1 PUSH1 0xA0 SHL SUB SWAP1 SWAP2 AND SWAP1 PUSH4 0x95EA7B3 SWAP1 PUSH2 0x1225 SWAP1 ADDRESS SWAP1 DUP6 SWAP1 PUSH1 0x4 ADD PUSH2 0x1D30 JUMP JUMPDEST PUSH1 0x20 PUSH1 0x40 MLOAD DUP1 DUP4 SUB DUP2 PUSH1 0x0 DUP8 DUP1 EXTCODESIZE ISZERO DUP1 ISZERO PUSH2 0x123F JUMPI PUSH1 0x0 DUP1 REVERT JUMPDEST POP GAS CALL ISZERO DUP1 ISZERO PUSH2 0x1253 JUMPI RETURNDATASIZE PUSH1 0x0 DUP1 RETURNDATACOPY RETURNDATASIZE PUSH1 0x0 REVERT JUMPDEST POP POP POP POP PUSH1 0x40 MLOAD RETURNDATASIZE PUSH1 0x1F NOT PUSH1 0x1F DUP3 ADD AND DUP3 ADD DUP1 PUSH1 0x40 MSTORE POP DUP2 ADD SWAP1 PUSH2 0x1277 SWAP2 SWAP1 PUSH2 0x1A45 JUMP JUMPDEST POP PUSH1 0x12 SLOAD PUSH1 0x17 SLOAD PUSH2 0x1297 SWAP2 PUSH1 0x1 PUSH1 0x1 PUSH1 0xA0 SHL SUB SWAP2 DUP3 AND SWAP2 ADDRESS SWAP2 AND DUP5 PUSH2 0x1195 JUMP JUMPDEST POP JUMP JUMPDEST PUSH1 0x17 SLOAD PUSH1 0x1A SLOAD PUSH1 0x40 MLOAD PUSH4 0x95EA7B3 PUSH1 0xE0 SHL DUP2 MSTORE PUSH1 0x1 PUSH1 0x1 PUSH1 0xA0 SHL SUB SWAP3 DUP4 AND SWAP3 PUSH4 0x95EA7B3 SWAP3 PUSH2 0x12D0 SWAP3 SWAP2 AND SWAP1 DUP6 SWAP1 PUSH1 0x4 ADD PUSH2 0x1D30 JUMP JUMPDEST PUSH1 0x20 PUSH1 0x40 MLOAD DUP1 DUP4 SUB DUP2 PUSH1 0x0 DUP8 DUP1 EXTCODESIZE ISZERO DUP1 ISZERO PUSH2 0x12EA JUMPI PUSH1 0x0 DUP1 REVERT JUMPDEST POP GAS CALL ISZERO DUP1 ISZERO PUSH2 0x12FE JUMPI RETURNDATASIZE PUSH1 0x0 DUP1 RETURNDATACOPY RETURNDATASIZE PUSH1 0x0 REVERT JUMPDEST POP POP POP POP PUSH1 0x40 MLOAD RETURNDATASIZE PUSH1 0x1F NOT PUSH1 0x1F DUP3 ADD AND DUP3 ADD DUP1 PUSH1 0x40 MSTORE POP DUP2 ADD SWAP1 PUSH2 0x1322 SWAP2 SWAP1 PUSH2 0x1A45 JUMP JUMPDEST POP PUSH1 0x17 SLOAD PUSH1 0x40 MLOAD PUSH4 0x70A08231 PUSH1 0xE0 SHL DUP2 MSTORE DUP3 SWAP2 PUSH1 0x1 PUSH1 0x1 PUSH1 0xA0 SHL SUB AND SWAP1 PUSH4 0x70A08231 SWAP1 PUSH2 0x1353 SWAP1 ADDRESS SWAP1 PUSH1 0x4 ADD PUSH2 0x1CDC JUMP JUMPDEST PUSH1 0x20 PUSH1 0x40 MLOAD DUP1 DUP4 SUB DUP2 DUP7 DUP1 EXTCODESIZE ISZERO DUP1 ISZERO PUSH2 0x136B JUMPI PUSH1 0x0 DUP1 REVERT JUMPDEST POP GAS STATICCALL ISZERO DUP1 ISZERO PUSH2 0x137F JUMPI RETURNDATASIZE PUSH1 0x0 DUP1 RETURNDATACOPY RETURNDATASIZE PUSH1 0x0 REVERT JUMPDEST POP POP POP POP PUSH1 0x40 MLOAD RETURNDATASIZE PUSH1 0x1F NOT PUSH1 0x1F DUP3 ADD AND DUP3 ADD DUP1 PUSH1 0x40 MSTORE POP DUP2 ADD SWAP1 PUSH2 0x13A3 SWAP2 SWAP1 PUSH2 0x1BDA JUMP JUMPDEST EQ PUSH2 0x13C0 JUMPI PUSH1 0x40 MLOAD PUSH3 0x461BCD PUSH1 0xE5 SHL DUP2 MSTORE PUSH1 0x4 ADD PUSH2 0x54E SWAP1 PUSH2 0x1F4E JUMP JUMPDEST PUSH1 0x0 PUSH2 0x13E1 PUSH3 0xF4240 PUSH2 0x13DB DUP5 PUSH8 0xDE0B6B3A7640000 PUSH2 0x15D3 JUMP JUMPDEST SWAP1 PUSH2 0x160D JUMP JUMPDEST PUSH1 0x1A SLOAD PUSH1 0x40 MLOAD PUSH4 0x45977D03 PUSH1 0xE0 SHL DUP2 MSTORE SWAP2 SWAP3 POP PUSH1 0x1 PUSH1 0x1 PUSH1 0xA0 SHL SUB AND SWAP1 PUSH4 0x45977D03 SWAP1 PUSH2 0x1412 SWAP1 DUP5 SWAP1 PUSH1 0x4 ADD PUSH2 0x1C9C JUMP JUMPDEST PUSH1 0x0 PUSH1 0x40 MLOAD DUP1 DUP4 SUB DUP2 PUSH1 0x0 DUP8 DUP1 EXTCODESIZE ISZERO DUP1 ISZERO PUSH2 0x142C JUMPI PUSH1 0x0 DUP1 REVERT JUMPDEST POP GAS CALL ISZERO DUP1 ISZERO PUSH2 0x1440 JUMPI RETURNDATASIZE PUSH1 0x0 DUP1 RETURNDATACOPY RETURNDATASIZE PUSH1 0x0 REVERT JUMPDEST POP POP PUSH1 0x1A SLOAD PUSH1 0x18 SLOAD PUSH1 0x40 MLOAD PUSH4 0xA9059CBB PUSH1 0xE0 SHL DUP2 MSTORE PUSH1 0x1 PUSH1 0x1 PUSH1 0xA0 SHL SUB SWAP3 DUP4 AND SWAP5 POP PUSH4 0xA9059CBB SWAP4 POP PUSH2 0x147B SWAP3 SWAP1 SWAP2 AND SWAP1 DUP6 SWAP1 PUSH1 0x4 ADD PUSH2 0x1D30 JUMP JUMPDEST PUSH1 0x20 PUSH1 0x40 MLOAD DUP1 DUP4 SUB DUP2 PUSH1 0x0 DUP8 DUP1 EXTCODESIZE ISZERO DUP1 ISZERO PUSH2 0x1495 JUMPI PUSH1 0x0 DUP1 REVERT JUMPDEST POP GAS CALL ISZERO DUP1 ISZERO PUSH2 0x14A9 JUMPI RETURNDATASIZE PUSH1 0x0 DUP1 RETURNDATACOPY RETURNDATASIZE PUSH1 0x0 REVERT JUMPDEST POP POP POP POP PUSH1 0x40 MLOAD RETURNDATASIZE PUSH1 0x1F NOT PUSH1 0x1F DUP3 ADD AND DUP3 ADD DUP1 PUSH1 0x40 MSTORE POP DUP2 ADD SWAP1 PUSH2 0x14CD SWAP2 SWAP1 PUSH2 0x1A45 JUMP JUMPDEST POP POP POP JUMP JUMPDEST PUSH1 0x0 PUSH2 0x9F9 DUP4 PUSH1 0x1 PUSH1 0x1 PUSH1 0xA0 SHL SUB DUP5 AND PUSH2 0x163F JUMP JUMPDEST DUP2 SLOAD PUSH1 0x0 SWAP1 DUP3 LT PUSH2 0x150A JUMPI PUSH1 0x40 MLOAD PUSH3 0x461BCD PUSH1 0xE5 SHL DUP2 MSTORE PUSH1 0x4 ADD PUSH2 0x54E SWAP1 PUSH2 0x1E09 JUMP JUMPDEST DUP3 PUSH1 0x0 ADD DUP3 DUP2 SLOAD DUP2 LT PUSH2 0x1519 JUMPI INVALID JUMPDEST SWAP1 PUSH1 0x0 MSTORE PUSH1 0x20 PUSH1 0x0 KECCAK256 ADD SLOAD SWAP1 POP SWAP3 SWAP2 POP POP JUMP JUMPDEST PUSH1 0x0 SWAP1 DUP2 MSTORE PUSH1 0x1 SWAP2 SWAP1 SWAP2 ADD PUSH1 0x20 MSTORE PUSH1 0x40 SWAP1 KECCAK256 SLOAD ISZERO ISZERO SWAP1 JUMP JUMPDEST PUSH1 0x60 PUSH2 0x1599 DUP3 PUSH1 0x40 MLOAD DUP1 PUSH1 0x40 ADD PUSH1 0x40 MSTORE DUP1 PUSH1 0x20 DUP2 MSTORE PUSH1 0x20 ADD PUSH32 0x5361666545524332303A206C6F772D6C6576656C2063616C6C206661696C6564 DUP2 MSTORE POP DUP6 PUSH1 0x1 PUSH1 0x1 PUSH1 0xA0 SHL SUB AND PUSH2 0x1705 SWAP1 SWAP3 SWAP2 SWAP1 PUSH4 0xFFFFFFFF AND JUMP JUMPDEST DUP1 MLOAD SWAP1 SWAP2 POP ISZERO PUSH2 0x14CD JUMPI DUP1 DUP1 PUSH1 0x20 ADD SWAP1 MLOAD DUP2 ADD SWAP1 PUSH2 0x15B7 SWAP2 SWAP1 PUSH2 0x1A45 JUMP JUMPDEST PUSH2 0x14CD JUMPI PUSH1 0x40 MLOAD PUSH3 0x461BCD PUSH1 0xE5 SHL DUP2 MSTORE PUSH1 0x4 ADD PUSH2 0x54E SWAP1 PUSH2 0x2109 JUMP JUMPDEST PUSH1 0x0 DUP3 PUSH2 0x15E2 JUMPI POP PUSH1 0x0 PUSH2 0x9FC JUMP JUMPDEST DUP3 DUP3 MUL DUP3 DUP5 DUP3 DUP2 PUSH2 0x15EF JUMPI INVALID JUMPDEST DIV EQ PUSH2 0x9F9 JUMPI PUSH1 0x40 MLOAD PUSH3 0x461BCD PUSH1 0xE5 SHL DUP2 MSTORE PUSH1 0x4 ADD PUSH2 0x54E SWAP1 PUSH2 0x202A JUMP JUMPDEST PUSH1 0x0 DUP1 DUP3 GT PUSH2 0x162E JUMPI PUSH1 0x40 MLOAD PUSH3 0x461BCD PUSH1 0xE5 SHL DUP2 MSTORE PUSH1 0x4 ADD PUSH2 0x54E SWAP1 PUSH2 0x1F73 JUMP JUMPDEST DUP2 DUP4 DUP2 PUSH2 0x1637 JUMPI INVALID JUMPDEST DIV SWAP4 SWAP3 POP POP POP JUMP JUMPDEST PUSH1 0x0 DUP2 DUP2 MSTORE PUSH1 0x1 DUP4 ADD PUSH1 0x20 MSTORE PUSH1 0x40 DUP2 KECCAK256 SLOAD DUP1 ISZERO PUSH2 0x16FB JUMPI DUP4 SLOAD PUSH1 0x0 NOT DUP1 DUP4 ADD SWAP2 SWAP1 DUP2 ADD SWAP1 PUSH1 0x0 SWAP1 DUP8 SWAP1 DUP4 SWAP1 DUP2 LT PUSH2 0x1672 JUMPI INVALID JUMPDEST SWAP1 PUSH1 0x0 MSTORE PUSH1 0x20 PUSH1 0x0 KECCAK256 ADD SLOAD SWAP1 POP DUP1 DUP8 PUSH1 0x0 ADD DUP5 DUP2 SLOAD DUP2 LT PUSH2 0x168F JUMPI INVALID JUMPDEST PUSH1 0x0 SWAP2 DUP3 MSTORE PUSH1 0x20 DUP1 DUP4 KECCAK256 SWAP1 SWAP2 ADD SWAP3 SWAP1 SWAP3 SSTORE DUP3 DUP2 MSTORE PUSH1 0x1 DUP10 DUP2 ADD SWAP1 SWAP3 MSTORE PUSH1 0x40 SWAP1 KECCAK256 SWAP1 DUP5 ADD SWAP1 SSTORE DUP7 SLOAD DUP8 SWAP1 DUP1 PUSH2 0x16BF JUMPI INVALID JUMPDEST PUSH1 0x1 SWAP1 SUB DUP2 DUP2 SWAP1 PUSH1 0x0 MSTORE PUSH1 0x20 PUSH1 0x0 KECCAK256 ADD PUSH1 0x0 SWAP1 SSTORE SWAP1 SSTORE DUP7 PUSH1 0x1 ADD PUSH1 0x0 DUP8 DUP2 MSTORE PUSH1 0x20 ADD SWAP1 DUP2 MSTORE PUSH1 0x20 ADD PUSH1 0x0 KECCAK256 PUSH1 0x0 SWAP1 SSTORE PUSH1 0x1 SWAP5 POP POP POP POP POP PUSH2 0x9FC JUMP JUMPDEST PUSH1 0x0 SWAP2 POP POP PUSH2 0x9FC JUMP JUMPDEST PUSH1 0x60 PUSH2 0x1714 DUP5 DUP5 PUSH1 0x0 DUP6 PUSH2 0x171E JUMP JUMPDEST SWAP1 POP JUMPDEST SWAP4 SWAP3 POP POP POP JUMP JUMPDEST PUSH1 0x60 DUP3 SELFBALANCE LT ISZERO PUSH2 0x1740 JUMPI PUSH1 0x40 MLOAD PUSH3 0x461BCD PUSH1 0xE5 SHL DUP2 MSTORE PUSH1 0x4 ADD PUSH2 0x54E SWAP1 PUSH2 0x1F08 JUMP JUMPDEST PUSH2 0x1749 DUP6 PUSH2 0x17DF JUMP JUMPDEST PUSH2 0x1765 JUMPI PUSH1 0x40 MLOAD PUSH3 0x461BCD PUSH1 0xE5 SHL DUP2 MSTORE PUSH1 0x4 ADD PUSH2 0x54E SWAP1 PUSH2 0x20D2 JUMP JUMPDEST PUSH1 0x0 PUSH1 0x60 DUP7 PUSH1 0x1 PUSH1 0x1 PUSH1 0xA0 SHL SUB AND DUP6 DUP8 PUSH1 0x40 MLOAD PUSH2 0x1782 SWAP2 SWAP1 PUSH2 0x1CA5 JUMP JUMPDEST PUSH1 0x0 PUSH1 0x40 MLOAD DUP1 DUP4 SUB DUP2 DUP6 DUP8 GAS CALL SWAP3 POP POP POP RETURNDATASIZE DUP1 PUSH1 0x0 DUP2 EQ PUSH2 0x17BF JUMPI PUSH1 0x40 MLOAD SWAP2 POP PUSH1 0x1F NOT PUSH1 0x3F RETURNDATASIZE ADD AND DUP3 ADD PUSH1 0x40 MSTORE RETURNDATASIZE DUP3 MSTORE RETURNDATASIZE PUSH1 0x0 PUSH1 0x20 DUP5 ADD RETURNDATACOPY PUSH2 0x17C4 JUMP JUMPDEST PUSH1 0x60 SWAP2 POP JUMPDEST POP SWAP2 POP SWAP2 POP PUSH2 0x17D4 DUP3 DUP3 DUP7 PUSH2 0x17E5 JUMP JUMPDEST SWAP8 SWAP7 POP POP POP POP POP POP POP JUMP JUMPDEST EXTCODESIZE ISZERO ISZERO SWAP1 JUMP JUMPDEST PUSH1 0x60 DUP4 ISZERO PUSH2 0x17F4 JUMPI POP DUP2 PUSH2 0x1717 JUMP JUMPDEST DUP3 MLOAD ISZERO PUSH2 0x1804 JUMPI DUP3 MLOAD DUP1 DUP5 PUSH1 0x20 ADD REVERT JUMPDEST DUP2 PUSH1 0x40 MLOAD PUSH3 0x461BCD PUSH1 0xE5 SHL DUP2 MSTORE PUSH1 0x4 ADD PUSH2 0x54E SWAP2 SWAP1 PUSH2 0x1DF6 JUMP JUMPDEST PUSH1 0x40 MLOAD DUP1 PUSH1 0xE0 ADD PUSH1 0x40 MSTORE DUP1 PUSH1 0x0 DUP1 NOT AND DUP2 MSTORE PUSH1 0x20 ADD PUSH1 0x0 DUP2 MSTORE PUSH1 0x20 ADD PUSH1 0x0 DUP2 MSTORE PUSH1 0x20 ADD PUSH1 0x0 DUP2 MSTORE PUSH1 0x20 ADD PUSH1 0x0 DUP2 MSTORE PUSH1 0x20 ADD PUSH1 0x0 DUP2 MSTORE PUSH1 0x20 ADD PUSH1 0x0 DUP2 MSTORE POP SWAP1 JUMP JUMPDEST DUP3 DUP1 SLOAD PUSH1 0x1 DUP2 PUSH1 0x1 AND ISZERO PUSH2 0x100 MUL SUB AND PUSH1 0x2 SWAP1 DIV SWAP1 PUSH1 0x0 MSTORE PUSH1 0x20 PUSH1 0x0 KECCAK256 SWAP1 PUSH1 0x1F ADD PUSH1 0x20 SWAP1 DIV DUP2 ADD SWAP3 DUP3 PUSH1 0x1F LT PUSH2 0x189F JUMPI DUP1 MLOAD PUSH1 0xFF NOT AND DUP4 DUP1 ADD OR DUP6 SSTORE PUSH2 0x18CC JUMP JUMPDEST DUP3 DUP1 ADD PUSH1 0x1 ADD DUP6 SSTORE DUP3 ISZERO PUSH2 0x18CC JUMPI SWAP2 DUP3 ADD JUMPDEST DUP3 DUP2 GT ISZERO PUSH2 0x18CC JUMPI DUP3 MLOAD DUP3 SSTORE SWAP2 PUSH1 0x20 ADD SWAP2 SWAP1 PUSH1 0x1 ADD SWAP1 PUSH2 0x18B1 JUMP JUMPDEST POP PUSH2 0x18D8 SWAP3 SWAP2 POP PUSH2 0x1935 JUMP JUMPDEST POP SWAP1 JUMP JUMPDEST DUP3 DUP1 SLOAD DUP3 DUP3 SSTORE SWAP1 PUSH1 0x0 MSTORE PUSH1 0x20 PUSH1 0x0 KECCAK256 SWAP1 DUP2 ADD SWAP3 DUP3 ISZERO PUSH2 0x1929 JUMPI SWAP2 PUSH1 0x20 MUL DUP3 ADD JUMPDEST DUP3 DUP2 GT ISZERO PUSH2 0x1929 JUMPI DUP3 MLOAD DUP1 MLOAD PUSH2 0x1919 SWAP2 DUP5 SWAP2 PUSH1 0x20 SWAP1 SWAP2 ADD SWAP1 PUSH2 0x185E JUMP JUMPDEST POP SWAP2 PUSH1 0x20 ADD SWAP2 SWAP1 PUSH1 0x1 ADD SWAP1 PUSH2 0x18FC JUMP JUMPDEST POP PUSH2 0x18D8 SWAP3 SWAP2 POP PUSH2 0x194A JUMP JUMPDEST JUMPDEST DUP1 DUP3 GT ISZERO PUSH2 0x18D8 JUMPI PUSH1 0x0 DUP2 SSTORE PUSH1 0x1 ADD PUSH2 0x1936 JUMP JUMPDEST DUP1 DUP3 GT ISZERO PUSH2 0x18D8 JUMPI PUSH1 0x0 PUSH2 0x195E DUP3 DUP3 PUSH2 0x1967 JUMP JUMPDEST POP PUSH1 0x1 ADD PUSH2 0x194A JUMP JUMPDEST POP DUP1 SLOAD PUSH1 0x1 DUP2 PUSH1 0x1 AND ISZERO PUSH2 0x100 MUL SUB AND PUSH1 0x2 SWAP1 DIV PUSH1 0x0 DUP3 SSTORE DUP1 PUSH1 0x1F LT PUSH2 0x198D JUMPI POP PUSH2 0x1297 JUMP JUMPDEST PUSH1 0x1F ADD PUSH1 0x20 SWAP1 DIV SWAP1 PUSH1 0x0 MSTORE PUSH1 0x20 PUSH1 0x0 KECCAK256 SWAP1 DUP2 ADD SWAP1 PUSH2 0x1297 SWAP2 SWAP1 PUSH2 0x1935 JUMP JUMPDEST PUSH1 0x0 DUP3 PUSH1 0x1F DUP4 ADD SLT PUSH2 0x19BB JUMPI DUP1 DUP2 REVERT JUMPDEST DUP2 CALLDATALOAD PUSH8 0xFFFFFFFFFFFFFFFF DUP1 DUP3 GT ISZERO PUSH2 0x19D2 JUMPI DUP3 DUP4 REVERT JUMPDEST PUSH1 0x40 MLOAD PUSH1 0x1F DUP4 ADD PUSH1 0x1F NOT AND DUP2 ADD PUSH1 0x20 ADD DUP3 DUP2 GT DUP3 DUP3 LT OR ISZERO PUSH2 0x19F2 JUMPI DUP5 DUP6 REVERT JUMPDEST PUSH1 0x40 MSTORE DUP3 DUP2 MSTORE SWAP3 POP DUP3 DUP5 DUP4 ADD PUSH1 0x20 ADD DUP7 LT ISZERO PUSH2 0x1A0D JUMPI PUSH1 0x0 DUP1 REVERT JUMPDEST DUP3 PUSH1 0x20 DUP7 ADD PUSH1 0x20 DUP4 ADD CALLDATACOPY PUSH1 0x0 PUSH1 0x20 DUP5 DUP4 ADD ADD MSTORE POP POP POP SWAP3 SWAP2 POP POP JUMP JUMPDEST PUSH1 0x0 PUSH1 0x20 DUP3 DUP5 SUB SLT ISZERO PUSH2 0x1A3A JUMPI DUP1 DUP2 REVERT JUMPDEST DUP2 CALLDATALOAD PUSH2 0x9F9 DUP2 PUSH2 0x2237 JUMP JUMPDEST PUSH1 0x0 PUSH1 0x20 DUP3 DUP5 SUB SLT ISZERO PUSH2 0x1A56 JUMPI DUP1 DUP2 REVERT JUMPDEST DUP2 MLOAD DUP1 ISZERO ISZERO DUP2 EQ PUSH2 0x9F9 JUMPI DUP2 DUP3 REVERT JUMPDEST PUSH1 0x0 PUSH1 0x20 DUP3 DUP5 SUB SLT ISZERO PUSH2 0x1A76 JUMPI DUP1 DUP2 REVERT JUMPDEST POP CALLDATALOAD SWAP2 SWAP1 POP JUMP JUMPDEST PUSH1 0x0 DUP1 PUSH1 0x40 DUP4 DUP6 SUB SLT ISZERO PUSH2 0x1A8F JUMPI DUP1 DUP2 REVERT JUMPDEST DUP3 CALLDATALOAD SWAP2 POP PUSH1 0x20 DUP4 ADD CALLDATALOAD PUSH2 0x1AA1 DUP2 PUSH2 0x2237 JUMP JUMPDEST DUP1 SWAP2 POP POP SWAP3 POP SWAP3 SWAP1 POP JUMP JUMPDEST PUSH1 0x0 DUP1 PUSH1 0x40 DUP4 DUP6 SUB SLT ISZERO PUSH2 0x1ABE JUMPI DUP2 DUP3 REVERT JUMPDEST POP POP DUP1 CALLDATALOAD SWAP3 PUSH1 0x20 SWAP1 SWAP2 ADD CALLDATALOAD SWAP2 POP JUMP JUMPDEST PUSH1 0x0 DUP1 PUSH1 0x0 PUSH1 0x60 DUP5 DUP7 SUB SLT ISZERO PUSH2 0x1AE1 JUMPI DUP1 DUP2 REVERT JUMPDEST DUP4 CALLDATALOAD SWAP3 POP PUSH1 0x20 DUP5 ADD CALLDATALOAD SWAP2 POP PUSH1 0x40 DUP5 ADD CALLDATALOAD PUSH8 0xFFFFFFFFFFFFFFFF DUP2 GT ISZERO PUSH2 0x1B05 JUMPI DUP2 DUP3 REVERT JUMPDEST PUSH2 0x1B11 DUP7 DUP3 DUP8 ADD PUSH2 0x19AB JUMP JUMPDEST SWAP2 POP POP SWAP3 POP SWAP3 POP SWAP3 JUMP JUMPDEST PUSH1 0x0 DUP1 PUSH1 0x40 DUP4 DUP6 SUB SLT ISZERO PUSH2 0x1B2D JUMPI DUP2 DUP3 REVERT JUMPDEST DUP3 CALLDATALOAD PUSH8 0xFFFFFFFFFFFFFFFF DUP2 GT ISZERO PUSH2 0x1B43 JUMPI DUP3 DUP4 REVERT JUMPDEST PUSH2 0x1B4F DUP6 DUP3 DUP7 ADD PUSH2 0x19AB JUMP JUMPDEST SWAP3 POP POP PUSH1 0x20 DUP4 ADD CALLDATALOAD PUSH2 0x1AA1 DUP2 PUSH2 0x2237 JUMP JUMPDEST PUSH1 0x0 DUP1 PUSH1 0x0 PUSH1 0x60 DUP5 DUP7 SUB SLT ISZERO PUSH2 0x1B74 JUMPI DUP3 DUP4 REVERT JUMPDEST DUP4 CALLDATALOAD PUSH8 0xFFFFFFFFFFFFFFFF DUP1 DUP3 GT ISZERO PUSH2 0x1B8B JUMPI DUP5 DUP6 REVERT JUMPDEST PUSH2 0x1B97 DUP8 DUP4 DUP9 ADD PUSH2 0x19AB JUMP JUMPDEST SWAP5 POP PUSH1 0x20 DUP7 ADD CALLDATALOAD SWAP2 POP DUP1 DUP3 GT ISZERO PUSH2 0x1BAC JUMPI DUP4 DUP5 REVERT JUMPDEST PUSH2 0x1BB8 DUP8 DUP4 DUP9 ADD PUSH2 0x19AB JUMP JUMPDEST SWAP4 POP PUSH1 0x40 DUP7 ADD CALLDATALOAD SWAP2 POP DUP1 DUP3 GT ISZERO PUSH2 0x1BCD JUMPI DUP3 DUP4 REVERT JUMPDEST POP PUSH2 0x1B11 DUP7 DUP3 DUP8 ADD PUSH2 0x19AB JUMP JUMPDEST PUSH1 0x0 PUSH1 0x20 DUP3 DUP5 SUB SLT ISZERO PUSH2 0x1BEB JUMPI DUP1 DUP2 REVERT JUMPDEST POP MLOAD SWAP2 SWAP1 POP JUMP JUMPDEST PUSH1 0x0 DUP1 PUSH1 0x0 DUP1 PUSH1 0x0 PUSH1 0xA0 DUP7 DUP9 SUB SLT ISZERO PUSH2 0x1C09 JUMPI DUP1 DUP2 REVERT JUMPDEST POP POP DUP4 CALLDATALOAD SWAP6 PUSH1 0x20 DUP6 ADD CALLDATALOAD SWAP6 POP PUSH1 0x40 DUP6 ADD CALLDATALOAD SWAP5 PUSH1 0x60 DUP2 ADD CALLDATALOAD SWAP5 POP PUSH1 0x80 ADD CALLDATALOAD SWAP3 POP SWAP1 POP JUMP JUMPDEST PUSH1 0x0 DUP2 MLOAD DUP1 DUP5 MSTORE PUSH2 0x1C44 DUP2 PUSH1 0x20 DUP7 ADD PUSH1 0x20 DUP7 ADD PUSH2 0x220B JUMP JUMPDEST PUSH1 0x1F ADD PUSH1 0x1F NOT AND SWAP3 SWAP1 SWAP3 ADD PUSH1 0x20 ADD SWAP3 SWAP2 POP POP JUMP JUMPDEST DUP1 MLOAD DUP3 MSTORE PUSH1 0x20 DUP2 ADD MLOAD PUSH1 0x20 DUP4 ADD MSTORE PUSH1 0x40 DUP2 ADD MLOAD PUSH1 0x40 DUP4 ADD MSTORE PUSH1 0x60 DUP2 ADD MLOAD PUSH1 0x60 DUP4 ADD MSTORE PUSH1 0x80 DUP2 ADD MLOAD PUSH1 0x80 DUP4 ADD MSTORE PUSH1 0xA0 DUP2 ADD MLOAD PUSH1 0xA0 DUP4 ADD MSTORE PUSH1 0xC0 DUP2 ADD MLOAD PUSH1 0xC0 DUP4 ADD MSTORE POP POP JUMP JUMPDEST SWAP1 DUP2 MSTORE PUSH1 0x20 ADD SWAP1 JUMP JUMPDEST PUSH1 0x0 DUP3 MLOAD PUSH2 0x1CB7 DUP2 DUP5 PUSH1 0x20 DUP8 ADD PUSH2 0x220B JUMP JUMPDEST SWAP2 SWAP1 SWAP2 ADD SWAP3 SWAP2 POP POP JUMP JUMPDEST SWAP4 DUP5 MSTORE PUSH1 0x20 DUP5 ADD SWAP3 SWAP1 SWAP3 MSTORE PUSH1 0x40 DUP4 ADD MSTORE PUSH1 0x60 DUP3 ADD MSTORE PUSH1 0x80 ADD SWAP1 JUMP JUMPDEST PUSH1 0x1 PUSH1 0x1 PUSH1 0xA0 SHL SUB SWAP2 SWAP1 SWAP2 AND DUP2 MSTORE PUSH1 0x20 ADD SWAP1 JUMP JUMPDEST PUSH1 0x1 PUSH1 0x1 PUSH1 0xA0 SHL SUB DUP5 AND DUP2 MSTORE PUSH1 0x60 PUSH1 0x20 DUP3 ADD DUP2 SWAP1 MSTORE PUSH1 0x0 SWAP1 PUSH2 0x1D14 SWAP1 DUP4 ADD DUP6 PUSH2 0x1C2C JUMP JUMPDEST DUP3 DUP2 SUB PUSH1 0x40 DUP5 ADD MSTORE PUSH2 0x1D26 DUP2 DUP6 PUSH2 0x1C2C JUMP JUMPDEST SWAP7 SWAP6 POP POP POP POP POP POP JUMP JUMPDEST PUSH1 0x1 PUSH1 0x1 PUSH1 0xA0 SHL SUB SWAP3 SWAP1 SWAP3 AND DUP3 MSTORE PUSH1 0x20 DUP3 ADD MSTORE PUSH1 0x40 ADD SWAP1 JUMP JUMPDEST PUSH1 0x0 PUSH1 0x1 DUP1 PUSH1 0xA0 SHL SUB DUP6 AND DUP3 MSTORE DUP4 PUSH1 0x20 DUP4 ADD MSTORE PUSH1 0x60 PUSH1 0x40 DUP4 ADD MSTORE PUSH2 0x1D70 PUSH1 0x60 DUP4 ADD DUP5 PUSH2 0x1C2C JUMP JUMPDEST SWAP6 SWAP5 POP POP POP POP POP JUMP JUMPDEST PUSH1 0x1 PUSH1 0x1 PUSH1 0xA0 SHL SUB SWAP4 DUP5 AND DUP2 MSTORE SWAP2 SWAP1 SWAP3 AND PUSH1 0x20 DUP3 ADD MSTORE PUSH1 0x40 DUP2 ADD SWAP2 SWAP1 SWAP2 MSTORE PUSH1 0x60 ADD SWAP1 JUMP JUMPDEST PUSH1 0x20 DUP1 DUP3 MSTORE DUP3 MLOAD DUP3 DUP3 ADD DUP2 SWAP1 MSTORE PUSH1 0x0 SWAP2 SWAP1 DUP5 DUP3 ADD SWAP1 PUSH1 0x40 DUP6 ADD SWAP1 DUP5 JUMPDEST DUP2 DUP2 LT ISZERO PUSH2 0x1DDF JUMPI PUSH2 0x1DCC DUP4 DUP6 MLOAD PUSH2 0x1C58 JUMP JUMPDEST SWAP3 DUP5 ADD SWAP3 PUSH1 0xE0 SWAP3 SWAP1 SWAP3 ADD SWAP2 PUSH1 0x1 ADD PUSH2 0x1DB9 JUMP JUMPDEST POP SWAP1 SWAP7 SWAP6 POP POP POP POP POP POP JUMP JUMPDEST SWAP1 ISZERO ISZERO DUP2 MSTORE PUSH1 0x20 ADD SWAP1 JUMP JUMPDEST PUSH1 0x0 PUSH1 0x20 DUP3 MSTORE PUSH2 0x9F9 PUSH1 0x20 DUP4 ADD DUP5 PUSH2 0x1C2C JUMP JUMPDEST PUSH1 0x20 DUP1 DUP3 MSTORE PUSH1 0x22 SWAP1 DUP3 ADD MSTORE PUSH32 0x456E756D657261626C655365743A20696E646578206F7574206F6620626F756E PUSH1 0x40 DUP3 ADD MSTORE PUSH2 0x6473 PUSH1 0xF0 SHL PUSH1 0x60 DUP3 ADD MSTORE PUSH1 0x80 ADD SWAP1 JUMP JUMPDEST PUSH1 0x20 DUP1 DUP3 MSTORE PUSH1 0x2F SWAP1 DUP3 ADD MSTORE PUSH32 0x416363657373436F6E74726F6C3A2073656E646572206D75737420626520616E PUSH1 0x40 DUP3 ADD MSTORE PUSH15 0x818591B5A5B881D1BC819DC985B9D PUSH1 0x8A SHL PUSH1 0x60 DUP3 ADD MSTORE PUSH1 0x80 ADD SWAP1 JUMP JUMPDEST PUSH1 0x20 DUP1 DUP3 MSTORE PUSH1 0x1B SWAP1 DUP3 ADD MSTORE PUSH32 0x5061796D656E742074797065206E6F74207265636F676E697A65640000000000 PUSH1 0x40 DUP3 ADD MSTORE PUSH1 0x60 ADD SWAP1 JUMP JUMPDEST PUSH1 0x20 DUP1 DUP3 MSTORE PUSH1 0x1F SWAP1 DUP3 ADD MSTORE PUSH32 0x596F75206E65656420746F206265207265676973746572656420666972737400 PUSH1 0x40 DUP3 ADD MSTORE PUSH1 0x60 ADD SWAP1 JUMP JUMPDEST PUSH1 0x20 DUP1 DUP3 MSTORE PUSH1 0x26 SWAP1 DUP3 ADD MSTORE PUSH32 0x416464726573733A20696E73756666696369656E742062616C616E636520666F PUSH1 0x40 DUP3 ADD MSTORE PUSH6 0x1C8818D85B1B PUSH1 0xD2 SHL PUSH1 0x60 DUP3 ADD MSTORE PUSH1 0x80 ADD SWAP1 JUMP JUMPDEST PUSH1 0x20 DUP1 DUP3 MSTORE PUSH1 0xB SWAP1 DUP3 ADD MSTORE PUSH11 0x1B5A5B9D0819985A5B1959 PUSH1 0xAA SHL PUSH1 0x40 DUP3 ADD MSTORE PUSH1 0x60 ADD SWAP1 JUMP JUMPDEST PUSH1 0x20 DUP1 DUP3 MSTORE PUSH1 0x1A SWAP1 DUP3 ADD MSTORE PUSH32 0x536166654D6174683A206469766973696F6E206279207A65726F000000000000 PUSH1 0x40 DUP3 ADD MSTORE PUSH1 0x60 ADD SWAP1 JUMP JUMPDEST PUSH1 0x20 DUP1 DUP3 MSTORE PUSH1 0x30 SWAP1 DUP3 ADD MSTORE PUSH32 0x416363657373436F6E74726F6C3A2073656E646572206D75737420626520616E PUSH1 0x40 DUP3 ADD MSTORE PUSH16 0x2061646D696E20746F207265766F6B65 PUSH1 0x80 SHL PUSH1 0x60 DUP3 ADD MSTORE PUSH1 0x80 ADD SWAP1 JUMP JUMPDEST PUSH1 0x20 DUP1 DUP3 MSTORE PUSH1 0x16 SWAP1 DUP3 ADD MSTORE PUSH22 0x24B73B30B634B21031BAB93932B731BC9031B7B23297 PUSH1 0x51 SHL PUSH1 0x40 DUP3 ADD MSTORE PUSH1 0x60 ADD SWAP1 JUMP JUMPDEST PUSH1 0x20 DUP1 DUP3 MSTORE PUSH1 0x21 SWAP1 DUP3 ADD MSTORE PUSH32 0x536166654D6174683A206D756C7469706C69636174696F6E206F766572666C6F PUSH1 0x40 DUP3 ADD MSTORE PUSH1 0x77 PUSH1 0xF8 SHL PUSH1 0x60 DUP3 ADD MSTORE PUSH1 0x80 ADD SWAP1 JUMP JUMPDEST PUSH1 0x20 DUP1 DUP3 MSTORE PUSH1 0x17 SWAP1 DUP3 ADD MSTORE PUSH32 0x5573657220616C72656164792072656769737465726564000000000000000000 PUSH1 0x40 DUP3 ADD MSTORE PUSH1 0x60 ADD SWAP1 JUMP JUMPDEST PUSH1 0x20 DUP1 DUP3 MSTORE PUSH1 0x16 SWAP1 DUP3 ADD MSTORE PUSH22 0x21B0B63632B91034B9903737BA1030B71030B236B4B7 PUSH1 0x51 SHL PUSH1 0x40 DUP3 ADD MSTORE PUSH1 0x60 ADD SWAP1 JUMP JUMPDEST PUSH1 0x20 DUP1 DUP3 MSTORE PUSH1 0x1D SWAP1 DUP3 ADD MSTORE PUSH32 0x416464726573733A2063616C6C20746F206E6F6E2D636F6E7472616374000000 PUSH1 0x40 DUP3 ADD MSTORE PUSH1 0x60 ADD SWAP1 JUMP JUMPDEST PUSH1 0x20 DUP1 DUP3 MSTORE PUSH1 0x2A SWAP1 DUP3 ADD MSTORE PUSH32 0x5361666545524332303A204552433230206F7065726174696F6E20646964206E PUSH1 0x40 DUP3 ADD MSTORE PUSH10 0x1BDD081CDD58D8D95959 PUSH1 0xB2 SHL PUSH1 0x60 DUP3 ADD MSTORE PUSH1 0x80 ADD SWAP1 JUMP JUMPDEST PUSH1 0x20 DUP1 DUP3 MSTORE PUSH1 0x2F SWAP1 DUP3 ADD MSTORE PUSH32 0x416363657373436F6E74726F6C3A2063616E206F6E6C792072656E6F756E6365 PUSH1 0x40 DUP3 ADD MSTORE PUSH15 0x103937B632B9903337B91039B2B633 PUSH1 0x89 SHL PUSH1 0x60 DUP3 ADD MSTORE PUSH1 0x80 ADD SWAP1 JUMP JUMPDEST PUSH1 0xE0 DUP2 ADD PUSH2 0x9FC DUP3 DUP5 PUSH2 0x1C58 JUMP JUMPDEST SWAP8 DUP9 MSTORE PUSH1 0x1 PUSH1 0x1 PUSH1 0xA0 SHL SUB SWAP7 DUP8 AND PUSH1 0x20 DUP10 ADD MSTORE SWAP5 SWAP1 SWAP6 AND PUSH1 0x40 DUP8 ADD MSTORE PUSH1 0x60 DUP7 ADD SWAP3 SWAP1 SWAP3 MSTORE PUSH1 0x80 DUP6 ADD MSTORE PUSH1 0xA0 DUP5 ADD MSTORE PUSH1 0xC0 DUP4 ADD SWAP2 SWAP1 SWAP2 MSTORE PUSH1 0xE0 DUP3 ADD MSTORE PUSH2 0x100 ADD SWAP1 JUMP JUMPDEST PUSH1 0x0 DUP4 DUP3 MSTORE PUSH1 0x40 PUSH1 0x20 DUP4 ADD MSTORE PUSH2 0x1714 PUSH1 0x40 DUP4 ADD DUP5 PUSH2 0x1C2C JUMP JUMPDEST PUSH1 0x0 JUMPDEST DUP4 DUP2 LT ISZERO PUSH2 0x2226 JUMPI DUP2 DUP2 ADD MLOAD DUP4 DUP3 ADD MSTORE PUSH1 0x20 ADD PUSH2 0x220E JUMP JUMPDEST DUP4 DUP2 GT ISZERO PUSH2 0x11ED JUMPI POP POP PUSH1 0x0 SWAP2 ADD MSTORE JUMP JUMPDEST PUSH1 0x1 PUSH1 0x1 PUSH1 0xA0 SHL SUB DUP2 AND DUP2 EQ PUSH2 0x1297 JUMPI PUSH1 0x0 DUP1 REVERT INVALID LOG4 SWAP9 SMOD KECCAK256 0x5C 0xE4 0xD3 SSTORE MULMOD 0x2E CREATE2 0xA8 LOG1 DUP16 JUMP 0xE8 SWAP2 EXTCODECOPY DELEGATECALL LOG2 ADD 0xFB 0xE2 DUP8 DUP3 JUMPDEST MULMOD JUMP SWAP4 0xC2 OR PUSH22 0xA264697066735822122007A1282EC9D653B5F5F0C9EA 0x1F SSTORE SWAP7 CODESIZE PUSH4 0xBCA67731 LOG2 PUSH2 0xA148 POP 0xAE GASPRICE 0x2E PUSH3 0x3A2F64 PUSH20 0x6F6C634300070100330000000000000000000000 ",
  "sha1": "241d0579434f4b6fa0e61e4d67c1c66d2a3ba7c4",
  "source": "// SPDX-License-Identifier: unlicensed\npragma solidity >=0.6.6;\npragma experimental ABIEncoderV2;\n\nimport \"@openzeppelin/contracts/token/ERC20/IERC20.sol\";\nimport \"@openzeppelin/contracts/token/ERC20/SafeERC20.sol\";\nimport \"@openzeppelin/contracts/access/Ownable.sol\";\nimport \"@openzeppelin/contracts/utils/ReentrancyGuard.sol\";\nimport \"@openzeppelin/contracts/proxy/Initializable.sol\";\nimport \"@openzeppelin/contracts/access/AccessControl.sol\";\nimport \"@chainlink/contracts/src/v0.6/ChainlinkClient.sol\";\nimport \"@openzeppelin/contracts/utils/Counters.sol\";\n\nimport {\n    ISuperToken\n} from \"@superfluid-finance/ethereum-contracts/contracts/interfaces/superfluid/ISuperfluid.sol\";//\"@superfluid-finance/ethereum-monorepo/packages/ethereum-contracts/contracts/interfaces/superfluid/ISuperfluid.sol\";\n\nimport \"./TennerrController.sol\";\nimport \"./TennerrEscrow.sol\";\nimport \"./TennerrFactory.sol\";\nimport \"./TennerrStreamer.sol\";\n\n\ncontract Tennerr is AccessControl, ReentrancyGuard, ChainlinkClient {\n  using SafeERC20 for IERC20;\n  using SafeMath for uint;\n  using Counters for Counters.Counter;\n\n  // Create a new role identifier for the admin role\n  bytes32 public constant ADMIN_ROLE = keccak256(\"ADMIN_ROLE\");\n\n  // OZ counter\n  Counters.Counter private sellerIdTracker;\n\n  struct Seller {\n      uint _id;\n      string name;\n      string area;\n      string[] socialHandles;\n      uint jobsNumber;\n      uint jobsVolume;\n      uint reputationScore;\n      string reputationLevel;\n  }\n  /* Quote parameters\n  payment type could be something like:\n    0 - all upfront\n    1 - 50% downpayment\n    2 - superfluid\n    3 - custom etc */\n  struct Quote {\n      bytes32 jobId;\n      uint sellerId;\n      uint priceUsd;\n      uint paymentType;\n      uint nOfRevisions;\n      uint jobLength;\n      uint flowRate;\n  }\n\n  // tracks the amount spent on the platform\n  mapping(address => uint256) amountSpentOnPlatformUsd;\n  // authorized currency tickers on platform\n  mapping(string => bool)  _AuthorizedCurrencyTickers;\n  // mapping token name to blockchain addresses\n  mapping(string => address) private _erc20Contracts;\n\n  mapping(address => bool) public isSellerRegistered;\n  // a mapping of sellers\n  mapping(uint256 => Seller) sellers;\n\n  mapping(address => uint) sellerIdByAddress;\n  mapping(uint => address) sellerAddressById;\n  mapping(bytes32 => Quote) quoteByQuoteId;\n\n  mapping(address => Quote[]) quotesBySeller;\n  // address of the tennerr contract\n  address payable private _tennerrEscrowContractAddress;\n  // tennerr contract\n  TennerrEscrow public tennerrEscrow;\n  // address of the tennerr controller\n  address payable private _tennerrControllerContractAddress;\n  // tennerr contract\n  TennerrController public tennerrController;\n  // address of the tennerr factory\n  address payable private _tennerrFactoryContractAddress;\n  // tennerr contract\n  TennerrFactory public tennerrFactory;\n  // address of the tennerr streamer\n  address payable private _tennerrStreamerContractAddress;\n  // tennerr streamer contract\n  TennerrStreamer public tennerrStreamer;\n\n  ISuperToken tennerrFactoryX;\n\n  event SellerRegistered(address sellerAddress, string name, string area);\n\n\n  constructor() public {\n    _AuthorizedCurrencyTickers[\"USDC\"] = true;\n    addSupportedCurrency(\"USDC\", 0x2791Bca1f2de4661ED88A30C99A7a9449Aa84174);//check address checksum\n    _setupRole(ADMIN_ROLE, msg.sender);\n  }\n\n  /* register dev/seller */\n  function registerSeller(string memory name,\n    string memory area,\n    string memory socialHandle)\n    public {\n      require(!isSellerRegistered[msg.sender], 'User already registered');\n      sellerIdTracker.increment();\n      uint sellerId = sellerIdTracker.current();\n      Seller storage seller = sellers[sellerId];\n      seller._id = sellerId;\n      seller.name = name;\n      seller.area = area;\n      seller.socialHandles = [socialHandle];\n      seller.jobsNumber = 0;\n      seller.jobsVolume = 0;\n      seller.reputationScore = 0;\n      seller.reputationLevel = \"Unrated\";\n\n      isSellerRegistered[msg.sender] = true;\n      sellerIdByAddress[msg.sender] = sellerId;\n      sellerAddressById[sellerId] = msg.sender;\n      emit SellerRegistered(msg.sender, name, area);\n  }\n  /* open quote from seller */\n  /* jobLength is how long it takes to fullfill job*/\n  function jobQuoteProposal(uint priceInUsd,\n    uint paymentType,\n    uint nOfRevisions,\n    uint jobLength,\n    uint flowRate)\n    public returns (bytes32){\n      require(isSellerRegistered[msg.sender], 'You need to be registered first');\n      require(paymentType < 4,'Payment type not recognized');\n      uint sellerId = sellerIdByAddress[msg.sender];\n      /* should be very hard to get a duplicate id from this*/\n      bytes32 jobId = keccak256(abi.encodePacked(sellerId, priceInUsd, paymentType, block.timestamp));\n\n      Quote storage quote = quoteByQuoteId[jobId];\n      quote.jobId = jobId;\n      quote.sellerId = sellerId;\n      quote.priceUsd = priceInUsd;\n      quote.paymentType = paymentType;\n      quote.nOfRevisions = nOfRevisions;\n      quote.jobLength = jobLength;\n      quote.flowRate = flowRate;\n\n      quotesBySeller[msg.sender].push(quote);\n      return jobId;\n  }\n\n\n  /* pay seller quote */\n  function paySeller(\n    bytes32 sellerQuoteId,\n    uint amountUsd,\n    string memory currencyTicker) public {\n      /* requires seller to be registered and buyer to have enough money  */\n      /* require(amount > 0, \"Deposit must be more than 0.\"); */\n      require(_erc20Contracts[currencyTicker] != address(0), \"Invalid currency code.\");\n      // Get deposit amount in USD\n      Quote memory quote = quoteByQuoteId[sellerQuoteId];\n      uint priceOfQuote = quote.priceUsd;\n      require(amountUsd >= priceOfQuote);\n      uint sellerId = quote.sellerId;\n      address sellerAddress = sellerAddressById[sellerId];\n      address buyerAddress = msg.sender;\n      uint jobLength = quote.jobLength;\n      uint paymentType = quote.paymentType;\n      uint flowRate = 0;\n      if (paymentType==2){flowRate = quote.flowRate;}\n      _handlePayment(sellerQuoteId,buyerAddress,amountUsd,paymentType,currencyTicker, flowRate);\n      tennerrEscrow.storeOrder(sellerId,buyerAddress, sellerAddress, sellerQuoteId, priceOfQuote, jobLength, paymentType, flowRate);\n      /* if deadline > 2 days deposit in aave and keep count */\n     /* increment work id for seller */\n     /* update work id status to started */\n  }\n\n  function _handlePayment(\n    bytes32 jobId,\n    address buyerAddress,\n    uint amount,\n    uint paymentType,\n    string memory currencyTicker,\n    uint flowRate) internal {\n      address erc20Contract = _erc20Contracts[currencyTicker];\n      // requires approval from user (tx sender, done by web3)\n      IERC20(erc20Contract).safeTransferFrom(buyerAddress, _tennerrControllerContractAddress, amount);\n      uint amountMinted = tennerrFactory.mint(amount,currencyTicker);\n      /* all upfront */\n      if (paymentType == 0)\n      {\n        // deposit all into escrow */\n        _moveToEscrow(amountMinted);\n      }\n      else if (paymentType == 1)\n      /* 50% downpayment */\n      {\n        _moveToEscrow(amountMinted);\n      }\n      else if (paymentType == 2)\n      /* superfluid */\n      {\n        _moveToStreamer(amountMinted);\n        /* This flow rate is equivalent to 1000 tokens per month, for a token with 6 decimals. */\n        // uint flowRate = 385802469135802; // for 18 decimal, tokens per second\n        // uint nSecondsIn30days = 2592000;\n        /* start stream of credit tokens to escrow*/\n        tennerrStreamer.createFlow(_tennerrEscrowContractAddress, flowRate, abi.encodePacked(jobId));\n      }\n  }\n\n  function _moveToEscrow(uint amountMinted) internal {\n      IERC20(tennerrFactory).approve(address(this), amountMinted);\n      IERC20(tennerrFactory).safeTransferFrom(address(this),_tennerrEscrowContractAddress, amountMinted);\n  }\n\n  function _moveToStreamer(uint amountMinted) internal {\n      IERC20(tennerrFactory).approve(address(tennerrFactoryX), amountMinted);\n      require(tennerrFactory.balanceOf(address(this))== amountMinted, 'mint failed');\n      uint transferAmount = amountMinted.mul(10**18).div(10**6);\n      tennerrFactoryX.upgrade(transferAmount);\n      tennerrFactoryX.transfer(_tennerrStreamerContractAddress,transferAmount );\n  }\n\n/* work checkers  */\n  /* get work status from buyer */\n  /* get timeleft for work id for both buyer or seller*/\n\n\n/* seller function */\n  /* cancel order, refund buyer */\n  /* ask seller to modify order (edit amount if charge extra, edit delivery time) */\n/* buyer function  */\n  /* order edit request approve/ deny */\n  /* ask for cancel order */\n  /* ask for update on order status */\n\n\n/* open dispute (https://www.fiverr.com/support/articles/360010452597-Using-the-Resolution-Center)*/\n  /* select reason for dispute\n    other party will have up to 48h to accept or decline\n    if does not reply, buyer gets money back\n    if reply and accepts, propose deal or refund\n    if reply and decline, disputes escaleted to DAO\n   */\n\n/* dispute escalation*/\n  /* chainlink VRF to pick small group of seller/buyers\n    sign NDA(if needed) look at history and vote\n    majority gets the money, fee goes to voters and DAO\n   */\n\n\n // add supported currency for deposits\n function addSupportedCurrency(string memory currencyTicker, address erc20Contract) public {\n   _erc20Contracts[currencyTicker] = erc20Contract;\n }\n\n function setTennerrEscrow(address payable newContract) external {\n   // Check that the calling account has the admin role\n   require(hasRole(ADMIN_ROLE, msg.sender), \"Caller is not an admin\");\n   _tennerrEscrowContractAddress = newContract;\n   tennerrEscrow = TennerrEscrow(_tennerrEscrowContractAddress);\n }\n\n function setTennerrController(address payable newContract) external {\n   // Check that the calling account has the admin role\n   require(hasRole(ADMIN_ROLE, msg.sender), \"Caller is not an admin\");\n   _tennerrControllerContractAddress = newContract;\n   tennerrController = TennerrController(_tennerrControllerContractAddress);\n }\n\n function setTennerrFactory(address payable newContract) external {\n   // Check that the calling account has the admin role\n   require(hasRole(ADMIN_ROLE, msg.sender), \"Caller is not an admin\");\n   _tennerrFactoryContractAddress = newContract;\n   tennerrFactory = TennerrFactory(_tennerrFactoryContractAddress);\n }\n\n function setTennerrFactoryX(address payable newContract) external {\n   // Check that the calling account has the admin role\n   require(hasRole(ADMIN_ROLE, msg.sender), \"Caller is not an admin\");\n   address _tennerrFactoryXContractAddress = newContract;\n  tennerrFactoryX = ISuperToken(_tennerrFactoryXContractAddress);\n }\n\n function setTennerrStreamer(address payable newContract) external {\n   // Check that the calling account has the admin role\n   require(hasRole(ADMIN_ROLE, msg.sender), \"Caller is not an admin\");\n   _tennerrStreamerContractAddress = newContract;\n   tennerrStreamer= TennerrStreamer(_tennerrStreamerContractAddress);\n }\n\n\n\n/* sellers info getters */\n  /* get dev/seller telegram handle */\n  /* get dev/seller discord handle */\n  /* get dev/seller email */\n  /* get dev/seller github or gitlab */\n  /* get dev/seller portfolio link */\n  /* get dev/seller rep level */\n\n  // delete quote function, switch and pop\n\n  function getSellerRegistration(address sellerAddress) public view returns (bool){\n    return isSellerRegistered[sellerAddress];\n  }\n\n  function getSellerId() public view returns (uint){\n    require(isSellerRegistered[msg.sender], 'You need to be registered first');\n    return sellerIdByAddress[msg.sender];\n  }\n\n  function getQuotesByAddress(address seller) public view returns (Quote[] memory){\n    return quotesBySeller[seller];\n  }\n\n  function getQuoteByQuoteId(bytes32 sellerQuoteId) public view returns (Quote memory) {\n    return quoteByQuoteId[sellerQuoteId];\n  }\n\n  // fallback function\n  receive() external payable { }\n\n}\n",
  "sourcePath": "contracts/Tennerr.sol",
  "type": "contract"
}