{
  "abi": [
    {
      "inputs": [
        {
          "internalType": "contract ISuperfluid",
          "name": "host",
          "type": "address"
        },
        {
          "internalType": "contract IConstantFlowAgreementV1",
          "name": "cfa",
          "type": "address"
        },
        {
          "internalType": "contract ISuperToken",
          "name": "acceptedToken",
          "type": "address"
        },
        {
          "internalType": "address",
          "name": "receiver",
          "type": "address"
        }
      ],
      "stateMutability": "nonpayable",
      "type": "constructor"
    },
    {
      "anonymous": false,
      "inputs": [
        {
          "indexed": false,
          "internalType": "address",
          "name": "receiver",
          "type": "address"
        }
      ],
      "name": "ReceiverChanged",
      "type": "event"
    },
    {
      "anonymous": false,
      "inputs": [
        {
          "indexed": true,
          "internalType": "bytes32",
          "name": "role",
          "type": "bytes32"
        },
        {
          "indexed": true,
          "internalType": "bytes32",
          "name": "previousAdminRole",
          "type": "bytes32"
        },
        {
          "indexed": true,
          "internalType": "bytes32",
          "name": "newAdminRole",
          "type": "bytes32"
        }
      ],
      "name": "RoleAdminChanged",
      "type": "event"
    },
    {
      "anonymous": false,
      "inputs": [
        {
          "indexed": true,
          "internalType": "bytes32",
          "name": "role",
          "type": "bytes32"
        },
        {
          "indexed": true,
          "internalType": "address",
          "name": "account",
          "type": "address"
        },
        {
          "indexed": true,
          "internalType": "address",
          "name": "sender",
          "type": "address"
        }
      ],
      "name": "RoleGranted",
      "type": "event"
    },
    {
      "anonymous": false,
      "inputs": [
        {
          "indexed": true,
          "internalType": "bytes32",
          "name": "role",
          "type": "bytes32"
        },
        {
          "indexed": true,
          "internalType": "address",
          "name": "account",
          "type": "address"
        },
        {
          "indexed": true,
          "internalType": "address",
          "name": "sender",
          "type": "address"
        }
      ],
      "name": "RoleRevoked",
      "type": "event"
    },
    {
      "inputs": [],
      "name": "ADMIN_ROLE",
      "outputs": [
        {
          "internalType": "bytes32",
          "name": "",
          "type": "bytes32"
        }
      ],
      "stateMutability": "view",
      "type": "function"
    },
    {
      "inputs": [],
      "name": "DEFAULT_ADMIN_ROLE",
      "outputs": [
        {
          "internalType": "bytes32",
          "name": "",
          "type": "bytes32"
        }
      ],
      "stateMutability": "view",
      "type": "function"
    },
    {
      "inputs": [
        {
          "internalType": "contract ISuperToken",
          "name": "_superToken",
          "type": "address"
        },
        {
          "internalType": "address",
          "name": "_agreementClass",
          "type": "address"
        },
        {
          "internalType": "bytes32",
          "name": "",
          "type": "bytes32"
        },
        {
          "internalType": "bytes",
          "name": "",
          "type": "bytes"
        },
        {
          "internalType": "bytes",
          "name": "",
          "type": "bytes"
        },
        {
          "internalType": "bytes",
          "name": "_ctx",
          "type": "bytes"
        }
      ],
      "name": "afterAgreementCreated",
      "outputs": [
        {
          "internalType": "bytes",
          "name": "newCtx",
          "type": "bytes"
        }
      ],
      "stateMutability": "nonpayable",
      "type": "function"
    },
    {
      "inputs": [
        {
          "internalType": "contract ISuperToken",
          "name": "_superToken",
          "type": "address"
        },
        {
          "internalType": "address",
          "name": "_agreementClass",
          "type": "address"
        },
        {
          "internalType": "bytes32",
          "name": "",
          "type": "bytes32"
        },
        {
          "internalType": "bytes",
          "name": "",
          "type": "bytes"
        },
        {
          "internalType": "bytes",
          "name": "",
          "type": "bytes"
        },
        {
          "internalType": "bytes",
          "name": "_ctx",
          "type": "bytes"
        }
      ],
      "name": "afterAgreementTerminated",
      "outputs": [
        {
          "internalType": "bytes",
          "name": "newCtx",
          "type": "bytes"
        }
      ],
      "stateMutability": "nonpayable",
      "type": "function"
    },
    {
      "inputs": [
        {
          "internalType": "contract ISuperToken",
          "name": "_superToken",
          "type": "address"
        },
        {
          "internalType": "address",
          "name": "_agreementClass",
          "type": "address"
        },
        {
          "internalType": "bytes32",
          "name": "",
          "type": "bytes32"
        },
        {
          "internalType": "bytes",
          "name": "agreementData",
          "type": "bytes"
        },
        {
          "internalType": "bytes",
          "name": "",
          "type": "bytes"
        },
        {
          "internalType": "bytes",
          "name": "_ctx",
          "type": "bytes"
        }
      ],
      "name": "afterAgreementUpdated",
      "outputs": [
        {
          "internalType": "bytes",
          "name": "newCtx",
          "type": "bytes"
        }
      ],
      "stateMutability": "nonpayable",
      "type": "function"
    },
    {
      "inputs": [
        {
          "internalType": "contract ISuperToken",
          "name": "",
          "type": "address"
        },
        {
          "internalType": "address",
          "name": "",
          "type": "address"
        },
        {
          "internalType": "bytes32",
          "name": "",
          "type": "bytes32"
        },
        {
          "internalType": "bytes",
          "name": "",
          "type": "bytes"
        },
        {
          "internalType": "bytes",
          "name": "",
          "type": "bytes"
        }
      ],
      "name": "beforeAgreementCreated",
      "outputs": [
        {
          "internalType": "bytes",
          "name": "",
          "type": "bytes"
        }
      ],
      "stateMutability": "view",
      "type": "function"
    },
    {
      "inputs": [
        {
          "internalType": "contract ISuperToken",
          "name": "",
          "type": "address"
        },
        {
          "internalType": "address",
          "name": "",
          "type": "address"
        },
        {
          "internalType": "bytes32",
          "name": "",
          "type": "bytes32"
        },
        {
          "internalType": "bytes",
          "name": "",
          "type": "bytes"
        },
        {
          "internalType": "bytes",
          "name": "",
          "type": "bytes"
        }
      ],
      "name": "beforeAgreementTerminated",
      "outputs": [
        {
          "internalType": "bytes",
          "name": "",
          "type": "bytes"
        }
      ],
      "stateMutability": "view",
      "type": "function"
    },
    {
      "inputs": [
        {
          "internalType": "contract ISuperToken",
          "name": "",
          "type": "address"
        },
        {
          "internalType": "address",
          "name": "",
          "type": "address"
        },
        {
          "internalType": "bytes32",
          "name": "",
          "type": "bytes32"
        },
        {
          "internalType": "bytes",
          "name": "",
          "type": "bytes"
        },
        {
          "internalType": "bytes",
          "name": "",
          "type": "bytes"
        }
      ],
      "name": "beforeAgreementUpdated",
      "outputs": [
        {
          "internalType": "bytes",
          "name": "",
          "type": "bytes"
        }
      ],
      "stateMutability": "view",
      "type": "function"
    },
    {
      "inputs": [
        {
          "internalType": "address",
          "name": "newReceiver",
          "type": "address"
        },
        {
          "internalType": "uint256",
          "name": "flowRate",
          "type": "uint256"
        },
        {
          "internalType": "bytes",
          "name": "jobId",
          "type": "bytes"
        }
      ],
      "name": "createFlow",
      "outputs": [],
      "stateMutability": "nonpayable",
      "type": "function"
    },
    {
      "inputs": [],
      "name": "currentReceiver",
      "outputs": [
        {
          "internalType": "uint256",
          "name": "startTime",
          "type": "uint256"
        },
        {
          "internalType": "address",
          "name": "receiver",
          "type": "address"
        },
        {
          "internalType": "int96",
          "name": "flowRate",
          "type": "int96"
        }
      ],
      "stateMutability": "view",
      "type": "function"
    },
    {
      "inputs": [
        {
          "internalType": "bytes32",
          "name": "role",
          "type": "bytes32"
        }
      ],
      "name": "getRoleAdmin",
      "outputs": [
        {
          "internalType": "bytes32",
          "name": "",
          "type": "bytes32"
        }
      ],
      "stateMutability": "view",
      "type": "function"
    },
    {
      "inputs": [
        {
          "internalType": "bytes32",
          "name": "role",
          "type": "bytes32"
        },
        {
          "internalType": "uint256",
          "name": "index",
          "type": "uint256"
        }
      ],
      "name": "getRoleMember",
      "outputs": [
        {
          "internalType": "address",
          "name": "",
          "type": "address"
        }
      ],
      "stateMutability": "view",
      "type": "function"
    },
    {
      "inputs": [
        {
          "internalType": "bytes32",
          "name": "role",
          "type": "bytes32"
        }
      ],
      "name": "getRoleMemberCount",
      "outputs": [
        {
          "internalType": "uint256",
          "name": "",
          "type": "uint256"
        }
      ],
      "stateMutability": "view",
      "type": "function"
    },
    {
      "inputs": [
        {
          "internalType": "bytes32",
          "name": "jobId",
          "type": "bytes32"
        }
      ],
      "name": "getStreamData",
      "outputs": [
        {
          "internalType": "uint256[5]",
          "name": "",
          "type": "uint256[5]"
        }
      ],
      "stateMutability": "view",
      "type": "function"
    },
    {
      "inputs": [
        {
          "internalType": "bytes32",
          "name": "role",
          "type": "bytes32"
        },
        {
          "internalType": "address",
          "name": "account",
          "type": "address"
        }
      ],
      "name": "grantRole",
      "outputs": [],
      "stateMutability": "nonpayable",
      "type": "function"
    },
    {
      "inputs": [
        {
          "internalType": "bytes32",
          "name": "role",
          "type": "bytes32"
        },
        {
          "internalType": "address",
          "name": "account",
          "type": "address"
        }
      ],
      "name": "hasRole",
      "outputs": [
        {
          "internalType": "bool",
          "name": "",
          "type": "bool"
        }
      ],
      "stateMutability": "view",
      "type": "function"
    },
    {
      "inputs": [
        {
          "internalType": "bytes32",
          "name": "role",
          "type": "bytes32"
        },
        {
          "internalType": "address",
          "name": "account",
          "type": "address"
        }
      ],
      "name": "renounceRole",
      "outputs": [],
      "stateMutability": "nonpayable",
      "type": "function"
    },
    {
      "inputs": [
        {
          "internalType": "bytes32",
          "name": "role",
          "type": "bytes32"
        },
        {
          "internalType": "address",
          "name": "account",
          "type": "address"
        }
      ],
      "name": "revokeRole",
      "outputs": [],
      "stateMutability": "nonpayable",
      "type": "function"
    },
    {
      "inputs": [
        {
          "internalType": "address payable",
          "name": "newContract",
          "type": "address"
        }
      ],
      "name": "setTennerrEscrow",
      "outputs": [],
      "stateMutability": "nonpayable",
      "type": "function"
    },
    {
      "inputs": [
        {
          "internalType": "bytes32",
          "name": "",
          "type": "bytes32"
        },
        {
          "internalType": "uint256",
          "name": "",
          "type": "uint256"
        }
      ],
      "name": "streamByJobId",
      "outputs": [
        {
          "internalType": "uint256",
          "name": "",
          "type": "uint256"
        }
      ],
      "stateMutability": "view",
      "type": "function"
    },
    {
      "inputs": [],
      "name": "tennerrEscrow",
      "outputs": [
        {
          "internalType": "contract TennerrEscrow",
          "name": "",
          "type": "address"
        }
      ],
      "stateMutability": "view",
      "type": "function"
    },
    {
      "inputs": [],
      "name": "tennerrFactory",
      "outputs": [
        {
          "internalType": "contract TennerrFactory",
          "name": "",
          "type": "address"
        }
      ],
      "stateMutability": "view",
      "type": "function"
    },
    {
      "stateMutability": "payable",
      "type": "receive"
    }
  ],
  "bytecode": "60806040523480156200001157600080fd5b50604051620027a2380380620027a283398101604081905262000034916200025f565b6001600160a01b038416620000665760405162461bcd60e51b81526004016200005d906200037f565b60405180910390fd5b6001600160a01b0383166200008f5760405162461bcd60e51b81526004016200005d9062000348565b6001600160a01b038216620000b85760405162461bcd60e51b81526004016200005d90620002da565b6001600160a01b038116620000e15760405162461bcd60e51b81526004016200005d9062000311565b604051631e51d6a760e11b81526001600160a01b03851690633ca3ad4e906200010f908490600401620002c6565b60206040518083038186803b1580156200012857600080fd5b505afa1580156200013d573d6000803e3d6000fd5b505050506040513d601f19601f8201168201806040525081019062000163919062000236565b15620001835760405162461bcd60e51b81526004016200005d90620003b6565b600180546001600160a01b03199081166001600160a01b038781169190911792839055600280548316878316179055600380548316868316179055600480549092168482161782556040516315a722b960e31b8152641500000001939091169163ad3915c891620001f791859101620003e2565b600060405180830381600087803b1580156200021257600080fd5b505af115801562000227573d6000803e3d6000fd5b50505050505050505062000404565b60006020828403121562000248578081fd5b8151801515811462000258578182fd5b9392505050565b6000806000806080858703121562000275578283fd5b84516200028281620003eb565b60208601519094506200029581620003eb565b6040860151909350620002a881620003eb565b6060860151909250620002bb81620003eb565b939692955090935050565b6001600160a01b0391909116815260200190565b6020808252601d908201527f6163636570746564546f6b656e206973207a65726f2061646472657373000000604082015260600190565b60208082526018908201527f7265636569766572206973207a65726f20616464726573730000000000000000604082015260600190565b60208082526013908201527f636661206973207a65726f206164647265737300000000000000000000000000604082015260600190565b60208082526014908201527f686f7374206973207a65726f2061646472657373000000000000000000000000604082015260600190565b6020808252601290820152710726563656976657220697320616e206170760741b604082015260600190565b90815260200190565b6001600160a01b03811681146200040157600080fd5b50565b61238e80620004146000396000f3fe6080604052600436106101395760003560e01c806360f5bc21116100ab5780639883145e1161006f5780639883145e14610374578063a217fddf14610394578063ae015adc146103a9578063ca15c873146103c9578063d547741f146103e9578063d86ed3e51461014557610140565b806360f5bc21146102c557806375b238fc146102f2578063884d1f40146103075780639010d07c1461032757806391d148541461034757610140565b806336568abe116100fd57806336568abe1461020e5780634dbb40b21461022e5780634eb66fff1461025057806353c11f99146102705780635bd7fa11146102905780635f9e7d77146102a557610140565b8063230dbd2914610145578063248a9ca31461017b57806328d2bf94146101a85780632f2ff15d146101cc57806330d9c915146101ee57610140565b3661014057005b600080fd5b34801561015157600080fd5b50610165610160366004611aa1565b610409565b6040516101729190611de5565b60405180910390f35b34801561018757600080fd5b5061019b6101963660046118e9565b610546565b6040516101729190611dad565b3480156101b457600080fd5b506101bd61055b565b604051610172939291906122a7565b3480156101d857600080fd5b506101ec6101e7366004611919565b61061c565b005b3480156101fa57600080fd5b50610165610209366004611a05565b610664565b34801561021a57600080fd5b506101ec610229366004611919565b61067e565b34801561023a57600080fd5b506102436106c0565b6040516101729190611d5d565b34801561025c57600080fd5b506101ec61026b366004611834565b6106cf565b34801561027c57600080fd5b5061016561028b366004611aa1565b610744565b34801561029c57600080fd5b5061024361088d565b3480156102b157600080fd5b506101656102c0366004611a05565b61089c565b3480156102d157600080fd5b506102e56102e03660046118e9565b6108b6565b6040516101729190611d71565b3480156102fe57600080fd5b5061019b610ab5565b34801561031357600080fd5b50610165610322366004611a05565b610ad9565b34801561033357600080fd5b50610243610342366004611948565b610af3565b34801561035357600080fd5b50610367610362366004611919565b610b14565b6040516101729190611da2565b34801561038057600080fd5b5061019b61038f366004611948565b610b2c565b3480156103a057600080fd5b5061019b610b5a565b3480156103b557600080fd5b506101ec6103c4366004611857565b610b5f565b3480156103d557600080fd5b5061019b6103e43660046118e9565b610c4e565b3480156103f557600080fd5b506101ec610404366004611919565b610c65565b6060898961041682610c9f565b61043b5760405162461bcd60e51b815260040161043290612037565b60405180910390fd5b61044481610cb3565b6104605760405162461bcd60e51b815260040161043290611ff6565b6001546001600160a01b0316331461048a5760405162461bcd60e51b8152600401610432906120c1565b600154604051631fb6491d60e11b81526060916001600160a01b031690633f6c923a906104bd9089908990600401611db6565b60006040518083038186803b1580156104d557600080fd5b505afa1580156104e9573d6000803e3d6000fd5b505050506040513d6000823e601f3d908101601f191682016040526105119190810190611b83565b60a001518060200190518101906105289190611969565b9050610535868683610d4e565b9d9c50505050505050505050505050565b60009081526020819052604090206002015490565b600454600090819081906001600160a01b0316156106175760025460035460048054604051631cd43d1160e31b81526001600160a01b039485169463e6a1e888946105af9490821693309392169101611ea5565b60806040518083038186803b1580156105c757600080fd5b505afa1580156105db573d6000803e3d6000fd5b505050506040513d601f19601f820116820180604052508101906105ff9190611cf5565b50506004549194506001600160a01b03909116925090505b909192565b60008281526020819052604090206002015461063a90610362611104565b6106565760405162461bcd60e51b815260040161043290611fa7565b6106608282611108565b5050565b606060405162461bcd60e51b815260040161043290612209565b610686611104565b6001600160a01b0316816001600160a01b0316146106b65760405162461bcd60e51b815260040161043290612258565b6106608282611171565b6008546001600160a01b031681565b6106f97fa49807205ce4d355092ef5a8a18f56e8913cf4a201fbe287825b095693c2177533610b14565b6107155760405162461bcd60e51b8152600401610432906121d9565b600680546001600160a01b03199081166001600160a01b03938416179182905560058054929093169116179055565b6001546060906001600160a01b031633146107715760405162461bcd60e51b8152600401610432906120c1565b600154604051631fb6491d60e11b81526060916001600160a01b031690633f6c923a906107a49087908790600401611db6565b60006040518083038186803b1580156107bc57600080fd5b505afa1580156107d0573d6000803e3d6000fd5b505050506040513d6000823e601f3d908101601f191682016040526107f89190810190611b83565b60a0015180602001905181019061080f9190611969565b905061081a8b610c9f565b158061082c575061082a8a610cb3565b155b156108715783838080601f0160208091040260200160405190810160405280939291908181526020018383808284376000920191909152509294506108809350505050565b61087c848483610d4e565b9150505b9998505050505050505050565b6005546001600160a01b031681565b606060405162461bcd60e51b81526004016104329061206e565b6108be61168c565b6000828152600960205260408120805460029081106108d957fe5b9060005260206000200154905060006009600085815260200190815260200160002060058154811061090757fe5b9060005260206000200154905060006009600086815260200190815260200160002060038154811061093557fe5b600091825260208220015460025460035460405163e8e7e2d160e01b81529294506001600160a01b039182169263e8e7e2d1926109789216903090600401611e8b565b60206040518083038186803b15801561099057600080fd5b505afa1580156109a4573d6000803e3d6000fd5b505050506040513d601f19601f820116820180604052508101906109c89190611b68565b60025460035460048054604051631cd43d1160e31b81529495506000946001600160a01b039485169463e6a1e88894610a0a9490821693309392169101611ea5565b60806040518083038186803b158015610a2257600080fd5b505afa158015610a36573d6000803e3d6000fd5b505050506040513d601f19601f82011682018060405250810190610a5a9190611cf5565b509092505050818101600b0b6000610a7286426111da565b90506000610a8042876111da565b6040805160a0810182528581529490910260208501528301979097526060820152608081019490945250919350505050919050565b7fa49807205ce4d355092ef5a8a18f56e8913cf4a201fbe287825b095693c2177581565b606060405162461bcd60e51b81526004016104329061218a565b6000828152602081905260408120610b0b9083611202565b90505b92915050565b6000828152602081905260408120610b0b908361120e565b60096020528160005260406000208181548110610b4557fe5b90600052602060002001600091509150505481565b600081565b6001546002546003546040805160008152602081019091526001600160a01b03938416936339255d5b9381169263317e182f60e11b92610baa92909116908990899060448101611f32565b60408051601f198184030181529181526020820180516001600160e01b03166001600160e01b03199485161790525160e085901b9092168252610bf292918690600401611df8565b600060405180830381600087803b158015610c0c57600080fd5b505af1158015610c20573d6000803e3d6000fd5b505050506040513d6000823e601f3d908101601f19168201604052610c489190810190611969565b50505050565b6000818152602081905260408120610b0e90611223565b600082815260208190526040902060020154610c8390610362611104565b6106b65760405162461bcd60e51b81526004016104329061213a565b6003546001600160a01b0390811691161490565b60007fa9214cc96615e0085d3bb077758db69497dc2dce3b2b1e97bc93c3d18d83efd3826001600160a01b0316637730599e6040518163ffffffff1660e01b815260040160206040518083038186803b158015610d0f57600080fd5b505afa158015610d23573d6000803e3d6000fd5b505050506040513d601f19601f82011682018060405250810190610d479190611901565b1492915050565b606083838080601f016020809104026020016040519081016040528093929190818152602001838380828437600092018290525060025460035460405163e8e7e2d160e01b815296975091956001600160a01b03918216955063e8e7e2d19450610dc093509116903090600401611e8b565b60206040518083038186803b158015610dd857600080fd5b505afa158015610dec573d6000803e3d6000fd5b505050506040513d601f19601f82011682018060405250810190610e109190611b68565b60025460035460048054604051631cd43d1160e31b81529495506000946001600160a01b039485169463e6a1e88894610e529490821693309392169101611ea5565b60806040518083038186803b158015610e6a57600080fd5b505afa158015610e7e573d6000803e3d6000fd5b505050506040513d601f19601f82011682018060405250810190610ea29190611cf5565b509092505050818101610eb48561122e565b600b81900b610fb2576001546002546003546004546040805160008152602081019091526001600160a01b0394851694634329d29394811693635a5999e360e11b93610f0c9391831692309291169060448101611ec8565b60408051601f198184030181529181526020820180516001600160e01b03166001600160e01b03199485161790525160e085901b9092168252610f5492918990600401611e38565b600060405180830381600087803b158015610f6e57600080fd5b505af1158015610f82573d6000803e3d6000fd5b505050506040513d6000823e601f3d908101601f19168201604052610faa91908101906119a4565b5093506110fa565b600b82900b1561100a576001546002546003546004546040805160008152602081019091526001600160a01b0394851694634329d293948116936328104d3160e11b93610f0c93918316921690889060448101611efc565b6001546002546003546004546040805160008152602081019091526001600160a01b0394851694634329d2939481169363317e182f60e11b9361105893918316921690889060448101611efc565b60408051601f198184030181529181526020820180516001600160e01b03166001600160e01b03199485161790525160e085901b90921682526110a092918990600401611e38565b600060405180830381600087803b1580156110ba57600080fd5b505af11580156110ce573d6000803e3d6000fd5b505050506040513d6000823e601f3d908101601f191682016040526110f691908101906119a4565b5093505b5050509392505050565b3390565b600082815260208190526040902061112090826112fb565b156106605761112d611104565b6001600160a01b0316816001600160a01b0316837f2f8788117e7eff1d82e926ec794901d17c78024a50270940304540a733656f0d60405160405180910390a45050565b60008281526020819052604090206111899082611310565b1561066057611196611104565b6001600160a01b0316816001600160a01b0316837ff6391f5c32d9c69d2a47ea670b442974b53935d1edc7fd64eb21e047a839171b60405160405180910390a45050565b6000828211156111fc5760405162461bcd60e51b815260040161043290612103565b50900390565b6000610b0b8383611325565b6000610b0b836001600160a01b03841661136a565b6000610b0e82611382565b600061123b826000611386565b90506112456116aa565b60055460405163ebd2d6a760e01b81526001600160a01b039091169063ebd2d6a790611275908590600401611dad565b60e06040518083038186803b15801561128d57600080fd5b505afa1580156112a1573d6000803e3d6000fd5b505050506040513d601f19601f820116820180604052508101906112c59190611c7c565b6040810151606082015160a083015160c0840151939450919290919042906112f18786868686866113cd565b5050505050505050565b6000610b0b836001600160a01b038416611575565b6000610b0b836001600160a01b0384166115bf565b815460009082106113485760405162461bcd60e51b815260040161043290611f65565b82600001828154811061135757fe5b9060005260206000200154905092915050565b60009081526001919091016020526040902054151590565b5490565b60008060005b60208110156113c5578060080285828601815181106113a757fe5b01602001516001600160f81b031916901c919091179060010161138c565b509392505050565b60025460035460405163e8e7e2d160e01b81526000926001600160a01b039081169263e8e7e2d19261140792909116903090600401611e8b565b60206040518083038186803b15801561141f57600080fd5b505afa158015611433573d6000803e3d6000fd5b505050506040513d601f19601f820116820180604052508101906114579190611b68565b60025460035460048054604051631cd43d1160e31b81529495506000946001600160a01b039485169463e6a1e888946114999490821693309392169101611ea5565b60806040518083038186803b1580156114b157600080fd5b505afa1580156114c5573d6000803e3d6000fd5b505050506040513d601f19601f820116820180604052508101906114e99190611cf5565b509092505050818101600b0b600061150185426111da565b9050600061150f42886111da565b9050600081840290506040518060c001604052808581526020018281526020018a815260200189815260200184815260200188815250600960008e81526020019081526020016000209060066115669291906116fc565b50505050505050505050505050565b6000611581838361136a565b6115b757508154600181810184556000848152602080822090930184905584548482528286019093526040902091909155610b0e565b506000610b0e565b6000818152600183016020526040812054801561167b57835460001980830191908101906000908790839081106115f257fe5b906000526020600020015490508087600001848154811061160f57fe5b60009182526020808320909101929092558281526001898101909252604090209084019055865487908061163f57fe5b60019003818190600052602060002001600090559055866001016000878152602001908152602001600020600090556001945050505050610b0e565b6000915050610b0e565b5092915050565b6040518060a001604052806005906020820280368337509192915050565b6040518060e00160405280600081526020016000815260200160006001600160a01b0316815260200160006001600160a01b031681526020016000801916815260200160008152602001600081525090565b828054828255906000526020600020908101928215611737579160200282015b8281111561173757825182559160200191906001019061171c565b50611743929150611747565b5090565b5b808211156117435760008155600101611748565b8051610b0e81612340565b80516001600160e01b031981168114610b0e57600080fd5b60008083601f840112611790578182fd5b50813567ffffffffffffffff8111156117a7578182fd5b6020830191508360208285010111156117bf57600080fd5b9250929050565b600082601f8301126117d6578081fd5b81516117e96117e4826122f0565b6122c9565b915080825283602082850101111561180057600080fd5b611685816020840160208601612314565b8051600b81900b8114610b0e57600080fd5b805160ff81168114610b0e57600080fd5b600060208284031215611845578081fd5b813561185081612340565b9392505050565b60008060006060848603121561186b578182fd5b833561187681612340565b925060208401359150604084013567ffffffffffffffff811115611898578182fd5b8401601f810186136118a8578182fd5b80356118b66117e4826122f0565b8181528760208385010111156118ca578384fd5b8160208401602083013783602083830101528093505050509250925092565b6000602082840312156118fa578081fd5b5035919050565b600060208284031215611912578081fd5b5051919050565b6000806040838503121561192b578182fd5b82359150602083013561193d81612340565b809150509250929050565b6000806040838503121561195a578182fd5b50508035926020909101359150565b60006020828403121561197a578081fd5b815167ffffffffffffffff811115611990578182fd5b61199c848285016117c6565b949350505050565b600080604083850312156119b6578182fd5b825167ffffffffffffffff808211156119cd578384fd5b6119d9868387016117c6565b935060208501519150808211156119ee578283fd5b506119fb858286016117c6565b9150509250929050565b600080600080600080600060a0888a031215611a1f578485fd5b8735611a2a81612340565b96506020880135611a3a81612340565b955060408801359450606088013567ffffffffffffffff80821115611a5d578485fd5b611a698b838c0161177f565b909650945060808a0135915080821115611a81578384fd5b50611a8e8a828b0161177f565b989b979a50959850939692959293505050565b600080600080600080600080600060c08a8c031215611abe578283fd5b8935611ac981612340565b985060208a0135611ad981612340565b975060408a0135965060608a013567ffffffffffffffff80821115611afc578485fd5b611b088d838e0161177f565b909850965060808c0135915080821115611b20578485fd5b611b2c8d838e0161177f565b909650945060a08c0135915080821115611b44578384fd5b50611b518c828d0161177f565b915080935050809150509295985092959850929598565b600060208284031215611b79578081fd5b610b0b8383611811565b600060208284031215611b94578081fd5b815167ffffffffffffffff80821115611bab578283fd5b8184019150610140808387031215611bc1578384fd5b611bca816122c9565b9050611bd68684611823565b8152611be58660208501611823565b602082015260408301516040820152611c01866060850161175c565b6060820152611c138660808501611767565b608082015260a083015182811115611c29578485fd5b611c35878286016117c6565b60a08301525060c083015160c082015260e083015160e0820152610100915081830151828201526101209150611c6d8683850161175c565b91810191909152949350505050565b600060e08284031215611c8d578081fd5b611c9760e06122c9565b82518152602083015160208201526040830151611cb381612340565b60408201526060830151611cc681612340565b806060830152506080830151608082015260a083015160a082015260c083015160c08201528091505092915050565b60008060008060808587031215611d0a578182fd5b84519350611d1b8660208701611811565b6040860151606090960151949790965092505050565b60008151808452611d49816020860160208601612314565b601f01601f19169290920160200192915050565b6001600160a01b0391909116815260200190565b60a08101818360005b6005811015611d99578151835260209283019290910190600101611d7a565b50505092915050565b901515815260200190565b90815260200190565b60006020825282602083015282846040840137818301604090810191909152601f909201601f19160101919050565b600060208252610b0b6020830184611d31565b6001600160a01b0384168152606060208201819052600090611e1c90830185611d31565b8281036040840152611e2e8185611d31565b9695505050505050565b6001600160a01b0384168152608060208201819052600090611e5c90830185611d31565b8281038060408501526002825261060f60f31b602083015260408101606085015250611e2e6040820185611d31565b6001600160a01b0392831681529116602082015260400190565b6001600160a01b0393841681529183166020830152909116604082015260600190565b6001600160a01b038581168252848116602083015283166040820152608060608201819052600090611e2e90830184611d31565b6001600160a01b03858116825284166020820152600b83900b6040820152608060608201819052600090611e2e90830184611d31565b6001600160a01b0385811682528416602082015260408101839052608060608201819052600090611e2e90830184611d31565b60208082526022908201527f456e756d657261626c655365743a20696e646578206f7574206f6620626f756e604082015261647360f01b606082015260800190565b6020808252602f908201527f416363657373436f6e74726f6c3a2073656e646572206d75737420626520616e60408201526e0818591b5a5b881d1bc819dc985b9d608a1b606082015260800190565b60208082526021908201527f5265646972656374416c6c3a206f6e6c7920434641763120737570706f7274656040820152601960fa1b606082015260800190565b6020808252601f908201527f5265646972656374416c6c3a206e6f7420616363657074656420746f6b656e00604082015260600190565b60208082526033908201527f556e737570706f727465642063616c6c6261636b202d20204265666f7265204160408201527219dc99595b595b9d0815195c9b5a5b985d1959606a1b606082015260800190565b60208082526022908201527f5265646972656374416c6c3a20737570706f7274206f6e6c79206f6e6520686f6040820152611cdd60f21b606082015260800190565b6020808252601e908201527f536166654d6174683a207375627472616374696f6e206f766572666c6f770000604082015260600190565b60208082526030908201527f416363657373436f6e74726f6c3a2073656e646572206d75737420626520616e60408201526f2061646d696e20746f207265766f6b6560801b606082015260800190565b6020808252602f908201527f556e737570706f727465642063616c6c6261636b202d204265666f726520416760408201526e1c99595b595b9d081d5c19185d1959608a1b606082015260800190565b60208082526016908201527521b0b63632b91034b9903737ba1030b71030b236b4b760511b604082015260600190565b6020808252602f908201527f556e737570706f727465642063616c6c6261636b202d204265666f726520416760408201526e1c99595b595b9d0810dc99585d1959608a1b606082015260800190565b6020808252602f908201527f416363657373436f6e74726f6c3a2063616e206f6e6c792072656e6f756e636560408201526e103937b632b9903337b91039b2b63360891b606082015260800190565b9283526001600160a01b03919091166020830152600b0b604082015260600190565b60405181810167ffffffffffffffff811182821017156122e857600080fd5b604052919050565b600067ffffffffffffffff821115612306578081fd5b50601f01601f191660200190565b60005b8381101561232f578181015183820152602001612317565b83811115610c485750506000910152565b6001600160a01b038116811461235557600080fd5b5056fea2646970667358221220c56a02ef81428ab52c02ad3297f805ae1af9c413aae3ce0a767ae8e549e97e5c64736f6c63430007010033",
  "bytecodeSha1": "d001dca243071e7d9c457ae1daee70e0e4cbe453",
  "compiler": {
    "evm_version": "istanbul",
    "optimizer": {
      "enabled": true,
      "runs": 200
    },
    "version": "0.7.1+commit.f4a555be"
  },
  "contractName": "TennerrStreamer",
  "language": "Solidity",
  "natspec": {
    "kind": "dev",
    "methods": {
      "getRoleAdmin(bytes32)": {
        "details": "Returns the admin role that controls `role`. See {grantRole} and {revokeRole}. To change a role's admin, use {_setRoleAdmin}."
      },
      "getRoleMember(bytes32,uint256)": {
        "details": "Returns one of the accounts that have `role`. `index` must be a value between 0 and {getRoleMemberCount}, non-inclusive. Role bearers are not sorted in any particular way, and their ordering may change at any point. WARNING: When using {getRoleMember} and {getRoleMemberCount}, make sure you perform all queries on the same block. See the following https://forum.openzeppelin.com/t/iterating-over-elements-on-enumerableset-in-openzeppelin-contracts/2296[forum post] for more information."
      },
      "getRoleMemberCount(bytes32)": {
        "details": "Returns the number of accounts that have `role`. Can be used together with {getRoleMember} to enumerate all bearers of a role."
      },
      "grantRole(bytes32,address)": {
        "details": "Grants `role` to `account`. If `account` had not been already granted `role`, emits a {RoleGranted} event. Requirements: - the caller must have ``role``'s admin role."
      },
      "hasRole(bytes32,address)": {
        "details": "Returns `true` if `account` has been granted `role`."
      },
      "renounceRole(bytes32,address)": {
        "details": "Revokes `role` from the calling account. Roles are often managed via {grantRole} and {revokeRole}: this function's purpose is to provide a mechanism for accounts to lose their privileges if they are compromised (such as when a trusted device is misplaced). If the calling account had been granted `role`, emits a {RoleRevoked} event. Requirements: - the caller must be `account`."
      },
      "revokeRole(bytes32,address)": {
        "details": "Revokes `role` from `account`. If `account` had been granted `role`, emits a {RoleRevoked} event. Requirements: - the caller must have ``role``'s admin role."
      }
    },
    "version": 1
  },
  "opcodes": "PUSH1 0x80 PUSH1 0x40 MSTORE PUSH1 0x4 CALLDATASIZE LT PUSH2 0x139 JUMPI PUSH1 0x0 CALLDATALOAD PUSH1 0xE0 SHR DUP1 PUSH4 0x60F5BC21 GT PUSH2 0xAB JUMPI DUP1 PUSH4 0x9883145E GT PUSH2 0x6F JUMPI DUP1 PUSH4 0x9883145E EQ PUSH2 0x374 JUMPI DUP1 PUSH4 0xA217FDDF EQ PUSH2 0x394 JUMPI DUP1 PUSH4 0xAE015ADC EQ PUSH2 0x3A9 JUMPI DUP1 PUSH4 0xCA15C873 EQ PUSH2 0x3C9 JUMPI DUP1 PUSH4 0xD547741F EQ PUSH2 0x3E9 JUMPI DUP1 PUSH4 0xD86ED3E5 EQ PUSH2 0x145 JUMPI PUSH2 0x140 JUMP JUMPDEST DUP1 PUSH4 0x60F5BC21 EQ PUSH2 0x2C5 JUMPI DUP1 PUSH4 0x75B238FC EQ PUSH2 0x2F2 JUMPI DUP1 PUSH4 0x884D1F40 EQ PUSH2 0x307 JUMPI DUP1 PUSH4 0x9010D07C EQ PUSH2 0x327 JUMPI DUP1 PUSH4 0x91D14854 EQ PUSH2 0x347 JUMPI PUSH2 0x140 JUMP JUMPDEST DUP1 PUSH4 0x36568ABE GT PUSH2 0xFD JUMPI DUP1 PUSH4 0x36568ABE EQ PUSH2 0x20E JUMPI DUP1 PUSH4 0x4DBB40B2 EQ PUSH2 0x22E JUMPI DUP1 PUSH4 0x4EB66FFF EQ PUSH2 0x250 JUMPI DUP1 PUSH4 0x53C11F99 EQ PUSH2 0x270 JUMPI DUP1 PUSH4 0x5BD7FA11 EQ PUSH2 0x290 JUMPI DUP1 PUSH4 0x5F9E7D77 EQ PUSH2 0x2A5 JUMPI PUSH2 0x140 JUMP JUMPDEST DUP1 PUSH4 0x230DBD29 EQ PUSH2 0x145 JUMPI DUP1 PUSH4 0x248A9CA3 EQ PUSH2 0x17B JUMPI DUP1 PUSH4 0x28D2BF94 EQ PUSH2 0x1A8 JUMPI DUP1 PUSH4 0x2F2FF15D EQ PUSH2 0x1CC JUMPI DUP1 PUSH4 0x30D9C915 EQ PUSH2 0x1EE JUMPI PUSH2 0x140 JUMP JUMPDEST CALLDATASIZE PUSH2 0x140 JUMPI STOP JUMPDEST PUSH1 0x0 DUP1 REVERT JUMPDEST CALLVALUE DUP1 ISZERO PUSH2 0x151 JUMPI PUSH1 0x0 DUP1 REVERT JUMPDEST POP PUSH2 0x165 PUSH2 0x160 CALLDATASIZE PUSH1 0x4 PUSH2 0x1AA1 JUMP JUMPDEST PUSH2 0x409 JUMP JUMPDEST PUSH1 0x40 MLOAD PUSH2 0x172 SWAP2 SWAP1 PUSH2 0x1DE5 JUMP JUMPDEST PUSH1 0x40 MLOAD DUP1 SWAP2 SUB SWAP1 RETURN JUMPDEST CALLVALUE DUP1 ISZERO PUSH2 0x187 JUMPI PUSH1 0x0 DUP1 REVERT JUMPDEST POP PUSH2 0x19B PUSH2 0x196 CALLDATASIZE PUSH1 0x4 PUSH2 0x18E9 JUMP JUMPDEST PUSH2 0x546 JUMP JUMPDEST PUSH1 0x40 MLOAD PUSH2 0x172 SWAP2 SWAP1 PUSH2 0x1DAD JUMP JUMPDEST CALLVALUE DUP1 ISZERO PUSH2 0x1B4 JUMPI PUSH1 0x0 DUP1 REVERT JUMPDEST POP PUSH2 0x1BD PUSH2 0x55B JUMP JUMPDEST PUSH1 0x40 MLOAD PUSH2 0x172 SWAP4 SWAP3 SWAP2 SWAP1 PUSH2 0x22A7 JUMP JUMPDEST CALLVALUE DUP1 ISZERO PUSH2 0x1D8 JUMPI PUSH1 0x0 DUP1 REVERT JUMPDEST POP PUSH2 0x1EC PUSH2 0x1E7 CALLDATASIZE PUSH1 0x4 PUSH2 0x1919 JUMP JUMPDEST PUSH2 0x61C JUMP JUMPDEST STOP JUMPDEST CALLVALUE DUP1 ISZERO PUSH2 0x1FA JUMPI PUSH1 0x0 DUP1 REVERT JUMPDEST POP PUSH2 0x165 PUSH2 0x209 CALLDATASIZE PUSH1 0x4 PUSH2 0x1A05 JUMP JUMPDEST PUSH2 0x664 JUMP JUMPDEST CALLVALUE DUP1 ISZERO PUSH2 0x21A JUMPI PUSH1 0x0 DUP1 REVERT JUMPDEST POP PUSH2 0x1EC PUSH2 0x229 CALLDATASIZE PUSH1 0x4 PUSH2 0x1919 JUMP JUMPDEST PUSH2 0x67E JUMP JUMPDEST CALLVALUE DUP1 ISZERO PUSH2 0x23A JUMPI PUSH1 0x0 DUP1 REVERT JUMPDEST POP PUSH2 0x243 PUSH2 0x6C0 JUMP JUMPDEST PUSH1 0x40 MLOAD PUSH2 0x172 SWAP2 SWAP1 PUSH2 0x1D5D JUMP JUMPDEST CALLVALUE DUP1 ISZERO PUSH2 0x25C JUMPI PUSH1 0x0 DUP1 REVERT JUMPDEST POP PUSH2 0x1EC PUSH2 0x26B CALLDATASIZE PUSH1 0x4 PUSH2 0x1834 JUMP JUMPDEST PUSH2 0x6CF JUMP JUMPDEST CALLVALUE DUP1 ISZERO PUSH2 0x27C JUMPI PUSH1 0x0 DUP1 REVERT JUMPDEST POP PUSH2 0x165 PUSH2 0x28B CALLDATASIZE PUSH1 0x4 PUSH2 0x1AA1 JUMP JUMPDEST PUSH2 0x744 JUMP JUMPDEST CALLVALUE DUP1 ISZERO PUSH2 0x29C JUMPI PUSH1 0x0 DUP1 REVERT JUMPDEST POP PUSH2 0x243 PUSH2 0x88D JUMP JUMPDEST CALLVALUE DUP1 ISZERO PUSH2 0x2B1 JUMPI PUSH1 0x0 DUP1 REVERT JUMPDEST POP PUSH2 0x165 PUSH2 0x2C0 CALLDATASIZE PUSH1 0x4 PUSH2 0x1A05 JUMP JUMPDEST PUSH2 0x89C JUMP JUMPDEST CALLVALUE DUP1 ISZERO PUSH2 0x2D1 JUMPI PUSH1 0x0 DUP1 REVERT JUMPDEST POP PUSH2 0x2E5 PUSH2 0x2E0 CALLDATASIZE PUSH1 0x4 PUSH2 0x18E9 JUMP JUMPDEST PUSH2 0x8B6 JUMP JUMPDEST PUSH1 0x40 MLOAD PUSH2 0x172 SWAP2 SWAP1 PUSH2 0x1D71 JUMP JUMPDEST CALLVALUE DUP1 ISZERO PUSH2 0x2FE JUMPI PUSH1 0x0 DUP1 REVERT JUMPDEST POP PUSH2 0x19B PUSH2 0xAB5 JUMP JUMPDEST CALLVALUE DUP1 ISZERO PUSH2 0x313 JUMPI PUSH1 0x0 DUP1 REVERT JUMPDEST POP PUSH2 0x165 PUSH2 0x322 CALLDATASIZE PUSH1 0x4 PUSH2 0x1A05 JUMP JUMPDEST PUSH2 0xAD9 JUMP JUMPDEST CALLVALUE DUP1 ISZERO PUSH2 0x333 JUMPI PUSH1 0x0 DUP1 REVERT JUMPDEST POP PUSH2 0x243 PUSH2 0x342 CALLDATASIZE PUSH1 0x4 PUSH2 0x1948 JUMP JUMPDEST PUSH2 0xAF3 JUMP JUMPDEST CALLVALUE DUP1 ISZERO PUSH2 0x353 JUMPI PUSH1 0x0 DUP1 REVERT JUMPDEST POP PUSH2 0x367 PUSH2 0x362 CALLDATASIZE PUSH1 0x4 PUSH2 0x1919 JUMP JUMPDEST PUSH2 0xB14 JUMP JUMPDEST PUSH1 0x40 MLOAD PUSH2 0x172 SWAP2 SWAP1 PUSH2 0x1DA2 JUMP JUMPDEST CALLVALUE DUP1 ISZERO PUSH2 0x380 JUMPI PUSH1 0x0 DUP1 REVERT JUMPDEST POP PUSH2 0x19B PUSH2 0x38F CALLDATASIZE PUSH1 0x4 PUSH2 0x1948 JUMP JUMPDEST PUSH2 0xB2C JUMP JUMPDEST CALLVALUE DUP1 ISZERO PUSH2 0x3A0 JUMPI PUSH1 0x0 DUP1 REVERT JUMPDEST POP PUSH2 0x19B PUSH2 0xB5A JUMP JUMPDEST CALLVALUE DUP1 ISZERO PUSH2 0x3B5 JUMPI PUSH1 0x0 DUP1 REVERT JUMPDEST POP PUSH2 0x1EC PUSH2 0x3C4 CALLDATASIZE PUSH1 0x4 PUSH2 0x1857 JUMP JUMPDEST PUSH2 0xB5F JUMP JUMPDEST CALLVALUE DUP1 ISZERO PUSH2 0x3D5 JUMPI PUSH1 0x0 DUP1 REVERT JUMPDEST POP PUSH2 0x19B PUSH2 0x3E4 CALLDATASIZE PUSH1 0x4 PUSH2 0x18E9 JUMP JUMPDEST PUSH2 0xC4E JUMP JUMPDEST CALLVALUE DUP1 ISZERO PUSH2 0x3F5 JUMPI PUSH1 0x0 DUP1 REVERT JUMPDEST POP PUSH2 0x1EC PUSH2 0x404 CALLDATASIZE PUSH1 0x4 PUSH2 0x1919 JUMP JUMPDEST PUSH2 0xC65 JUMP JUMPDEST PUSH1 0x60 DUP10 DUP10 PUSH2 0x416 DUP3 PUSH2 0xC9F JUMP JUMPDEST PUSH2 0x43B JUMPI PUSH1 0x40 MLOAD PUSH3 0x461BCD PUSH1 0xE5 SHL DUP2 MSTORE PUSH1 0x4 ADD PUSH2 0x432 SWAP1 PUSH2 0x2037 JUMP JUMPDEST PUSH1 0x40 MLOAD DUP1 SWAP2 SUB SWAP1 REVERT JUMPDEST PUSH2 0x444 DUP2 PUSH2 0xCB3 JUMP JUMPDEST PUSH2 0x460 JUMPI PUSH1 0x40 MLOAD PUSH3 0x461BCD PUSH1 0xE5 SHL DUP2 MSTORE PUSH1 0x4 ADD PUSH2 0x432 SWAP1 PUSH2 0x1FF6 JUMP JUMPDEST PUSH1 0x1 SLOAD PUSH1 0x1 PUSH1 0x1 PUSH1 0xA0 SHL SUB AND CALLER EQ PUSH2 0x48A JUMPI PUSH1 0x40 MLOAD PUSH3 0x461BCD PUSH1 0xE5 SHL DUP2 MSTORE PUSH1 0x4 ADD PUSH2 0x432 SWAP1 PUSH2 0x20C1 JUMP JUMPDEST PUSH1 0x1 SLOAD PUSH1 0x40 MLOAD PUSH4 0x1FB6491D PUSH1 0xE1 SHL DUP2 MSTORE PUSH1 0x60 SWAP2 PUSH1 0x1 PUSH1 0x1 PUSH1 0xA0 SHL SUB AND SWAP1 PUSH4 0x3F6C923A SWAP1 PUSH2 0x4BD SWAP1 DUP10 SWAP1 DUP10 SWAP1 PUSH1 0x4 ADD PUSH2 0x1DB6 JUMP JUMPDEST PUSH1 0x0 PUSH1 0x40 MLOAD DUP1 DUP4 SUB DUP2 DUP7 DUP1 EXTCODESIZE ISZERO DUP1 ISZERO PUSH2 0x4D5 JUMPI PUSH1 0x0 DUP1 REVERT JUMPDEST POP GAS STATICCALL ISZERO DUP1 ISZERO PUSH2 0x4E9 JUMPI RETURNDATASIZE PUSH1 0x0 DUP1 RETURNDATACOPY RETURNDATASIZE PUSH1 0x0 REVERT JUMPDEST POP POP POP POP PUSH1 0x40 MLOAD RETURNDATASIZE PUSH1 0x0 DUP3 RETURNDATACOPY PUSH1 0x1F RETURNDATASIZE SWAP1 DUP2 ADD PUSH1 0x1F NOT AND DUP3 ADD PUSH1 0x40 MSTORE PUSH2 0x511 SWAP2 SWAP1 DUP2 ADD SWAP1 PUSH2 0x1B83 JUMP JUMPDEST PUSH1 0xA0 ADD MLOAD DUP1 PUSH1 0x20 ADD SWAP1 MLOAD DUP2 ADD SWAP1 PUSH2 0x528 SWAP2 SWAP1 PUSH2 0x1969 JUMP JUMPDEST SWAP1 POP PUSH2 0x535 DUP7 DUP7 DUP4 PUSH2 0xD4E JUMP JUMPDEST SWAP14 SWAP13 POP POP POP POP POP POP POP POP POP POP POP POP POP JUMP JUMPDEST PUSH1 0x0 SWAP1 DUP2 MSTORE PUSH1 0x20 DUP2 SWAP1 MSTORE PUSH1 0x40 SWAP1 KECCAK256 PUSH1 0x2 ADD SLOAD SWAP1 JUMP JUMPDEST PUSH1 0x4 SLOAD PUSH1 0x0 SWAP1 DUP2 SWAP1 DUP2 SWAP1 PUSH1 0x1 PUSH1 0x1 PUSH1 0xA0 SHL SUB AND ISZERO PUSH2 0x617 JUMPI PUSH1 0x2 SLOAD PUSH1 0x3 SLOAD PUSH1 0x4 DUP1 SLOAD PUSH1 0x40 MLOAD PUSH4 0x1CD43D11 PUSH1 0xE3 SHL DUP2 MSTORE PUSH1 0x1 PUSH1 0x1 PUSH1 0xA0 SHL SUB SWAP5 DUP6 AND SWAP5 PUSH4 0xE6A1E888 SWAP5 PUSH2 0x5AF SWAP5 SWAP1 DUP3 AND SWAP4 ADDRESS SWAP4 SWAP3 AND SWAP2 ADD PUSH2 0x1EA5 JUMP JUMPDEST PUSH1 0x80 PUSH1 0x40 MLOAD DUP1 DUP4 SUB DUP2 DUP7 DUP1 EXTCODESIZE ISZERO DUP1 ISZERO PUSH2 0x5C7 JUMPI PUSH1 0x0 DUP1 REVERT JUMPDEST POP GAS STATICCALL ISZERO DUP1 ISZERO PUSH2 0x5DB JUMPI RETURNDATASIZE PUSH1 0x0 DUP1 RETURNDATACOPY RETURNDATASIZE PUSH1 0x0 REVERT JUMPDEST POP POP POP POP PUSH1 0x40 MLOAD RETURNDATASIZE PUSH1 0x1F NOT PUSH1 0x1F DUP3 ADD AND DUP3 ADD DUP1 PUSH1 0x40 MSTORE POP DUP2 ADD SWAP1 PUSH2 0x5FF SWAP2 SWAP1 PUSH2 0x1CF5 JUMP JUMPDEST POP POP PUSH1 0x4 SLOAD SWAP2 SWAP5 POP PUSH1 0x1 PUSH1 0x1 PUSH1 0xA0 SHL SUB SWAP1 SWAP2 AND SWAP3 POP SWAP1 POP JUMPDEST SWAP1 SWAP2 SWAP3 JUMP JUMPDEST PUSH1 0x0 DUP3 DUP2 MSTORE PUSH1 0x20 DUP2 SWAP1 MSTORE PUSH1 0x40 SWAP1 KECCAK256 PUSH1 0x2 ADD SLOAD PUSH2 0x63A SWAP1 PUSH2 0x362 PUSH2 0x1104 JUMP JUMPDEST PUSH2 0x656 JUMPI PUSH1 0x40 MLOAD PUSH3 0x461BCD PUSH1 0xE5 SHL DUP2 MSTORE PUSH1 0x4 ADD PUSH2 0x432 SWAP1 PUSH2 0x1FA7 JUMP JUMPDEST PUSH2 0x660 DUP3 DUP3 PUSH2 0x1108 JUMP JUMPDEST POP POP JUMP JUMPDEST PUSH1 0x60 PUSH1 0x40 MLOAD PUSH3 0x461BCD PUSH1 0xE5 SHL DUP2 MSTORE PUSH1 0x4 ADD PUSH2 0x432 SWAP1 PUSH2 0x2209 JUMP JUMPDEST PUSH2 0x686 PUSH2 0x1104 JUMP JUMPDEST PUSH1 0x1 PUSH1 0x1 PUSH1 0xA0 SHL SUB AND DUP2 PUSH1 0x1 PUSH1 0x1 PUSH1 0xA0 SHL SUB AND EQ PUSH2 0x6B6 JUMPI PUSH1 0x40 MLOAD PUSH3 0x461BCD PUSH1 0xE5 SHL DUP2 MSTORE PUSH1 0x4 ADD PUSH2 0x432 SWAP1 PUSH2 0x2258 JUMP JUMPDEST PUSH2 0x660 DUP3 DUP3 PUSH2 0x1171 JUMP JUMPDEST PUSH1 0x8 SLOAD PUSH1 0x1 PUSH1 0x1 PUSH1 0xA0 SHL SUB AND DUP2 JUMP JUMPDEST PUSH2 0x6F9 PUSH32 0xA49807205CE4D355092EF5A8A18F56E8913CF4A201FBE287825B095693C21775 CALLER PUSH2 0xB14 JUMP JUMPDEST PUSH2 0x715 JUMPI PUSH1 0x40 MLOAD PUSH3 0x461BCD PUSH1 0xE5 SHL DUP2 MSTORE PUSH1 0x4 ADD PUSH2 0x432 SWAP1 PUSH2 0x21D9 JUMP JUMPDEST PUSH1 0x6 DUP1 SLOAD PUSH1 0x1 PUSH1 0x1 PUSH1 0xA0 SHL SUB NOT SWAP1 DUP2 AND PUSH1 0x1 PUSH1 0x1 PUSH1 0xA0 SHL SUB SWAP4 DUP5 AND OR SWAP2 DUP3 SWAP1 SSTORE PUSH1 0x5 DUP1 SLOAD SWAP3 SWAP1 SWAP4 AND SWAP2 AND OR SWAP1 SSTORE JUMP JUMPDEST PUSH1 0x1 SLOAD PUSH1 0x60 SWAP1 PUSH1 0x1 PUSH1 0x1 PUSH1 0xA0 SHL SUB AND CALLER EQ PUSH2 0x771 JUMPI PUSH1 0x40 MLOAD PUSH3 0x461BCD PUSH1 0xE5 SHL DUP2 MSTORE PUSH1 0x4 ADD PUSH2 0x432 SWAP1 PUSH2 0x20C1 JUMP JUMPDEST PUSH1 0x1 SLOAD PUSH1 0x40 MLOAD PUSH4 0x1FB6491D PUSH1 0xE1 SHL DUP2 MSTORE PUSH1 0x60 SWAP2 PUSH1 0x1 PUSH1 0x1 PUSH1 0xA0 SHL SUB AND SWAP1 PUSH4 0x3F6C923A SWAP1 PUSH2 0x7A4 SWAP1 DUP8 SWAP1 DUP8 SWAP1 PUSH1 0x4 ADD PUSH2 0x1DB6 JUMP JUMPDEST PUSH1 0x0 PUSH1 0x40 MLOAD DUP1 DUP4 SUB DUP2 DUP7 DUP1 EXTCODESIZE ISZERO DUP1 ISZERO PUSH2 0x7BC JUMPI PUSH1 0x0 DUP1 REVERT JUMPDEST POP GAS STATICCALL ISZERO DUP1 ISZERO PUSH2 0x7D0 JUMPI RETURNDATASIZE PUSH1 0x0 DUP1 RETURNDATACOPY RETURNDATASIZE PUSH1 0x0 REVERT JUMPDEST POP POP POP POP PUSH1 0x40 MLOAD RETURNDATASIZE PUSH1 0x0 DUP3 RETURNDATACOPY PUSH1 0x1F RETURNDATASIZE SWAP1 DUP2 ADD PUSH1 0x1F NOT AND DUP3 ADD PUSH1 0x40 MSTORE PUSH2 0x7F8 SWAP2 SWAP1 DUP2 ADD SWAP1 PUSH2 0x1B83 JUMP JUMPDEST PUSH1 0xA0 ADD MLOAD DUP1 PUSH1 0x20 ADD SWAP1 MLOAD DUP2 ADD SWAP1 PUSH2 0x80F SWAP2 SWAP1 PUSH2 0x1969 JUMP JUMPDEST SWAP1 POP PUSH2 0x81A DUP12 PUSH2 0xC9F JUMP JUMPDEST ISZERO DUP1 PUSH2 0x82C JUMPI POP PUSH2 0x82A DUP11 PUSH2 0xCB3 JUMP JUMPDEST ISZERO JUMPDEST ISZERO PUSH2 0x871 JUMPI DUP4 DUP4 DUP1 DUP1 PUSH1 0x1F ADD PUSH1 0x20 DUP1 SWAP2 DIV MUL PUSH1 0x20 ADD PUSH1 0x40 MLOAD SWAP1 DUP2 ADD PUSH1 0x40 MSTORE DUP1 SWAP4 SWAP3 SWAP2 SWAP1 DUP2 DUP2 MSTORE PUSH1 0x20 ADD DUP4 DUP4 DUP1 DUP3 DUP5 CALLDATACOPY PUSH1 0x0 SWAP3 ADD SWAP2 SWAP1 SWAP2 MSTORE POP SWAP3 SWAP5 POP PUSH2 0x880 SWAP4 POP POP POP POP JUMP JUMPDEST PUSH2 0x87C DUP5 DUP5 DUP4 PUSH2 0xD4E JUMP JUMPDEST SWAP2 POP POP JUMPDEST SWAP10 SWAP9 POP POP POP POP POP POP POP POP POP JUMP JUMPDEST PUSH1 0x5 SLOAD PUSH1 0x1 PUSH1 0x1 PUSH1 0xA0 SHL SUB AND DUP2 JUMP JUMPDEST PUSH1 0x60 PUSH1 0x40 MLOAD PUSH3 0x461BCD PUSH1 0xE5 SHL DUP2 MSTORE PUSH1 0x4 ADD PUSH2 0x432 SWAP1 PUSH2 0x206E JUMP JUMPDEST PUSH2 0x8BE PUSH2 0x168C JUMP JUMPDEST PUSH1 0x0 DUP3 DUP2 MSTORE PUSH1 0x9 PUSH1 0x20 MSTORE PUSH1 0x40 DUP2 KECCAK256 DUP1 SLOAD PUSH1 0x2 SWAP1 DUP2 LT PUSH2 0x8D9 JUMPI INVALID JUMPDEST SWAP1 PUSH1 0x0 MSTORE PUSH1 0x20 PUSH1 0x0 KECCAK256 ADD SLOAD SWAP1 POP PUSH1 0x0 PUSH1 0x9 PUSH1 0x0 DUP6 DUP2 MSTORE PUSH1 0x20 ADD SWAP1 DUP2 MSTORE PUSH1 0x20 ADD PUSH1 0x0 KECCAK256 PUSH1 0x5 DUP2 SLOAD DUP2 LT PUSH2 0x907 JUMPI INVALID JUMPDEST SWAP1 PUSH1 0x0 MSTORE PUSH1 0x20 PUSH1 0x0 KECCAK256 ADD SLOAD SWAP1 POP PUSH1 0x0 PUSH1 0x9 PUSH1 0x0 DUP7 DUP2 MSTORE PUSH1 0x20 ADD SWAP1 DUP2 MSTORE PUSH1 0x20 ADD PUSH1 0x0 KECCAK256 PUSH1 0x3 DUP2 SLOAD DUP2 LT PUSH2 0x935 JUMPI INVALID JUMPDEST PUSH1 0x0 SWAP2 DUP3 MSTORE PUSH1 0x20 DUP3 KECCAK256 ADD SLOAD PUSH1 0x2 SLOAD PUSH1 0x3 SLOAD PUSH1 0x40 MLOAD PUSH4 0xE8E7E2D1 PUSH1 0xE0 SHL DUP2 MSTORE SWAP3 SWAP5 POP PUSH1 0x1 PUSH1 0x1 PUSH1 0xA0 SHL SUB SWAP2 DUP3 AND SWAP3 PUSH4 0xE8E7E2D1 SWAP3 PUSH2 0x978 SWAP3 AND SWAP1 ADDRESS SWAP1 PUSH1 0x4 ADD PUSH2 0x1E8B JUMP JUMPDEST PUSH1 0x20 PUSH1 0x40 MLOAD DUP1 DUP4 SUB DUP2 DUP7 DUP1 EXTCODESIZE ISZERO DUP1 ISZERO PUSH2 0x990 JUMPI PUSH1 0x0 DUP1 REVERT JUMPDEST POP GAS STATICCALL ISZERO DUP1 ISZERO PUSH2 0x9A4 JUMPI RETURNDATASIZE PUSH1 0x0 DUP1 RETURNDATACOPY RETURNDATASIZE PUSH1 0x0 REVERT JUMPDEST POP POP POP POP PUSH1 0x40 MLOAD RETURNDATASIZE PUSH1 0x1F NOT PUSH1 0x1F DUP3 ADD AND DUP3 ADD DUP1 PUSH1 0x40 MSTORE POP DUP2 ADD SWAP1 PUSH2 0x9C8 SWAP2 SWAP1 PUSH2 0x1B68 JUMP JUMPDEST PUSH1 0x2 SLOAD PUSH1 0x3 SLOAD PUSH1 0x4 DUP1 SLOAD PUSH1 0x40 MLOAD PUSH4 0x1CD43D11 PUSH1 0xE3 SHL DUP2 MSTORE SWAP5 SWAP6 POP PUSH1 0x0 SWAP5 PUSH1 0x1 PUSH1 0x1 PUSH1 0xA0 SHL SUB SWAP5 DUP6 AND SWAP5 PUSH4 0xE6A1E888 SWAP5 PUSH2 0xA0A SWAP5 SWAP1 DUP3 AND SWAP4 ADDRESS SWAP4 SWAP3 AND SWAP2 ADD PUSH2 0x1EA5 JUMP JUMPDEST PUSH1 0x80 PUSH1 0x40 MLOAD DUP1 DUP4 SUB DUP2 DUP7 DUP1 EXTCODESIZE ISZERO DUP1 ISZERO PUSH2 0xA22 JUMPI PUSH1 0x0 DUP1 REVERT JUMPDEST POP GAS STATICCALL ISZERO DUP1 ISZERO PUSH2 0xA36 JUMPI RETURNDATASIZE PUSH1 0x0 DUP1 RETURNDATACOPY RETURNDATASIZE PUSH1 0x0 REVERT JUMPDEST POP POP POP POP PUSH1 0x40 MLOAD RETURNDATASIZE PUSH1 0x1F NOT PUSH1 0x1F DUP3 ADD AND DUP3 ADD DUP1 PUSH1 0x40 MSTORE POP DUP2 ADD SWAP1 PUSH2 0xA5A SWAP2 SWAP1 PUSH2 0x1CF5 JUMP JUMPDEST POP SWAP1 SWAP3 POP POP POP DUP2 DUP2 ADD PUSH1 0xB SIGNEXTEND PUSH1 0x0 PUSH2 0xA72 DUP7 TIMESTAMP PUSH2 0x11DA JUMP JUMPDEST SWAP1 POP PUSH1 0x0 PUSH2 0xA80 TIMESTAMP DUP8 PUSH2 0x11DA JUMP JUMPDEST PUSH1 0x40 DUP1 MLOAD PUSH1 0xA0 DUP2 ADD DUP3 MSTORE DUP6 DUP2 MSTORE SWAP5 SWAP1 SWAP2 MUL PUSH1 0x20 DUP6 ADD MSTORE DUP4 ADD SWAP8 SWAP1 SWAP8 MSTORE PUSH1 0x60 DUP3 ADD MSTORE PUSH1 0x80 DUP2 ADD SWAP5 SWAP1 SWAP5 MSTORE POP SWAP2 SWAP4 POP POP POP POP SWAP2 SWAP1 POP JUMP JUMPDEST PUSH32 0xA49807205CE4D355092EF5A8A18F56E8913CF4A201FBE287825B095693C21775 DUP2 JUMP JUMPDEST PUSH1 0x60 PUSH1 0x40 MLOAD PUSH3 0x461BCD PUSH1 0xE5 SHL DUP2 MSTORE PUSH1 0x4 ADD PUSH2 0x432 SWAP1 PUSH2 0x218A JUMP JUMPDEST PUSH1 0x0 DUP3 DUP2 MSTORE PUSH1 0x20 DUP2 SWAP1 MSTORE PUSH1 0x40 DUP2 KECCAK256 PUSH2 0xB0B SWAP1 DUP4 PUSH2 0x1202 JUMP JUMPDEST SWAP1 POP JUMPDEST SWAP3 SWAP2 POP POP JUMP JUMPDEST PUSH1 0x0 DUP3 DUP2 MSTORE PUSH1 0x20 DUP2 SWAP1 MSTORE PUSH1 0x40 DUP2 KECCAK256 PUSH2 0xB0B SWAP1 DUP4 PUSH2 0x120E JUMP JUMPDEST PUSH1 0x9 PUSH1 0x20 MSTORE DUP2 PUSH1 0x0 MSTORE PUSH1 0x40 PUSH1 0x0 KECCAK256 DUP2 DUP2 SLOAD DUP2 LT PUSH2 0xB45 JUMPI INVALID JUMPDEST SWAP1 PUSH1 0x0 MSTORE PUSH1 0x20 PUSH1 0x0 KECCAK256 ADD PUSH1 0x0 SWAP2 POP SWAP2 POP POP SLOAD DUP2 JUMP JUMPDEST PUSH1 0x0 DUP2 JUMP JUMPDEST PUSH1 0x1 SLOAD PUSH1 0x2 SLOAD PUSH1 0x3 SLOAD PUSH1 0x40 DUP1 MLOAD PUSH1 0x0 DUP2 MSTORE PUSH1 0x20 DUP2 ADD SWAP1 SWAP2 MSTORE PUSH1 0x1 PUSH1 0x1 PUSH1 0xA0 SHL SUB SWAP4 DUP5 AND SWAP4 PUSH4 0x39255D5B SWAP4 DUP2 AND SWAP3 PUSH4 0x317E182F PUSH1 0xE1 SHL SWAP3 PUSH2 0xBAA SWAP3 SWAP1 SWAP2 AND SWAP1 DUP10 SWAP1 DUP10 SWAP1 PUSH1 0x44 DUP2 ADD PUSH2 0x1F32 JUMP JUMPDEST PUSH1 0x40 DUP1 MLOAD PUSH1 0x1F NOT DUP2 DUP5 SUB ADD DUP2 MSTORE SWAP2 DUP2 MSTORE PUSH1 0x20 DUP3 ADD DUP1 MLOAD PUSH1 0x1 PUSH1 0x1 PUSH1 0xE0 SHL SUB AND PUSH1 0x1 PUSH1 0x1 PUSH1 0xE0 SHL SUB NOT SWAP5 DUP6 AND OR SWAP1 MSTORE MLOAD PUSH1 0xE0 DUP6 SWAP1 SHL SWAP1 SWAP3 AND DUP3 MSTORE PUSH2 0xBF2 SWAP3 SWAP2 DUP7 SWAP1 PUSH1 0x4 ADD PUSH2 0x1DF8 JUMP JUMPDEST PUSH1 0x0 PUSH1 0x40 MLOAD DUP1 DUP4 SUB DUP2 PUSH1 0x0 DUP8 DUP1 EXTCODESIZE ISZERO DUP1 ISZERO PUSH2 0xC0C JUMPI PUSH1 0x0 DUP1 REVERT JUMPDEST POP GAS CALL ISZERO DUP1 ISZERO PUSH2 0xC20 JUMPI RETURNDATASIZE PUSH1 0x0 DUP1 RETURNDATACOPY RETURNDATASIZE PUSH1 0x0 REVERT JUMPDEST POP POP POP POP PUSH1 0x40 MLOAD RETURNDATASIZE PUSH1 0x0 DUP3 RETURNDATACOPY PUSH1 0x1F RETURNDATASIZE SWAP1 DUP2 ADD PUSH1 0x1F NOT AND DUP3 ADD PUSH1 0x40 MSTORE PUSH2 0xC48 SWAP2 SWAP1 DUP2 ADD SWAP1 PUSH2 0x1969 JUMP JUMPDEST POP POP POP POP JUMP JUMPDEST PUSH1 0x0 DUP2 DUP2 MSTORE PUSH1 0x20 DUP2 SWAP1 MSTORE PUSH1 0x40 DUP2 KECCAK256 PUSH2 0xB0E SWAP1 PUSH2 0x1223 JUMP JUMPDEST PUSH1 0x0 DUP3 DUP2 MSTORE PUSH1 0x20 DUP2 SWAP1 MSTORE PUSH1 0x40 SWAP1 KECCAK256 PUSH1 0x2 ADD SLOAD PUSH2 0xC83 SWAP1 PUSH2 0x362 PUSH2 0x1104 JUMP JUMPDEST PUSH2 0x6B6 JUMPI PUSH1 0x40 MLOAD PUSH3 0x461BCD PUSH1 0xE5 SHL DUP2 MSTORE PUSH1 0x4 ADD PUSH2 0x432 SWAP1 PUSH2 0x213A JUMP JUMPDEST PUSH1 0x3 SLOAD PUSH1 0x1 PUSH1 0x1 PUSH1 0xA0 SHL SUB SWAP1 DUP2 AND SWAP2 AND EQ SWAP1 JUMP JUMPDEST PUSH1 0x0 PUSH32 0xA9214CC96615E0085D3BB077758DB69497DC2DCE3B2B1E97BC93C3D18D83EFD3 DUP3 PUSH1 0x1 PUSH1 0x1 PUSH1 0xA0 SHL SUB AND PUSH4 0x7730599E PUSH1 0x40 MLOAD DUP2 PUSH4 0xFFFFFFFF AND PUSH1 0xE0 SHL DUP2 MSTORE PUSH1 0x4 ADD PUSH1 0x20 PUSH1 0x40 MLOAD DUP1 DUP4 SUB DUP2 DUP7 DUP1 EXTCODESIZE ISZERO DUP1 ISZERO PUSH2 0xD0F JUMPI PUSH1 0x0 DUP1 REVERT JUMPDEST POP GAS STATICCALL ISZERO DUP1 ISZERO PUSH2 0xD23 JUMPI RETURNDATASIZE PUSH1 0x0 DUP1 RETURNDATACOPY RETURNDATASIZE PUSH1 0x0 REVERT JUMPDEST POP POP POP POP PUSH1 0x40 MLOAD RETURNDATASIZE PUSH1 0x1F NOT PUSH1 0x1F DUP3 ADD AND DUP3 ADD DUP1 PUSH1 0x40 MSTORE POP DUP2 ADD SWAP1 PUSH2 0xD47 SWAP2 SWAP1 PUSH2 0x1901 JUMP JUMPDEST EQ SWAP3 SWAP2 POP POP JUMP JUMPDEST PUSH1 0x60 DUP4 DUP4 DUP1 DUP1 PUSH1 0x1F ADD PUSH1 0x20 DUP1 SWAP2 DIV MUL PUSH1 0x20 ADD PUSH1 0x40 MLOAD SWAP1 DUP2 ADD PUSH1 0x40 MSTORE DUP1 SWAP4 SWAP3 SWAP2 SWAP1 DUP2 DUP2 MSTORE PUSH1 0x20 ADD DUP4 DUP4 DUP1 DUP3 DUP5 CALLDATACOPY PUSH1 0x0 SWAP3 ADD DUP3 SWAP1 MSTORE POP PUSH1 0x2 SLOAD PUSH1 0x3 SLOAD PUSH1 0x40 MLOAD PUSH4 0xE8E7E2D1 PUSH1 0xE0 SHL DUP2 MSTORE SWAP7 SWAP8 POP SWAP2 SWAP6 PUSH1 0x1 PUSH1 0x1 PUSH1 0xA0 SHL SUB SWAP2 DUP3 AND SWAP6 POP PUSH4 0xE8E7E2D1 SWAP5 POP PUSH2 0xDC0 SWAP4 POP SWAP2 AND SWAP1 ADDRESS SWAP1 PUSH1 0x4 ADD PUSH2 0x1E8B JUMP JUMPDEST PUSH1 0x20 PUSH1 0x40 MLOAD DUP1 DUP4 SUB DUP2 DUP7 DUP1 EXTCODESIZE ISZERO DUP1 ISZERO PUSH2 0xDD8 JUMPI PUSH1 0x0 DUP1 REVERT JUMPDEST POP GAS STATICCALL ISZERO DUP1 ISZERO PUSH2 0xDEC JUMPI RETURNDATASIZE PUSH1 0x0 DUP1 RETURNDATACOPY RETURNDATASIZE PUSH1 0x0 REVERT JUMPDEST POP POP POP POP PUSH1 0x40 MLOAD RETURNDATASIZE PUSH1 0x1F NOT PUSH1 0x1F DUP3 ADD AND DUP3 ADD DUP1 PUSH1 0x40 MSTORE POP DUP2 ADD SWAP1 PUSH2 0xE10 SWAP2 SWAP1 PUSH2 0x1B68 JUMP JUMPDEST PUSH1 0x2 SLOAD PUSH1 0x3 SLOAD PUSH1 0x4 DUP1 SLOAD PUSH1 0x40 MLOAD PUSH4 0x1CD43D11 PUSH1 0xE3 SHL DUP2 MSTORE SWAP5 SWAP6 POP PUSH1 0x0 SWAP5 PUSH1 0x1 PUSH1 0x1 PUSH1 0xA0 SHL SUB SWAP5 DUP6 AND SWAP5 PUSH4 0xE6A1E888 SWAP5 PUSH2 0xE52 SWAP5 SWAP1 DUP3 AND SWAP4 ADDRESS SWAP4 SWAP3 AND SWAP2 ADD PUSH2 0x1EA5 JUMP JUMPDEST PUSH1 0x80 PUSH1 0x40 MLOAD DUP1 DUP4 SUB DUP2 DUP7 DUP1 EXTCODESIZE ISZERO DUP1 ISZERO PUSH2 0xE6A JUMPI PUSH1 0x0 DUP1 REVERT JUMPDEST POP GAS STATICCALL ISZERO DUP1 ISZERO PUSH2 0xE7E JUMPI RETURNDATASIZE PUSH1 0x0 DUP1 RETURNDATACOPY RETURNDATASIZE PUSH1 0x0 REVERT JUMPDEST POP POP POP POP PUSH1 0x40 MLOAD RETURNDATASIZE PUSH1 0x1F NOT PUSH1 0x1F DUP3 ADD AND DUP3 ADD DUP1 PUSH1 0x40 MSTORE POP DUP2 ADD SWAP1 PUSH2 0xEA2 SWAP2 SWAP1 PUSH2 0x1CF5 JUMP JUMPDEST POP SWAP1 SWAP3 POP POP POP DUP2 DUP2 ADD PUSH2 0xEB4 DUP6 PUSH2 0x122E JUMP JUMPDEST PUSH1 0xB DUP2 SWAP1 SIGNEXTEND PUSH2 0xFB2 JUMPI PUSH1 0x1 SLOAD PUSH1 0x2 SLOAD PUSH1 0x3 SLOAD PUSH1 0x4 SLOAD PUSH1 0x40 DUP1 MLOAD PUSH1 0x0 DUP2 MSTORE PUSH1 0x20 DUP2 ADD SWAP1 SWAP2 MSTORE PUSH1 0x1 PUSH1 0x1 PUSH1 0xA0 SHL SUB SWAP5 DUP6 AND SWAP5 PUSH4 0x4329D293 SWAP5 DUP2 AND SWAP4 PUSH4 0x5A5999E3 PUSH1 0xE1 SHL SWAP4 PUSH2 0xF0C SWAP4 SWAP2 DUP4 AND SWAP3 ADDRESS SWAP3 SWAP2 AND SWAP1 PUSH1 0x44 DUP2 ADD PUSH2 0x1EC8 JUMP JUMPDEST PUSH1 0x40 DUP1 MLOAD PUSH1 0x1F NOT DUP2 DUP5 SUB ADD DUP2 MSTORE SWAP2 DUP2 MSTORE PUSH1 0x20 DUP3 ADD DUP1 MLOAD PUSH1 0x1 PUSH1 0x1 PUSH1 0xE0 SHL SUB AND PUSH1 0x1 PUSH1 0x1 PUSH1 0xE0 SHL SUB NOT SWAP5 DUP6 AND OR SWAP1 MSTORE MLOAD PUSH1 0xE0 DUP6 SWAP1 SHL SWAP1 SWAP3 AND DUP3 MSTORE PUSH2 0xF54 SWAP3 SWAP2 DUP10 SWAP1 PUSH1 0x4 ADD PUSH2 0x1E38 JUMP JUMPDEST PUSH1 0x0 PUSH1 0x40 MLOAD DUP1 DUP4 SUB DUP2 PUSH1 0x0 DUP8 DUP1 EXTCODESIZE ISZERO DUP1 ISZERO PUSH2 0xF6E JUMPI PUSH1 0x0 DUP1 REVERT JUMPDEST POP GAS CALL ISZERO DUP1 ISZERO PUSH2 0xF82 JUMPI RETURNDATASIZE PUSH1 0x0 DUP1 RETURNDATACOPY RETURNDATASIZE PUSH1 0x0 REVERT JUMPDEST POP POP POP POP PUSH1 0x40 MLOAD RETURNDATASIZE PUSH1 0x0 DUP3 RETURNDATACOPY PUSH1 0x1F RETURNDATASIZE SWAP1 DUP2 ADD PUSH1 0x1F NOT AND DUP3 ADD PUSH1 0x40 MSTORE PUSH2 0xFAA SWAP2 SWAP1 DUP2 ADD SWAP1 PUSH2 0x19A4 JUMP JUMPDEST POP SWAP4 POP PUSH2 0x10FA JUMP JUMPDEST PUSH1 0xB DUP3 SWAP1 SIGNEXTEND ISZERO PUSH2 0x100A JUMPI PUSH1 0x1 SLOAD PUSH1 0x2 SLOAD PUSH1 0x3 SLOAD PUSH1 0x4 SLOAD PUSH1 0x40 DUP1 MLOAD PUSH1 0x0 DUP2 MSTORE PUSH1 0x20 DUP2 ADD SWAP1 SWAP2 MSTORE PUSH1 0x1 PUSH1 0x1 PUSH1 0xA0 SHL SUB SWAP5 DUP6 AND SWAP5 PUSH4 0x4329D293 SWAP5 DUP2 AND SWAP4 PUSH4 0x28104D31 PUSH1 0xE1 SHL SWAP4 PUSH2 0xF0C SWAP4 SWAP2 DUP4 AND SWAP3 AND SWAP1 DUP9 SWAP1 PUSH1 0x44 DUP2 ADD PUSH2 0x1EFC JUMP JUMPDEST PUSH1 0x1 SLOAD PUSH1 0x2 SLOAD PUSH1 0x3 SLOAD PUSH1 0x4 SLOAD PUSH1 0x40 DUP1 MLOAD PUSH1 0x0 DUP2 MSTORE PUSH1 0x20 DUP2 ADD SWAP1 SWAP2 MSTORE PUSH1 0x1 PUSH1 0x1 PUSH1 0xA0 SHL SUB SWAP5 DUP6 AND SWAP5 PUSH4 0x4329D293 SWAP5 DUP2 AND SWAP4 PUSH4 0x317E182F PUSH1 0xE1 SHL SWAP4 PUSH2 0x1058 SWAP4 SWAP2 DUP4 AND SWAP3 AND SWAP1 DUP9 SWAP1 PUSH1 0x44 DUP2 ADD PUSH2 0x1EFC JUMP JUMPDEST PUSH1 0x40 DUP1 MLOAD PUSH1 0x1F NOT DUP2 DUP5 SUB ADD DUP2 MSTORE SWAP2 DUP2 MSTORE PUSH1 0x20 DUP3 ADD DUP1 MLOAD PUSH1 0x1 PUSH1 0x1 PUSH1 0xE0 SHL SUB AND PUSH1 0x1 PUSH1 0x1 PUSH1 0xE0 SHL SUB NOT SWAP5 DUP6 AND OR SWAP1 MSTORE MLOAD PUSH1 0xE0 DUP6 SWAP1 SHL SWAP1 SWAP3 AND DUP3 MSTORE PUSH2 0x10A0 SWAP3 SWAP2 DUP10 SWAP1 PUSH1 0x4 ADD PUSH2 0x1E38 JUMP JUMPDEST PUSH1 0x0 PUSH1 0x40 MLOAD DUP1 DUP4 SUB DUP2 PUSH1 0x0 DUP8 DUP1 EXTCODESIZE ISZERO DUP1 ISZERO PUSH2 0x10BA JUMPI PUSH1 0x0 DUP1 REVERT JUMPDEST POP GAS CALL ISZERO DUP1 ISZERO PUSH2 0x10CE JUMPI RETURNDATASIZE PUSH1 0x0 DUP1 RETURNDATACOPY RETURNDATASIZE PUSH1 0x0 REVERT JUMPDEST POP POP POP POP PUSH1 0x40 MLOAD RETURNDATASIZE PUSH1 0x0 DUP3 RETURNDATACOPY PUSH1 0x1F RETURNDATASIZE SWAP1 DUP2 ADD PUSH1 0x1F NOT AND DUP3 ADD PUSH1 0x40 MSTORE PUSH2 0x10F6 SWAP2 SWAP1 DUP2 ADD SWAP1 PUSH2 0x19A4 JUMP JUMPDEST POP SWAP4 POP JUMPDEST POP POP POP SWAP4 SWAP3 POP POP POP JUMP JUMPDEST CALLER SWAP1 JUMP JUMPDEST PUSH1 0x0 DUP3 DUP2 MSTORE PUSH1 0x20 DUP2 SWAP1 MSTORE PUSH1 0x40 SWAP1 KECCAK256 PUSH2 0x1120 SWAP1 DUP3 PUSH2 0x12FB JUMP JUMPDEST ISZERO PUSH2 0x660 JUMPI PUSH2 0x112D PUSH2 0x1104 JUMP JUMPDEST PUSH1 0x1 PUSH1 0x1 PUSH1 0xA0 SHL SUB AND DUP2 PUSH1 0x1 PUSH1 0x1 PUSH1 0xA0 SHL SUB AND DUP4 PUSH32 0x2F8788117E7EFF1D82E926EC794901D17C78024A50270940304540A733656F0D PUSH1 0x40 MLOAD PUSH1 0x40 MLOAD DUP1 SWAP2 SUB SWAP1 LOG4 POP POP JUMP JUMPDEST PUSH1 0x0 DUP3 DUP2 MSTORE PUSH1 0x20 DUP2 SWAP1 MSTORE PUSH1 0x40 SWAP1 KECCAK256 PUSH2 0x1189 SWAP1 DUP3 PUSH2 0x1310 JUMP JUMPDEST ISZERO PUSH2 0x660 JUMPI PUSH2 0x1196 PUSH2 0x1104 JUMP JUMPDEST PUSH1 0x1 PUSH1 0x1 PUSH1 0xA0 SHL SUB AND DUP2 PUSH1 0x1 PUSH1 0x1 PUSH1 0xA0 SHL SUB AND DUP4 PUSH32 0xF6391F5C32D9C69D2A47EA670B442974B53935D1EDC7FD64EB21E047A839171B PUSH1 0x40 MLOAD PUSH1 0x40 MLOAD DUP1 SWAP2 SUB SWAP1 LOG4 POP POP JUMP JUMPDEST PUSH1 0x0 DUP3 DUP3 GT ISZERO PUSH2 0x11FC JUMPI PUSH1 0x40 MLOAD PUSH3 0x461BCD PUSH1 0xE5 SHL DUP2 MSTORE PUSH1 0x4 ADD PUSH2 0x432 SWAP1 PUSH2 0x2103 JUMP JUMPDEST POP SWAP1 SUB SWAP1 JUMP JUMPDEST PUSH1 0x0 PUSH2 0xB0B DUP4 DUP4 PUSH2 0x1325 JUMP JUMPDEST PUSH1 0x0 PUSH2 0xB0B DUP4 PUSH1 0x1 PUSH1 0x1 PUSH1 0xA0 SHL SUB DUP5 AND PUSH2 0x136A JUMP JUMPDEST PUSH1 0x0 PUSH2 0xB0E DUP3 PUSH2 0x1382 JUMP JUMPDEST PUSH1 0x0 PUSH2 0x123B DUP3 PUSH1 0x0 PUSH2 0x1386 JUMP JUMPDEST SWAP1 POP PUSH2 0x1245 PUSH2 0x16AA JUMP JUMPDEST PUSH1 0x5 SLOAD PUSH1 0x40 MLOAD PUSH4 0xEBD2D6A7 PUSH1 0xE0 SHL DUP2 MSTORE PUSH1 0x1 PUSH1 0x1 PUSH1 0xA0 SHL SUB SWAP1 SWAP2 AND SWAP1 PUSH4 0xEBD2D6A7 SWAP1 PUSH2 0x1275 SWAP1 DUP6 SWAP1 PUSH1 0x4 ADD PUSH2 0x1DAD JUMP JUMPDEST PUSH1 0xE0 PUSH1 0x40 MLOAD DUP1 DUP4 SUB DUP2 DUP7 DUP1 EXTCODESIZE ISZERO DUP1 ISZERO PUSH2 0x128D JUMPI PUSH1 0x0 DUP1 REVERT JUMPDEST POP GAS STATICCALL ISZERO DUP1 ISZERO PUSH2 0x12A1 JUMPI RETURNDATASIZE PUSH1 0x0 DUP1 RETURNDATACOPY RETURNDATASIZE PUSH1 0x0 REVERT JUMPDEST POP POP POP POP PUSH1 0x40 MLOAD RETURNDATASIZE PUSH1 0x1F NOT PUSH1 0x1F DUP3 ADD AND DUP3 ADD DUP1 PUSH1 0x40 MSTORE POP DUP2 ADD SWAP1 PUSH2 0x12C5 SWAP2 SWAP1 PUSH2 0x1C7C JUMP JUMPDEST PUSH1 0x40 DUP2 ADD MLOAD PUSH1 0x60 DUP3 ADD MLOAD PUSH1 0xA0 DUP4 ADD MLOAD PUSH1 0xC0 DUP5 ADD MLOAD SWAP4 SWAP5 POP SWAP2 SWAP3 SWAP1 SWAP2 SWAP1 TIMESTAMP SWAP1 PUSH2 0x12F1 DUP8 DUP7 DUP7 DUP7 DUP7 DUP7 PUSH2 0x13CD JUMP JUMPDEST POP POP POP POP POP POP POP POP JUMP JUMPDEST PUSH1 0x0 PUSH2 0xB0B DUP4 PUSH1 0x1 PUSH1 0x1 PUSH1 0xA0 SHL SUB DUP5 AND PUSH2 0x1575 JUMP JUMPDEST PUSH1 0x0 PUSH2 0xB0B DUP4 PUSH1 0x1 PUSH1 0x1 PUSH1 0xA0 SHL SUB DUP5 AND PUSH2 0x15BF JUMP JUMPDEST DUP2 SLOAD PUSH1 0x0 SWAP1 DUP3 LT PUSH2 0x1348 JUMPI PUSH1 0x40 MLOAD PUSH3 0x461BCD PUSH1 0xE5 SHL DUP2 MSTORE PUSH1 0x4 ADD PUSH2 0x432 SWAP1 PUSH2 0x1F65 JUMP JUMPDEST DUP3 PUSH1 0x0 ADD DUP3 DUP2 SLOAD DUP2 LT PUSH2 0x1357 JUMPI INVALID JUMPDEST SWAP1 PUSH1 0x0 MSTORE PUSH1 0x20 PUSH1 0x0 KECCAK256 ADD SLOAD SWAP1 POP SWAP3 SWAP2 POP POP JUMP JUMPDEST PUSH1 0x0 SWAP1 DUP2 MSTORE PUSH1 0x1 SWAP2 SWAP1 SWAP2 ADD PUSH1 0x20 MSTORE PUSH1 0x40 SWAP1 KECCAK256 SLOAD ISZERO ISZERO SWAP1 JUMP JUMPDEST SLOAD SWAP1 JUMP JUMPDEST PUSH1 0x0 DUP1 PUSH1 0x0 JUMPDEST PUSH1 0x20 DUP2 LT ISZERO PUSH2 0x13C5 JUMPI DUP1 PUSH1 0x8 MUL DUP6 DUP3 DUP7 ADD DUP2 MLOAD DUP2 LT PUSH2 0x13A7 JUMPI INVALID JUMPDEST ADD PUSH1 0x20 ADD MLOAD PUSH1 0x1 PUSH1 0x1 PUSH1 0xF8 SHL SUB NOT AND SWAP1 SHR SWAP2 SWAP1 SWAP2 OR SWAP1 PUSH1 0x1 ADD PUSH2 0x138C JUMP JUMPDEST POP SWAP4 SWAP3 POP POP POP JUMP JUMPDEST PUSH1 0x2 SLOAD PUSH1 0x3 SLOAD PUSH1 0x40 MLOAD PUSH4 0xE8E7E2D1 PUSH1 0xE0 SHL DUP2 MSTORE PUSH1 0x0 SWAP3 PUSH1 0x1 PUSH1 0x1 PUSH1 0xA0 SHL SUB SWAP1 DUP2 AND SWAP3 PUSH4 0xE8E7E2D1 SWAP3 PUSH2 0x1407 SWAP3 SWAP1 SWAP2 AND SWAP1 ADDRESS SWAP1 PUSH1 0x4 ADD PUSH2 0x1E8B JUMP JUMPDEST PUSH1 0x20 PUSH1 0x40 MLOAD DUP1 DUP4 SUB DUP2 DUP7 DUP1 EXTCODESIZE ISZERO DUP1 ISZERO PUSH2 0x141F JUMPI PUSH1 0x0 DUP1 REVERT JUMPDEST POP GAS STATICCALL ISZERO DUP1 ISZERO PUSH2 0x1433 JUMPI RETURNDATASIZE PUSH1 0x0 DUP1 RETURNDATACOPY RETURNDATASIZE PUSH1 0x0 REVERT JUMPDEST POP POP POP POP PUSH1 0x40 MLOAD RETURNDATASIZE PUSH1 0x1F NOT PUSH1 0x1F DUP3 ADD AND DUP3 ADD DUP1 PUSH1 0x40 MSTORE POP DUP2 ADD SWAP1 PUSH2 0x1457 SWAP2 SWAP1 PUSH2 0x1B68 JUMP JUMPDEST PUSH1 0x2 SLOAD PUSH1 0x3 SLOAD PUSH1 0x4 DUP1 SLOAD PUSH1 0x40 MLOAD PUSH4 0x1CD43D11 PUSH1 0xE3 SHL DUP2 MSTORE SWAP5 SWAP6 POP PUSH1 0x0 SWAP5 PUSH1 0x1 PUSH1 0x1 PUSH1 0xA0 SHL SUB SWAP5 DUP6 AND SWAP5 PUSH4 0xE6A1E888 SWAP5 PUSH2 0x1499 SWAP5 SWAP1 DUP3 AND SWAP4 ADDRESS SWAP4 SWAP3 AND SWAP2 ADD PUSH2 0x1EA5 JUMP JUMPDEST PUSH1 0x80 PUSH1 0x40 MLOAD DUP1 DUP4 SUB DUP2 DUP7 DUP1 EXTCODESIZE ISZERO DUP1 ISZERO PUSH2 0x14B1 JUMPI PUSH1 0x0 DUP1 REVERT JUMPDEST POP GAS STATICCALL ISZERO DUP1 ISZERO PUSH2 0x14C5 JUMPI RETURNDATASIZE PUSH1 0x0 DUP1 RETURNDATACOPY RETURNDATASIZE PUSH1 0x0 REVERT JUMPDEST POP POP POP POP PUSH1 0x40 MLOAD RETURNDATASIZE PUSH1 0x1F NOT PUSH1 0x1F DUP3 ADD AND DUP3 ADD DUP1 PUSH1 0x40 MSTORE POP DUP2 ADD SWAP1 PUSH2 0x14E9 SWAP2 SWAP1 PUSH2 0x1CF5 JUMP JUMPDEST POP SWAP1 SWAP3 POP POP POP DUP2 DUP2 ADD PUSH1 0xB SIGNEXTEND PUSH1 0x0 PUSH2 0x1501 DUP6 TIMESTAMP PUSH2 0x11DA JUMP JUMPDEST SWAP1 POP PUSH1 0x0 PUSH2 0x150F TIMESTAMP DUP9 PUSH2 0x11DA JUMP JUMPDEST SWAP1 POP PUSH1 0x0 DUP2 DUP5 MUL SWAP1 POP PUSH1 0x40 MLOAD DUP1 PUSH1 0xC0 ADD PUSH1 0x40 MSTORE DUP1 DUP6 DUP2 MSTORE PUSH1 0x20 ADD DUP3 DUP2 MSTORE PUSH1 0x20 ADD DUP11 DUP2 MSTORE PUSH1 0x20 ADD DUP10 DUP2 MSTORE PUSH1 0x20 ADD DUP5 DUP2 MSTORE PUSH1 0x20 ADD DUP9 DUP2 MSTORE POP PUSH1 0x9 PUSH1 0x0 DUP15 DUP2 MSTORE PUSH1 0x20 ADD SWAP1 DUP2 MSTORE PUSH1 0x20 ADD PUSH1 0x0 KECCAK256 SWAP1 PUSH1 0x6 PUSH2 0x1566 SWAP3 SWAP2 SWAP1 PUSH2 0x16FC JUMP JUMPDEST POP POP POP POP POP POP POP POP POP POP POP POP POP JUMP JUMPDEST PUSH1 0x0 PUSH2 0x1581 DUP4 DUP4 PUSH2 0x136A JUMP JUMPDEST PUSH2 0x15B7 JUMPI POP DUP2 SLOAD PUSH1 0x1 DUP2 DUP2 ADD DUP5 SSTORE PUSH1 0x0 DUP5 DUP2 MSTORE PUSH1 0x20 DUP1 DUP3 KECCAK256 SWAP1 SWAP4 ADD DUP5 SWAP1 SSTORE DUP5 SLOAD DUP5 DUP3 MSTORE DUP3 DUP7 ADD SWAP1 SWAP4 MSTORE PUSH1 0x40 SWAP1 KECCAK256 SWAP2 SWAP1 SWAP2 SSTORE PUSH2 0xB0E JUMP JUMPDEST POP PUSH1 0x0 PUSH2 0xB0E JUMP JUMPDEST PUSH1 0x0 DUP2 DUP2 MSTORE PUSH1 0x1 DUP4 ADD PUSH1 0x20 MSTORE PUSH1 0x40 DUP2 KECCAK256 SLOAD DUP1 ISZERO PUSH2 0x167B JUMPI DUP4 SLOAD PUSH1 0x0 NOT DUP1 DUP4 ADD SWAP2 SWAP1 DUP2 ADD SWAP1 PUSH1 0x0 SWAP1 DUP8 SWAP1 DUP4 SWAP1 DUP2 LT PUSH2 0x15F2 JUMPI INVALID JUMPDEST SWAP1 PUSH1 0x0 MSTORE PUSH1 0x20 PUSH1 0x0 KECCAK256 ADD SLOAD SWAP1 POP DUP1 DUP8 PUSH1 0x0 ADD DUP5 DUP2 SLOAD DUP2 LT PUSH2 0x160F JUMPI INVALID JUMPDEST PUSH1 0x0 SWAP2 DUP3 MSTORE PUSH1 0x20 DUP1 DUP4 KECCAK256 SWAP1 SWAP2 ADD SWAP3 SWAP1 SWAP3 SSTORE DUP3 DUP2 MSTORE PUSH1 0x1 DUP10 DUP2 ADD SWAP1 SWAP3 MSTORE PUSH1 0x40 SWAP1 KECCAK256 SWAP1 DUP5 ADD SWAP1 SSTORE DUP7 SLOAD DUP8 SWAP1 DUP1 PUSH2 0x163F JUMPI INVALID JUMPDEST PUSH1 0x1 SWAP1 SUB DUP2 DUP2 SWAP1 PUSH1 0x0 MSTORE PUSH1 0x20 PUSH1 0x0 KECCAK256 ADD PUSH1 0x0 SWAP1 SSTORE SWAP1 SSTORE DUP7 PUSH1 0x1 ADD PUSH1 0x0 DUP8 DUP2 MSTORE PUSH1 0x20 ADD SWAP1 DUP2 MSTORE PUSH1 0x20 ADD PUSH1 0x0 KECCAK256 PUSH1 0x0 SWAP1 SSTORE PUSH1 0x1 SWAP5 POP POP POP POP POP PUSH2 0xB0E JUMP JUMPDEST PUSH1 0x0 SWAP2 POP POP PUSH2 0xB0E JUMP JUMPDEST POP SWAP3 SWAP2 POP POP JUMP JUMPDEST PUSH1 0x40 MLOAD DUP1 PUSH1 0xA0 ADD PUSH1 0x40 MSTORE DUP1 PUSH1 0x5 SWAP1 PUSH1 0x20 DUP3 MUL DUP1 CALLDATASIZE DUP4 CALLDATACOPY POP SWAP2 SWAP3 SWAP2 POP POP JUMP JUMPDEST PUSH1 0x40 MLOAD DUP1 PUSH1 0xE0 ADD PUSH1 0x40 MSTORE DUP1 PUSH1 0x0 DUP2 MSTORE PUSH1 0x20 ADD PUSH1 0x0 DUP2 MSTORE PUSH1 0x20 ADD PUSH1 0x0 PUSH1 0x1 PUSH1 0x1 PUSH1 0xA0 SHL SUB AND DUP2 MSTORE PUSH1 0x20 ADD PUSH1 0x0 PUSH1 0x1 PUSH1 0x1 PUSH1 0xA0 SHL SUB AND DUP2 MSTORE PUSH1 0x20 ADD PUSH1 0x0 DUP1 NOT AND DUP2 MSTORE PUSH1 0x20 ADD PUSH1 0x0 DUP2 MSTORE PUSH1 0x20 ADD PUSH1 0x0 DUP2 MSTORE POP SWAP1 JUMP JUMPDEST DUP3 DUP1 SLOAD DUP3 DUP3 SSTORE SWAP1 PUSH1 0x0 MSTORE PUSH1 0x20 PUSH1 0x0 KECCAK256 SWAP1 DUP2 ADD SWAP3 DUP3 ISZERO PUSH2 0x1737 JUMPI SWAP2 PUSH1 0x20 MUL DUP3 ADD JUMPDEST DUP3 DUP2 GT ISZERO PUSH2 0x1737 JUMPI DUP3 MLOAD DUP3 SSTORE SWAP2 PUSH1 0x20 ADD SWAP2 SWAP1 PUSH1 0x1 ADD SWAP1 PUSH2 0x171C JUMP JUMPDEST POP PUSH2 0x1743 SWAP3 SWAP2 POP PUSH2 0x1747 JUMP JUMPDEST POP SWAP1 JUMP JUMPDEST JUMPDEST DUP1 DUP3 GT ISZERO PUSH2 0x1743 JUMPI PUSH1 0x0 DUP2 SSTORE PUSH1 0x1 ADD PUSH2 0x1748 JUMP JUMPDEST DUP1 MLOAD PUSH2 0xB0E DUP2 PUSH2 0x2340 JUMP JUMPDEST DUP1 MLOAD PUSH1 0x1 PUSH1 0x1 PUSH1 0xE0 SHL SUB NOT DUP2 AND DUP2 EQ PUSH2 0xB0E JUMPI PUSH1 0x0 DUP1 REVERT JUMPDEST PUSH1 0x0 DUP1 DUP4 PUSH1 0x1F DUP5 ADD SLT PUSH2 0x1790 JUMPI DUP2 DUP3 REVERT JUMPDEST POP DUP2 CALLDATALOAD PUSH8 0xFFFFFFFFFFFFFFFF DUP2 GT ISZERO PUSH2 0x17A7 JUMPI DUP2 DUP3 REVERT JUMPDEST PUSH1 0x20 DUP4 ADD SWAP2 POP DUP4 PUSH1 0x20 DUP3 DUP6 ADD ADD GT ISZERO PUSH2 0x17BF JUMPI PUSH1 0x0 DUP1 REVERT JUMPDEST SWAP3 POP SWAP3 SWAP1 POP JUMP JUMPDEST PUSH1 0x0 DUP3 PUSH1 0x1F DUP4 ADD SLT PUSH2 0x17D6 JUMPI DUP1 DUP2 REVERT JUMPDEST DUP2 MLOAD PUSH2 0x17E9 PUSH2 0x17E4 DUP3 PUSH2 0x22F0 JUMP JUMPDEST PUSH2 0x22C9 JUMP JUMPDEST SWAP2 POP DUP1 DUP3 MSTORE DUP4 PUSH1 0x20 DUP3 DUP6 ADD ADD GT ISZERO PUSH2 0x1800 JUMPI PUSH1 0x0 DUP1 REVERT JUMPDEST PUSH2 0x1685 DUP2 PUSH1 0x20 DUP5 ADD PUSH1 0x20 DUP7 ADD PUSH2 0x2314 JUMP JUMPDEST DUP1 MLOAD PUSH1 0xB DUP2 SWAP1 SIGNEXTEND DUP2 EQ PUSH2 0xB0E JUMPI PUSH1 0x0 DUP1 REVERT JUMPDEST DUP1 MLOAD PUSH1 0xFF DUP2 AND DUP2 EQ PUSH2 0xB0E JUMPI PUSH1 0x0 DUP1 REVERT JUMPDEST PUSH1 0x0 PUSH1 0x20 DUP3 DUP5 SUB SLT ISZERO PUSH2 0x1845 JUMPI DUP1 DUP2 REVERT JUMPDEST DUP2 CALLDATALOAD PUSH2 0x1850 DUP2 PUSH2 0x2340 JUMP JUMPDEST SWAP4 SWAP3 POP POP POP JUMP JUMPDEST PUSH1 0x0 DUP1 PUSH1 0x0 PUSH1 0x60 DUP5 DUP7 SUB SLT ISZERO PUSH2 0x186B JUMPI DUP2 DUP3 REVERT JUMPDEST DUP4 CALLDATALOAD PUSH2 0x1876 DUP2 PUSH2 0x2340 JUMP JUMPDEST SWAP3 POP PUSH1 0x20 DUP5 ADD CALLDATALOAD SWAP2 POP PUSH1 0x40 DUP5 ADD CALLDATALOAD PUSH8 0xFFFFFFFFFFFFFFFF DUP2 GT ISZERO PUSH2 0x1898 JUMPI DUP2 DUP3 REVERT JUMPDEST DUP5 ADD PUSH1 0x1F DUP2 ADD DUP7 SGT PUSH2 0x18A8 JUMPI DUP2 DUP3 REVERT JUMPDEST DUP1 CALLDATALOAD PUSH2 0x18B6 PUSH2 0x17E4 DUP3 PUSH2 0x22F0 JUMP JUMPDEST DUP2 DUP2 MSTORE DUP8 PUSH1 0x20 DUP4 DUP6 ADD ADD GT ISZERO PUSH2 0x18CA JUMPI DUP4 DUP5 REVERT JUMPDEST DUP2 PUSH1 0x20 DUP5 ADD PUSH1 0x20 DUP4 ADD CALLDATACOPY DUP4 PUSH1 0x20 DUP4 DUP4 ADD ADD MSTORE DUP1 SWAP4 POP POP POP POP SWAP3 POP SWAP3 POP SWAP3 JUMP JUMPDEST PUSH1 0x0 PUSH1 0x20 DUP3 DUP5 SUB SLT ISZERO PUSH2 0x18FA JUMPI DUP1 DUP2 REVERT JUMPDEST POP CALLDATALOAD SWAP2 SWAP1 POP JUMP JUMPDEST PUSH1 0x0 PUSH1 0x20 DUP3 DUP5 SUB SLT ISZERO PUSH2 0x1912 JUMPI DUP1 DUP2 REVERT JUMPDEST POP MLOAD SWAP2 SWAP1 POP JUMP JUMPDEST PUSH1 0x0 DUP1 PUSH1 0x40 DUP4 DUP6 SUB SLT ISZERO PUSH2 0x192B JUMPI DUP2 DUP3 REVERT JUMPDEST DUP3 CALLDATALOAD SWAP2 POP PUSH1 0x20 DUP4 ADD CALLDATALOAD PUSH2 0x193D DUP2 PUSH2 0x2340 JUMP JUMPDEST DUP1 SWAP2 POP POP SWAP3 POP SWAP3 SWAP1 POP JUMP JUMPDEST PUSH1 0x0 DUP1 PUSH1 0x40 DUP4 DUP6 SUB SLT ISZERO PUSH2 0x195A JUMPI DUP2 DUP3 REVERT JUMPDEST POP POP DUP1 CALLDATALOAD SWAP3 PUSH1 0x20 SWAP1 SWAP2 ADD CALLDATALOAD SWAP2 POP JUMP JUMPDEST PUSH1 0x0 PUSH1 0x20 DUP3 DUP5 SUB SLT ISZERO PUSH2 0x197A JUMPI DUP1 DUP2 REVERT JUMPDEST DUP2 MLOAD PUSH8 0xFFFFFFFFFFFFFFFF DUP2 GT ISZERO PUSH2 0x1990 JUMPI DUP2 DUP3 REVERT JUMPDEST PUSH2 0x199C DUP5 DUP3 DUP6 ADD PUSH2 0x17C6 JUMP JUMPDEST SWAP5 SWAP4 POP POP POP POP JUMP JUMPDEST PUSH1 0x0 DUP1 PUSH1 0x40 DUP4 DUP6 SUB SLT ISZERO PUSH2 0x19B6 JUMPI DUP2 DUP3 REVERT JUMPDEST DUP3 MLOAD PUSH8 0xFFFFFFFFFFFFFFFF DUP1 DUP3 GT ISZERO PUSH2 0x19CD JUMPI DUP4 DUP5 REVERT JUMPDEST PUSH2 0x19D9 DUP7 DUP4 DUP8 ADD PUSH2 0x17C6 JUMP JUMPDEST SWAP4 POP PUSH1 0x20 DUP6 ADD MLOAD SWAP2 POP DUP1 DUP3 GT ISZERO PUSH2 0x19EE JUMPI DUP3 DUP4 REVERT JUMPDEST POP PUSH2 0x19FB DUP6 DUP3 DUP7 ADD PUSH2 0x17C6 JUMP JUMPDEST SWAP2 POP POP SWAP3 POP SWAP3 SWAP1 POP JUMP JUMPDEST PUSH1 0x0 DUP1 PUSH1 0x0 DUP1 PUSH1 0x0 DUP1 PUSH1 0x0 PUSH1 0xA0 DUP9 DUP11 SUB SLT ISZERO PUSH2 0x1A1F JUMPI DUP5 DUP6 REVERT JUMPDEST DUP8 CALLDATALOAD PUSH2 0x1A2A DUP2 PUSH2 0x2340 JUMP JUMPDEST SWAP7 POP PUSH1 0x20 DUP9 ADD CALLDATALOAD PUSH2 0x1A3A DUP2 PUSH2 0x2340 JUMP JUMPDEST SWAP6 POP PUSH1 0x40 DUP9 ADD CALLDATALOAD SWAP5 POP PUSH1 0x60 DUP9 ADD CALLDATALOAD PUSH8 0xFFFFFFFFFFFFFFFF DUP1 DUP3 GT ISZERO PUSH2 0x1A5D JUMPI DUP5 DUP6 REVERT JUMPDEST PUSH2 0x1A69 DUP12 DUP4 DUP13 ADD PUSH2 0x177F JUMP JUMPDEST SWAP1 SWAP7 POP SWAP5 POP PUSH1 0x80 DUP11 ADD CALLDATALOAD SWAP2 POP DUP1 DUP3 GT ISZERO PUSH2 0x1A81 JUMPI DUP4 DUP5 REVERT JUMPDEST POP PUSH2 0x1A8E DUP11 DUP3 DUP12 ADD PUSH2 0x177F JUMP JUMPDEST SWAP9 SWAP12 SWAP8 SWAP11 POP SWAP6 SWAP9 POP SWAP4 SWAP7 SWAP3 SWAP6 SWAP3 SWAP4 POP POP POP JUMP JUMPDEST PUSH1 0x0 DUP1 PUSH1 0x0 DUP1 PUSH1 0x0 DUP1 PUSH1 0x0 DUP1 PUSH1 0x0 PUSH1 0xC0 DUP11 DUP13 SUB SLT ISZERO PUSH2 0x1ABE JUMPI DUP3 DUP4 REVERT JUMPDEST DUP10 CALLDATALOAD PUSH2 0x1AC9 DUP2 PUSH2 0x2340 JUMP JUMPDEST SWAP9 POP PUSH1 0x20 DUP11 ADD CALLDATALOAD PUSH2 0x1AD9 DUP2 PUSH2 0x2340 JUMP JUMPDEST SWAP8 POP PUSH1 0x40 DUP11 ADD CALLDATALOAD SWAP7 POP PUSH1 0x60 DUP11 ADD CALLDATALOAD PUSH8 0xFFFFFFFFFFFFFFFF DUP1 DUP3 GT ISZERO PUSH2 0x1AFC JUMPI DUP5 DUP6 REVERT JUMPDEST PUSH2 0x1B08 DUP14 DUP4 DUP15 ADD PUSH2 0x177F JUMP JUMPDEST SWAP1 SWAP9 POP SWAP7 POP PUSH1 0x80 DUP13 ADD CALLDATALOAD SWAP2 POP DUP1 DUP3 GT ISZERO PUSH2 0x1B20 JUMPI DUP5 DUP6 REVERT JUMPDEST PUSH2 0x1B2C DUP14 DUP4 DUP15 ADD PUSH2 0x177F JUMP JUMPDEST SWAP1 SWAP7 POP SWAP5 POP PUSH1 0xA0 DUP13 ADD CALLDATALOAD SWAP2 POP DUP1 DUP3 GT ISZERO PUSH2 0x1B44 JUMPI DUP4 DUP5 REVERT JUMPDEST POP PUSH2 0x1B51 DUP13 DUP3 DUP14 ADD PUSH2 0x177F JUMP JUMPDEST SWAP2 POP DUP1 SWAP4 POP POP DUP1 SWAP2 POP POP SWAP3 SWAP6 SWAP9 POP SWAP3 SWAP6 SWAP9 POP SWAP3 SWAP6 SWAP9 JUMP JUMPDEST PUSH1 0x0 PUSH1 0x20 DUP3 DUP5 SUB SLT ISZERO PUSH2 0x1B79 JUMPI DUP1 DUP2 REVERT JUMPDEST PUSH2 0xB0B DUP4 DUP4 PUSH2 0x1811 JUMP JUMPDEST PUSH1 0x0 PUSH1 0x20 DUP3 DUP5 SUB SLT ISZERO PUSH2 0x1B94 JUMPI DUP1 DUP2 REVERT JUMPDEST DUP2 MLOAD PUSH8 0xFFFFFFFFFFFFFFFF DUP1 DUP3 GT ISZERO PUSH2 0x1BAB JUMPI DUP3 DUP4 REVERT JUMPDEST DUP2 DUP5 ADD SWAP2 POP PUSH2 0x140 DUP1 DUP4 DUP8 SUB SLT ISZERO PUSH2 0x1BC1 JUMPI DUP4 DUP5 REVERT JUMPDEST PUSH2 0x1BCA DUP2 PUSH2 0x22C9 JUMP JUMPDEST SWAP1 POP PUSH2 0x1BD6 DUP7 DUP5 PUSH2 0x1823 JUMP JUMPDEST DUP2 MSTORE PUSH2 0x1BE5 DUP7 PUSH1 0x20 DUP6 ADD PUSH2 0x1823 JUMP JUMPDEST PUSH1 0x20 DUP3 ADD MSTORE PUSH1 0x40 DUP4 ADD MLOAD PUSH1 0x40 DUP3 ADD MSTORE PUSH2 0x1C01 DUP7 PUSH1 0x60 DUP6 ADD PUSH2 0x175C JUMP JUMPDEST PUSH1 0x60 DUP3 ADD MSTORE PUSH2 0x1C13 DUP7 PUSH1 0x80 DUP6 ADD PUSH2 0x1767 JUMP JUMPDEST PUSH1 0x80 DUP3 ADD MSTORE PUSH1 0xA0 DUP4 ADD MLOAD DUP3 DUP2 GT ISZERO PUSH2 0x1C29 JUMPI DUP5 DUP6 REVERT JUMPDEST PUSH2 0x1C35 DUP8 DUP3 DUP7 ADD PUSH2 0x17C6 JUMP JUMPDEST PUSH1 0xA0 DUP4 ADD MSTORE POP PUSH1 0xC0 DUP4 ADD MLOAD PUSH1 0xC0 DUP3 ADD MSTORE PUSH1 0xE0 DUP4 ADD MLOAD PUSH1 0xE0 DUP3 ADD MSTORE PUSH2 0x100 SWAP2 POP DUP2 DUP4 ADD MLOAD DUP3 DUP3 ADD MSTORE PUSH2 0x120 SWAP2 POP PUSH2 0x1C6D DUP7 DUP4 DUP6 ADD PUSH2 0x175C JUMP JUMPDEST SWAP2 DUP2 ADD SWAP2 SWAP1 SWAP2 MSTORE SWAP5 SWAP4 POP POP POP POP JUMP JUMPDEST PUSH1 0x0 PUSH1 0xE0 DUP3 DUP5 SUB SLT ISZERO PUSH2 0x1C8D JUMPI DUP1 DUP2 REVERT JUMPDEST PUSH2 0x1C97 PUSH1 0xE0 PUSH2 0x22C9 JUMP JUMPDEST DUP3 MLOAD DUP2 MSTORE PUSH1 0x20 DUP4 ADD MLOAD PUSH1 0x20 DUP3 ADD MSTORE PUSH1 0x40 DUP4 ADD MLOAD PUSH2 0x1CB3 DUP2 PUSH2 0x2340 JUMP JUMPDEST PUSH1 0x40 DUP3 ADD MSTORE PUSH1 0x60 DUP4 ADD MLOAD PUSH2 0x1CC6 DUP2 PUSH2 0x2340 JUMP JUMPDEST DUP1 PUSH1 0x60 DUP4 ADD MSTORE POP PUSH1 0x80 DUP4 ADD MLOAD PUSH1 0x80 DUP3 ADD MSTORE PUSH1 0xA0 DUP4 ADD MLOAD PUSH1 0xA0 DUP3 ADD MSTORE PUSH1 0xC0 DUP4 ADD MLOAD PUSH1 0xC0 DUP3 ADD MSTORE DUP1 SWAP2 POP POP SWAP3 SWAP2 POP POP JUMP JUMPDEST PUSH1 0x0 DUP1 PUSH1 0x0 DUP1 PUSH1 0x80 DUP6 DUP8 SUB SLT ISZERO PUSH2 0x1D0A JUMPI DUP2 DUP3 REVERT JUMPDEST DUP5 MLOAD SWAP4 POP PUSH2 0x1D1B DUP7 PUSH1 0x20 DUP8 ADD PUSH2 0x1811 JUMP JUMPDEST PUSH1 0x40 DUP7 ADD MLOAD PUSH1 0x60 SWAP1 SWAP7 ADD MLOAD SWAP5 SWAP8 SWAP1 SWAP7 POP SWAP3 POP POP POP JUMP JUMPDEST PUSH1 0x0 DUP2 MLOAD DUP1 DUP5 MSTORE PUSH2 0x1D49 DUP2 PUSH1 0x20 DUP7 ADD PUSH1 0x20 DUP7 ADD PUSH2 0x2314 JUMP JUMPDEST PUSH1 0x1F ADD PUSH1 0x1F NOT AND SWAP3 SWAP1 SWAP3 ADD PUSH1 0x20 ADD SWAP3 SWAP2 POP POP JUMP JUMPDEST PUSH1 0x1 PUSH1 0x1 PUSH1 0xA0 SHL SUB SWAP2 SWAP1 SWAP2 AND DUP2 MSTORE PUSH1 0x20 ADD SWAP1 JUMP JUMPDEST PUSH1 0xA0 DUP2 ADD DUP2 DUP4 PUSH1 0x0 JUMPDEST PUSH1 0x5 DUP2 LT ISZERO PUSH2 0x1D99 JUMPI DUP2 MLOAD DUP4 MSTORE PUSH1 0x20 SWAP3 DUP4 ADD SWAP3 SWAP1 SWAP2 ADD SWAP1 PUSH1 0x1 ADD PUSH2 0x1D7A JUMP JUMPDEST POP POP POP SWAP3 SWAP2 POP POP JUMP JUMPDEST SWAP1 ISZERO ISZERO DUP2 MSTORE PUSH1 0x20 ADD SWAP1 JUMP JUMPDEST SWAP1 DUP2 MSTORE PUSH1 0x20 ADD SWAP1 JUMP JUMPDEST PUSH1 0x0 PUSH1 0x20 DUP3 MSTORE DUP3 PUSH1 0x20 DUP4 ADD MSTORE DUP3 DUP5 PUSH1 0x40 DUP5 ADD CALLDATACOPY DUP2 DUP4 ADD PUSH1 0x40 SWAP1 DUP2 ADD SWAP2 SWAP1 SWAP2 MSTORE PUSH1 0x1F SWAP1 SWAP3 ADD PUSH1 0x1F NOT AND ADD ADD SWAP2 SWAP1 POP JUMP JUMPDEST PUSH1 0x0 PUSH1 0x20 DUP3 MSTORE PUSH2 0xB0B PUSH1 0x20 DUP4 ADD DUP5 PUSH2 0x1D31 JUMP JUMPDEST PUSH1 0x1 PUSH1 0x1 PUSH1 0xA0 SHL SUB DUP5 AND DUP2 MSTORE PUSH1 0x60 PUSH1 0x20 DUP3 ADD DUP2 SWAP1 MSTORE PUSH1 0x0 SWAP1 PUSH2 0x1E1C SWAP1 DUP4 ADD DUP6 PUSH2 0x1D31 JUMP JUMPDEST DUP3 DUP2 SUB PUSH1 0x40 DUP5 ADD MSTORE PUSH2 0x1E2E DUP2 DUP6 PUSH2 0x1D31 JUMP JUMPDEST SWAP7 SWAP6 POP POP POP POP POP POP JUMP JUMPDEST PUSH1 0x1 PUSH1 0x1 PUSH1 0xA0 SHL SUB DUP5 AND DUP2 MSTORE PUSH1 0x80 PUSH1 0x20 DUP3 ADD DUP2 SWAP1 MSTORE PUSH1 0x0 SWAP1 PUSH2 0x1E5C SWAP1 DUP4 ADD DUP6 PUSH2 0x1D31 JUMP JUMPDEST DUP3 DUP2 SUB DUP1 PUSH1 0x40 DUP6 ADD MSTORE PUSH1 0x2 DUP3 MSTORE PUSH2 0x60F PUSH1 0xF3 SHL PUSH1 0x20 DUP4 ADD MSTORE PUSH1 0x40 DUP2 ADD PUSH1 0x60 DUP6 ADD MSTORE POP PUSH2 0x1E2E PUSH1 0x40 DUP3 ADD DUP6 PUSH2 0x1D31 JUMP JUMPDEST PUSH1 0x1 PUSH1 0x1 PUSH1 0xA0 SHL SUB SWAP3 DUP4 AND DUP2 MSTORE SWAP2 AND PUSH1 0x20 DUP3 ADD MSTORE PUSH1 0x40 ADD SWAP1 JUMP JUMPDEST PUSH1 0x1 PUSH1 0x1 PUSH1 0xA0 SHL SUB SWAP4 DUP5 AND DUP2 MSTORE SWAP2 DUP4 AND PUSH1 0x20 DUP4 ADD MSTORE SWAP1 SWAP2 AND PUSH1 0x40 DUP3 ADD MSTORE PUSH1 0x60 ADD SWAP1 JUMP JUMPDEST PUSH1 0x1 PUSH1 0x1 PUSH1 0xA0 SHL SUB DUP6 DUP2 AND DUP3 MSTORE DUP5 DUP2 AND PUSH1 0x20 DUP4 ADD MSTORE DUP4 AND PUSH1 0x40 DUP3 ADD MSTORE PUSH1 0x80 PUSH1 0x60 DUP3 ADD DUP2 SWAP1 MSTORE PUSH1 0x0 SWAP1 PUSH2 0x1E2E SWAP1 DUP4 ADD DUP5 PUSH2 0x1D31 JUMP JUMPDEST PUSH1 0x1 PUSH1 0x1 PUSH1 0xA0 SHL SUB DUP6 DUP2 AND DUP3 MSTORE DUP5 AND PUSH1 0x20 DUP3 ADD MSTORE PUSH1 0xB DUP4 SWAP1 SIGNEXTEND PUSH1 0x40 DUP3 ADD MSTORE PUSH1 0x80 PUSH1 0x60 DUP3 ADD DUP2 SWAP1 MSTORE PUSH1 0x0 SWAP1 PUSH2 0x1E2E SWAP1 DUP4 ADD DUP5 PUSH2 0x1D31 JUMP JUMPDEST PUSH1 0x1 PUSH1 0x1 PUSH1 0xA0 SHL SUB DUP6 DUP2 AND DUP3 MSTORE DUP5 AND PUSH1 0x20 DUP3 ADD MSTORE PUSH1 0x40 DUP2 ADD DUP4 SWAP1 MSTORE PUSH1 0x80 PUSH1 0x60 DUP3 ADD DUP2 SWAP1 MSTORE PUSH1 0x0 SWAP1 PUSH2 0x1E2E SWAP1 DUP4 ADD DUP5 PUSH2 0x1D31 JUMP JUMPDEST PUSH1 0x20 DUP1 DUP3 MSTORE PUSH1 0x22 SWAP1 DUP3 ADD MSTORE PUSH32 0x456E756D657261626C655365743A20696E646578206F7574206F6620626F756E PUSH1 0x40 DUP3 ADD MSTORE PUSH2 0x6473 PUSH1 0xF0 SHL PUSH1 0x60 DUP3 ADD MSTORE PUSH1 0x80 ADD SWAP1 JUMP JUMPDEST PUSH1 0x20 DUP1 DUP3 MSTORE PUSH1 0x2F SWAP1 DUP3 ADD MSTORE PUSH32 0x416363657373436F6E74726F6C3A2073656E646572206D75737420626520616E PUSH1 0x40 DUP3 ADD MSTORE PUSH15 0x818591B5A5B881D1BC819DC985B9D PUSH1 0x8A SHL PUSH1 0x60 DUP3 ADD MSTORE PUSH1 0x80 ADD SWAP1 JUMP JUMPDEST PUSH1 0x20 DUP1 DUP3 MSTORE PUSH1 0x21 SWAP1 DUP3 ADD MSTORE PUSH32 0x5265646972656374416C6C3A206F6E6C7920434641763120737570706F727465 PUSH1 0x40 DUP3 ADD MSTORE PUSH1 0x19 PUSH1 0xFA SHL PUSH1 0x60 DUP3 ADD MSTORE PUSH1 0x80 ADD SWAP1 JUMP JUMPDEST PUSH1 0x20 DUP1 DUP3 MSTORE PUSH1 0x1F SWAP1 DUP3 ADD MSTORE PUSH32 0x5265646972656374416C6C3A206E6F7420616363657074656420746F6B656E00 PUSH1 0x40 DUP3 ADD MSTORE PUSH1 0x60 ADD SWAP1 JUMP JUMPDEST PUSH1 0x20 DUP1 DUP3 MSTORE PUSH1 0x33 SWAP1 DUP3 ADD MSTORE PUSH32 0x556E737570706F727465642063616C6C6261636B202D20204265666F72652041 PUSH1 0x40 DUP3 ADD MSTORE PUSH19 0x19DC99595B595B9D0815195C9B5A5B985D1959 PUSH1 0x6A SHL PUSH1 0x60 DUP3 ADD MSTORE PUSH1 0x80 ADD SWAP1 JUMP JUMPDEST PUSH1 0x20 DUP1 DUP3 MSTORE PUSH1 0x22 SWAP1 DUP3 ADD MSTORE PUSH32 0x5265646972656374416C6C3A20737570706F7274206F6E6C79206F6E6520686F PUSH1 0x40 DUP3 ADD MSTORE PUSH2 0x1CDD PUSH1 0xF2 SHL PUSH1 0x60 DUP3 ADD MSTORE PUSH1 0x80 ADD SWAP1 JUMP JUMPDEST PUSH1 0x20 DUP1 DUP3 MSTORE PUSH1 0x1E SWAP1 DUP3 ADD MSTORE PUSH32 0x536166654D6174683A207375627472616374696F6E206F766572666C6F770000 PUSH1 0x40 DUP3 ADD MSTORE PUSH1 0x60 ADD SWAP1 JUMP JUMPDEST PUSH1 0x20 DUP1 DUP3 MSTORE PUSH1 0x30 SWAP1 DUP3 ADD MSTORE PUSH32 0x416363657373436F6E74726F6C3A2073656E646572206D75737420626520616E PUSH1 0x40 DUP3 ADD MSTORE PUSH16 0x2061646D696E20746F207265766F6B65 PUSH1 0x80 SHL PUSH1 0x60 DUP3 ADD MSTORE PUSH1 0x80 ADD SWAP1 JUMP JUMPDEST PUSH1 0x20 DUP1 DUP3 MSTORE PUSH1 0x2F SWAP1 DUP3 ADD MSTORE PUSH32 0x556E737570706F727465642063616C6C6261636B202D204265666F7265204167 PUSH1 0x40 DUP3 ADD MSTORE PUSH15 0x1C99595B595B9D081D5C19185D1959 PUSH1 0x8A SHL PUSH1 0x60 DUP3 ADD MSTORE PUSH1 0x80 ADD SWAP1 JUMP JUMPDEST PUSH1 0x20 DUP1 DUP3 MSTORE PUSH1 0x16 SWAP1 DUP3 ADD MSTORE PUSH22 0x21B0B63632B91034B9903737BA1030B71030B236B4B7 PUSH1 0x51 SHL PUSH1 0x40 DUP3 ADD MSTORE PUSH1 0x60 ADD SWAP1 JUMP JUMPDEST PUSH1 0x20 DUP1 DUP3 MSTORE PUSH1 0x2F SWAP1 DUP3 ADD MSTORE PUSH32 0x556E737570706F727465642063616C6C6261636B202D204265666F7265204167 PUSH1 0x40 DUP3 ADD MSTORE PUSH15 0x1C99595B595B9D0810DC99585D1959 PUSH1 0x8A SHL PUSH1 0x60 DUP3 ADD MSTORE PUSH1 0x80 ADD SWAP1 JUMP JUMPDEST PUSH1 0x20 DUP1 DUP3 MSTORE PUSH1 0x2F SWAP1 DUP3 ADD MSTORE PUSH32 0x416363657373436F6E74726F6C3A2063616E206F6E6C792072656E6F756E6365 PUSH1 0x40 DUP3 ADD MSTORE PUSH15 0x103937B632B9903337B91039B2B633 PUSH1 0x89 SHL PUSH1 0x60 DUP3 ADD MSTORE PUSH1 0x80 ADD SWAP1 JUMP JUMPDEST SWAP3 DUP4 MSTORE PUSH1 0x1 PUSH1 0x1 PUSH1 0xA0 SHL SUB SWAP2 SWAP1 SWAP2 AND PUSH1 0x20 DUP4 ADD MSTORE PUSH1 0xB SIGNEXTEND PUSH1 0x40 DUP3 ADD MSTORE PUSH1 0x60 ADD SWAP1 JUMP JUMPDEST PUSH1 0x40 MLOAD DUP2 DUP2 ADD PUSH8 0xFFFFFFFFFFFFFFFF DUP2 GT DUP3 DUP3 LT OR ISZERO PUSH2 0x22E8 JUMPI PUSH1 0x0 DUP1 REVERT JUMPDEST PUSH1 0x40 MSTORE SWAP2 SWAP1 POP JUMP JUMPDEST PUSH1 0x0 PUSH8 0xFFFFFFFFFFFFFFFF DUP3 GT ISZERO PUSH2 0x2306 JUMPI DUP1 DUP2 REVERT JUMPDEST POP PUSH1 0x1F ADD PUSH1 0x1F NOT AND PUSH1 0x20 ADD SWAP1 JUMP JUMPDEST PUSH1 0x0 JUMPDEST DUP4 DUP2 LT ISZERO PUSH2 0x232F JUMPI DUP2 DUP2 ADD MLOAD DUP4 DUP3 ADD MSTORE PUSH1 0x20 ADD PUSH2 0x2317 JUMP JUMPDEST DUP4 DUP2 GT ISZERO PUSH2 0xC48 JUMPI POP POP PUSH1 0x0 SWAP2 ADD MSTORE JUMP JUMPDEST PUSH1 0x1 PUSH1 0x1 PUSH1 0xA0 SHL SUB DUP2 AND DUP2 EQ PUSH2 0x2355 JUMPI PUSH1 0x0 DUP1 REVERT JUMPDEST POP JUMP INVALID LOG2 PUSH5 0x6970667358 0x22 SLT KECCAK256 0xC5 PUSH11 0x2EF81428AB52C02AD3297 0xF8 SDIV 0xAE BYTE 0xF9 0xC4 SGT 0xAA 0xE3 0xCE EXP PUSH23 0x7AE8E549E97E5C64736F6C634300070100330000000000 ",
  "sha1": "3da20ed6cf7974d2a0b533ec118e4704655496d6",
  "source": "// SPDX-License-Identifier: MIT\npragma solidity >=0.6.6;\npragma experimental ABIEncoderV2;\n\nimport {\n    ISuperfluid,\n    ISuperToken,\n    ISuperApp,\n    ISuperAgreement,\n    SuperAppDefinitions\n} from \"@superfluid-finance/ethereum-contracts/contracts/interfaces/superfluid/ISuperfluid.sol\";//\"@superfluid-finance/ethereum-monorepo/packages/ethereum-contracts/contracts/interfaces/superfluid/ISuperfluid.sol\";\n\nimport {\n    IConstantFlowAgreementV1\n} from \"@superfluid-finance/ethereum-contracts/contracts/interfaces/agreements/IConstantFlowAgreementV1.sol\";\n\nimport {\n    SuperAppBase\n} from \"@superfluid-finance/ethereum-contracts/contracts/apps/SuperAppBase.sol\";\n\nimport \"@openzeppelin/contracts/access/AccessControl.sol\";\nimport \"./TennerrEscrow.sol\";\nimport \"./TennerrFactory.sol\";\n\ncontract TennerrStreamer is SuperAppBase, AccessControl {\n    using SafeMath for uint;\n\n    ISuperfluid private _host; // host\n    IConstantFlowAgreementV1 private _cfa; // the stored constant flow agreement class address\n    ISuperToken private _acceptedToken; // accepted token\n    address private _receiver; // escrow\n\n    bytes32 public constant ADMIN_ROLE = keccak256(\"ADMIN_ROLE\");\n\n    // initiialize escrow\n    TennerrEscrow public tennerrEscrow;\n    address payable private _tennerrEscrowContractAddress;\n\n    // address of the tennerr factory\n    address payable private _tennerrFactoryContractAddress;\n    // tennerr contract\n    TennerrFactory public tennerrFactory;\n\n    mapping(bytes32 => uint[]) public streamByJobId;\n\n    struct Order {\n        uint orderId;\n        uint sellerId;\n        address buyer;\n        address seller;\n        bytes32 jobId;\n        uint orderPrice;\n        uint absDeadline;\n    }\n\n\n    constructor(\n        ISuperfluid host,\n        IConstantFlowAgreementV1 cfa,\n        ISuperToken acceptedToken,\n        address receiver) {\n        require(address(host) != address(0), \"host is zero address\");\n        require(address(cfa) != address(0), \"cfa is zero address\");\n        require(address(acceptedToken) != address(0), \"acceptedToken is zero address\");\n        require(address(receiver) != address(0), \"receiver is zero address\");\n        require(!host.isApp(ISuperApp(receiver)), \"receiver is an app\");\n\n        _host = host;\n        _cfa = cfa;\n        _acceptedToken = acceptedToken;\n        _receiver = receiver;\n\n        uint256 configWord =\n            SuperAppDefinitions.APP_LEVEL_FINAL |\n            SuperAppDefinitions.BEFORE_AGREEMENT_CREATED_NOOP |\n            SuperAppDefinitions.BEFORE_AGREEMENT_UPDATED_NOOP |\n            SuperAppDefinitions.BEFORE_AGREEMENT_TERMINATED_NOOP;\n\n        /* _host.registerAppWithKey(configWord, \"0x756f6154ee853e3dfb570b618e185b3ba4652ccfd78df06eb57e16cf1f0656fc\"); */\n        _host.registerApp(configWord);\n\n    }\n\n\n    /**************************************************************************\n     * Redirect Logic\n     *************************************************************************/\n\n    function currentReceiver()\n        external view\n        returns (\n            uint256 startTime,\n            address receiver,\n            int96 flowRate\n        )\n    {\n        if (_receiver != address(0)) {\n            (startTime, flowRate,,) = _cfa.getFlow(_acceptedToken, address(this), _receiver);\n            receiver = _receiver;\n        }\n    }\n\n    event ReceiverChanged(address receiver);\n\n    /// @dev If a new stream is opened, or an existing one is opened\n    function _updateOutflow(bytes calldata ctx, bytes memory userData)\n        private\n        returns (bytes memory newCtx)\n    {\n\n      newCtx = ctx;\n      // @dev This will give me the new flowRate, as it is called in after callbacks\n      int96 netFlowRate = _cfa.getNetFlow(_acceptedToken, address(this));\n      (,int96 outFlowRate,,) = _cfa.getFlow(_acceptedToken, address(this), _receiver); // CHECK: unclear what happens if flow doesn't exist.\n      int96 inFlowRate = netFlowRate + outFlowRate;\n\n      /* use userData to update internal accounting */\n      _accountingCache(userData);\n\n      // @dev If inFlowRate === 0, then delete existing flow.\n      if (inFlowRate == int96(0)) {\n        // @dev if inFlowRate is zero, delete outflow.\n          (newCtx, ) = _host.callAgreementWithContext(\n              _cfa,\n              abi.encodeWithSelector(\n                  _cfa.deleteFlow.selector,\n                  _acceptedToken,\n                  address(this),\n                  _receiver,\n                  new bytes(0) // placeholder\n              ),\n              \"0x\",\n              newCtx\n          );\n        } else if (outFlowRate != int96(0)){\n        (newCtx, ) = _host.callAgreementWithContext(\n            _cfa,\n            abi.encodeWithSelector(\n                _cfa.updateFlow.selector,\n                _acceptedToken,\n                _receiver,\n                inFlowRate,\n                new bytes(0) // placeholder\n            ),\n            \"0x\",\n            newCtx\n        );\n      } else {\n      // @dev If there is no existing outflow, then create new flow to equal inflow\n          (newCtx, ) = _host.callAgreementWithContext(\n              _cfa,\n              abi.encodeWithSelector(\n                  _cfa.createFlow.selector,\n                  _acceptedToken,\n                  _receiver,\n                  inFlowRate,\n                  new bytes(0) // placeholder\n              ),\n              \"0x\",\n              newCtx\n          );\n      }\n    }\n\n    function _accountingCache(bytes memory userData) internal {\n        bytes32 jobId = bytesToBytes32(userData,0);\n        TennerrEscrow.Order memory order = tennerrEscrow.getQuoteData(jobId);\n        address buyer = order.buyer;\n        address seller = order.seller;\n        uint amount = order.orderPrice;\n        uint streamStart = block.timestamp;\n        uint deadline = order.absDeadline;\n        _updateStreamData(jobId,buyer, seller, amount, streamStart, deadline);\n    }\n\n    function bytesToBytes32(bytes memory b, uint offset) private pure returns (bytes32) {\n      bytes32 out;\n\n      for (uint i = 0; i < 32; i++) {\n        out |= bytes32(b[offset + i] & 0xFF) >> (i * 8);\n      }\n      return out;\n    }\n\n    function _updateStreamData(\n      bytes32 jobId,\n      address buyer,\n      address seller,\n      uint amount,\n      uint streamStart,\n      uint deadline) internal {\n        // @dev This will give me the new flowRate, as it is called in after callbacks\n        int96 netFlowRate = _cfa.getNetFlow(_acceptedToken, address(this));\n        (,int96 outFlowRate,,) = _cfa.getFlow(_acceptedToken, address(this), _receiver); // CHECK: unclear what happens if flow doesn't exist.\n        uint inFlowRate = uint(netFlowRate + outFlowRate);\n        uint timeLeft = deadline.sub(block.timestamp);\n        uint timePassed = (block.timestamp).sub(streamStart);\n        uint streamedToDate = inFlowRate * timePassed;\n\n        /* token streaming, streamedToDate, totalToStream, timeLeft */\n        streamByJobId[jobId] = [inFlowRate, streamedToDate, amount, streamStart, timeLeft, deadline];\n    }\n\n    function getStreamData(\n      bytes32 jobId)\n      public view returns  (uint[5] memory) {\n        uint totalToStream = streamByJobId[jobId][2];\n        uint deadline = streamByJobId[jobId][5];\n        uint streamStart = streamByJobId[jobId][3];\n        // @dev This will give me the new flowRate, as it is called in after callbacks\n        int96 netFlowRate = _cfa.getNetFlow(_acceptedToken, address(this));\n        (,int96 outFlowRate,,) = _cfa.getFlow(_acceptedToken, address(this), _receiver); // CHECK: unclear what happens if flow doesn't exist.\n        uint inFlowRate = uint(netFlowRate + outFlowRate);\n        uint timeLeft = deadline.sub(block.timestamp);\n\n        /* streamByJobId[jobId].timeLeft = timeLeft; */\n        uint timePassed = (block.timestamp).sub(streamStart);\n        uint streamedToDate = inFlowRate * timePassed;\n        /* streamByJobId[jobId].streamedToDate = streamedToDate; */\n        /* token streaming, streamedToDate, totalToStream, timeLeft */\n        return [inFlowRate, streamedToDate, totalToStream, timeLeft, deadline];\n    }\n\n    // @dev Change the Receiver of the total flow\n    function _changeReceiver( address newReceiver ) internal {\n        require(newReceiver != address(0), \"New receiver is zero address\");\n        // @dev because our app is registered as final, we can't take downstream apps\n        require(!_host.isApp(ISuperApp(newReceiver)), \"New receiver can not be a superApp\");\n        if (newReceiver == _receiver) return ;\n        // @dev delete flow to old receiver\n        (,int96 outFlowRate,,) = _cfa.getFlow(_acceptedToken, address(this), _receiver); //CHECK: unclear what happens if flow doesn't exist.\n        if(outFlowRate > 0){\n          _host.callAgreement(\n              _cfa,\n              abi.encodeWithSelector(\n                  _cfa.deleteFlow.selector,\n                  _acceptedToken,\n                  address(this),\n                  _receiver,\n                  new bytes(0)\n              ),\n              \"0x\"\n          );\n          // @dev create flow to new receiver\n          _host.callAgreement(\n              _cfa,\n              abi.encodeWithSelector(\n                  _cfa.createFlow.selector,\n                  _acceptedToken,\n                  newReceiver,\n                  _cfa.getNetFlow(_acceptedToken, address(this)),\n                  new bytes(0)\n              ),\n              \"0x\"\n          );\n        }\n        // @dev set global receiver to new receiver\n        _receiver = newReceiver;\n\n        emit ReceiverChanged(_receiver);\n    }\n\n    /**************************************************************************\n     * SuperApp callbacks\n     *************************************************************************/\n\n    function afterAgreementCreated(\n        ISuperToken _superToken,\n        address _agreementClass,\n        bytes32, // _agreementId,\n        bytes calldata /*_agreementData*/,\n        bytes calldata ,// _cbdata,\n        bytes calldata _ctx\n    )\n        external override\n        onlyExpected(_superToken, _agreementClass)\n        onlyHost\n        returns (bytes memory newCtx)\n    {\n        bytes memory userData = abi.decode(_host.decodeCtx(_ctx).userData, (bytes));\n        return _updateOutflow(_ctx, userData);\n    }\n\n    function afterAgreementUpdated(\n        ISuperToken _superToken,\n        address _agreementClass,\n        bytes32 ,//_agreementId,\n        bytes calldata agreementData,\n        bytes calldata ,//_cbdata,\n        bytes calldata _ctx\n    )\n        external override\n        onlyExpected(_superToken, _agreementClass)\n        onlyHost\n        returns (bytes memory newCtx)\n    {\n        bytes memory userData = abi.decode(_host.decodeCtx(_ctx).userData, (bytes));\n        return _updateOutflow(_ctx, userData );\n    }\n\n    function afterAgreementTerminated(\n        ISuperToken _superToken,\n        address _agreementClass,\n        bytes32 ,//_agreementId,\n        bytes calldata /*_agreementData*/,\n        bytes calldata ,//_cbdata,\n        bytes calldata _ctx\n    )\n        external override\n        onlyHost\n        returns (bytes memory newCtx)\n    {\n        // According to the app basic law, we should never revert in a termination callback\n        bytes memory userData = abi.decode(_host.decodeCtx(_ctx).userData, (bytes));\n        if (!_isSameToken(_superToken) || !_isCFAv1(_agreementClass)) return _ctx;\n        return _updateOutflow(_ctx, userData);\n    }\n\n    function createFlow(address newReceiver, uint flowRate, bytes memory jobId) external {\n        _host.callAgreement(\n                _cfa,\n                abi.encodeWithSelector(\n                    _cfa.createFlow.selector,\n                    _acceptedToken,\n                    newReceiver,\n                    flowRate,\n                    new bytes(0)\n                ),\n                jobId //userData: bytes\n        );\n    }\n\n    function _isSameToken(ISuperToken superToken) private view returns (bool) {\n        return address(superToken) == address(_acceptedToken);\n    }\n\n    function _isCFAv1(address agreementClass) private view returns (bool) {\n        return ISuperAgreement(agreementClass).agreementType()\n            == keccak256(\"org.superfluid-finance.agreements.ConstantFlowAgreement.v1\");\n    }\n\n    function setTennerrEscrow(address payable newContract) external {\n        require(hasRole(ADMIN_ROLE, msg.sender), \"Caller is not an admin\");\n        _tennerrEscrowContractAddress = newContract;\n        tennerrEscrow = TennerrEscrow(_tennerrEscrowContractAddress);\n    }\n\n    modifier onlyHost() {\n        require(msg.sender == address(_host), \"RedirectAll: support only one host\");\n        _;\n    }\n\n    modifier onlyExpected(ISuperToken superToken, address agreementClass) {\n        require(_isSameToken(superToken), \"RedirectAll: not accepted token\");\n        require(_isCFAv1(agreementClass), \"RedirectAll: only CFAv1 supported\");\n        _;\n    }\n\n    receive() external payable {}\n\n}\n",
  "sourcePath": "contracts/TennerrStreamer.sol",
  "type": "contract"
}